:020000040000fa
:080000000002040000000000f2
:020000040000fa
:04000800da05000015
:020000040000fa
:04000c00da05000011
:020000040000fa
:04001000da0500000d
:020000040000fa
:04001400da05000009
:020000040000fa
:04001800da05000005
:020000040000fa
:04001c00da05000001
:020000040000fa
:04002000da050000fd
:020000040000fa
:04002400da050000f9
:020000040000fa
:04002800da050000f5
:020000040000fa
:04002c00da050000f1
:020000040000fa
:04003000da050000ed
:020000040000fa
:04003400da050000e9
:020000040000fa
:04003800740400004c
:020000040000fa
:04003c00da050000e1
:020000040000fa
:04004000da050000dd
:020000040000fa
:04004400da050000d9
:020000040000fa
:04004800da050000d5
:020000040000fa
:04004c00da050000d1
:020000040000fa
:04005000da050000cd
:020000040000fa
:0400540004030000a1
:020000040000fa
:04005800da050000c5
:020000040000fa
:04005c00b4030000e9
:020000040000fa
:040060009604000002
:020000040000fa
:04006400da050000b9
:020000040000fa
:04006800da050000b5
:020000040000fa
:04006c00da050000b1
:020000040000fa
:04007000da050000ad
:020000040000fa
:04007400c4040000c0
:020000040000fa
:040078001e03000063
:020000040000fa
:04007c00da050000a1
:020000040000fa
:04008000da0500009d
:020000040000fa
:04008400da05000099
:020000040000fa
:04008800a8040000c8
:020000040000fa
:04008c00da05000091
:020000040000fa
:04009000da0500008d
:020000040000fa
:04009400da05000089
:020000040000fa
:04009800da05000085
:020000040000fa
:04009c002405000037
:020000040000fa
:0400a000fa02000060
:020000040000fa
:0400a400da05000079
:020000040000fa
:0400a800da05000075
:020000040000fa
:0400ac00da05000071
:020000040000fa
:0400b000da0500006d
:020000040000fa
:0400b400da05000069
:020000040000fa
:0400b800b60400008a
:020000040000fa
:0400bc00da05000061
:020000040000fa
:0400c0009c0500009b
:020000040000fa
:0400c400da05000059
:020000040000fa
:0400c800da05000055
:020000040000fa
:0400cc00da05000051
:020000040000fa
:0400d000da0500004d
:020000040000fa
:0400d400da05000049
:020000040000fa
:0400d800da05000045
:020000040000fa
:0400dc00da05000041
:020000040000fa
:0400e000da0500003d
:020000040000fa
:0400e400da05000039
:020000040000fa
:0400e800da05000035
:020000040000fa
:0400ec00da05000031
:020000040000fa
:0400f000da0500002d
:020000040000fa
:0400f400da05000029
:020000040000fa
:0400f800da05000025
:020000040000fa
:0400fc00da05000021
:020000040000fa
:04010000da0500001c
:020000040000fa
:04010400da05000018
:020000040000fa
:04010800da05000014
:020000040000fa
:04010c00da05000010
:020000040000fa
:04011000da0500000c
:020000040000fa
:04011400da05000008
:020000040000fa
:04011800da05000004
:020000040000fa
:04011c00da05000000
:020000040000fa
:04012000da050000fc
:020000040000fa
:04012400da050000f8
:020000040000fa
:04012800da050000f4
:020000040000fa
:04012c00da050000f0
:020000040000fa
:04013000da050000ec
:020000040000fa
:04013400da050000e8
:020000040000fa
:04013800da050000e4
:020000040000fa
:04013c00da050000e0
:020000040000fa
:04014000da050000dc
:020000040000fa
:04014400da050000d8
:020000040000fa
:04014800da050000d4
:020000040000fa
:04014c00da050000d0
:020000040000fa
:04015000da050000cc
:020000040000fa
:04015400da050000c8
:020000040000fa
:04015800da050000c4
:020000040000fa
:04015c00da050000c0
:020000040000fa
:04016000da050000bc
:020000040000fa
:04016400da050000b8
:020000040000fa
:04016800da050000b4
:020000040000fa
:04016c00da050000b0
:020000040000fa
:04017000da050000ac
:020000040000fa
:04017400da050000a8
:020000040000fa
:04017800da050000a4
:020000040000fa
:04017c00da050000a0
:020000040000fa
:04018000da0500009c
:020000040000fa
:04018400da05000098
:020000040000fa
:04018800da05000094
:020000040000fa
:04018c00da05000090
:020000040000fa
:04019000da0500008c
:020000040000fa
:04019400da05000088
:020000040000fa
:04019800da05000084
:020000040000fa
:04019c00da05000080
:020000040000fa
:0401a000da0500007c
:020000040000fa
:0401a400da05000078
:020000040000fa
:0401a800da05000074
:020000040000fa
:0401ac00da05000070
:020000040000fa
:0401b000da0500006c
:020000040000fa
:0401b400da05000068
:020000040000fa
:0401b800da05000064
:020000040000fa
:0401bc00da05000060
:020000040000fa
:0401c000da0500005c
:020000040000fa
:0401c400da05000058
:020000040000fa
:0401c800da05000054
:020000040000fa
:0401cc00da05000050
:020000040000fa
:0401d000da0500004c
:020000040000fa
:0401d400da05000048
:020000040000fa
:0401d800da05000044
:020000040000fa
:0401dc00da05000040
:020000040000fa
:0401e000da0500003c
:020000040000fa
:0401e400da05000038
:020000040000fa
:0401e800da05000034
:020000040000fa
:0401ec00da05000030
:020000040000fa
:0401f000da0500002c
:020000040000fa
:0401f400da05000028
:020000040000fa
:0401f800da05000024
:020000040000fa
:0401fc00da05000020
:020000040000fa
:04020000da0500001b
:020000040000fa
:04020400da05000017
:020000040000fa
:04020800da05000013
:020000040000fa
:04020c00da0500000f
:020000040000fa
:04021000da0500000b
:020000040000fa
:04021400da05000007
:020000040000fa
:04021800da05000003
:020000040000fa
:04021c00da050000ff
:020000040000fa
:04022000da050000fb
:020000040000fa
:04022400da050000f7
:020000040000fa
:04022800da050000f3
:020000040000fa
:04022c00da050000ef
:020000040000fa
:04023000da050000eb
:020000040000fa
:04023400da050000e7
:020000040000fa
:04023800da050000e3
:020000040000fa
:04023c00da050000df
:020000040000fa
:04024000da050000db
:020000040000fa
:04024400da050000d7
:020000040000fa
:04024800da050000d3
:020000040000fa
:04024c00da050000cf
:020000040000fa
:04025000da050000cb
:020000040000fa
:04025400da050000c7
:020000040000fa
:04025800da050000c3
:020000040000fa
:04025c00da050000bf
:020000040000fa
:04026000da050000bb
:020000040000fa
:04026400da050000b7
:020000040000fa
:04026800da050000b3
:020000040000fa
:04026c00da050000af
:020000040000fa
:04027000da050000ab
:020000040000fa
:04027400da050000a7
:020000040000fa
:04027800da050000a3
:020000040000fa
:04027c00da0500009f
:020000040000fa
:04028000da0500009b
:020000040000fa
:100400006fec26000eff27000e01880000000000a0
:10041000000020000000e000020032000001200087
:100420002002880014000700e40107000000e0003b
:1004300003003a00600d2a0001002000020037008e
:100440000000200001002000810f70000100320038
:100450000f000700000020000000e0000200320052
:100460000000020000000000008002000000000008
:100470000040da000000fe00800420000000e000e0
:1004800002003200002020009001880000000600d9
:10049000a1028800800478000000eb001f003700f4
:1004a000e284440054a0b4009905ba00e2844400f8
:1004b00054a0b4009906ba00e284440054a0b400e9
:1004c0000006eb00476fde00fd07b200ae018800ba
:1004d000636ce10003003a000ad801000000eb0061
:1004e0000e003700606ce10008003a00004deb00a0
:1004f0000a05e800020039003420ec000af0a000f0
:100500008b05e900f9ff3e00040037006168e10057
:10051000010032000086eb000b00070019c7ba008b
:100520000e04e0001905ba0003003a000a00e000da
:10053000dbff3a0000000600fe07b200ae028800b2
:100540008a047800f5ff37000cd0a300e20f4d00bd
:100550001c00390089027800354dba000a05e80010
:10056000020039003420ec000af0a0008b05e900fd
:100570000f003200254dba000a05e80002003900dc
:100580003420ec000af0a0008b05e90008003200de
:100590000c00e0000600320015cdba000a05e800a4
:1005a000020039003420ec000af0a0008b05e900bd
:1005b0008984e80054a0b4000b00e000e2ff3a0098
:1005c000000006009902ba00055d78008b05e9007d
:1005d000f7ff3200c82ade00055d78008b05e900d0
:1005e000f3ff32000c00e000f1ff320019ddba0029
:1005f000eeff37000060fe003602f8002402f9002a
:1006000003c8a90000400600809fbe00821f78003a
:100610000060fe0001202000921180000280600036
:10062000fdff3a002602f8003402f9000168a90033
:100630004f0178004f00be00004006003600f80071
:10064000809fbe00829fbe00849fbe00869fbe002a
:100650006e5707002104200000806000810f5000c9
:100660003a003a00c06928005302070000c6b300f0
:100670005e57070080417800600921000348780038
:1006800095d0bf0042c1b3000440bc00e4c92600bd
:100690008400410003407800de57070001c3b30027
:1006a00070c0b3001b5707005209210012417800a7
:1006b0000281fb00d1cc2c000112b8004328de00df
:1006c000ea02b90004025100c3dc260005c3b300ee
:1006d000854942000080fb000102b800432ade0089
:1006e000ea22b900040050008301e90004c3b3000a
:1006f000844940000300e9004211de00b3472100b5
:100700000311b8000301d1000281fb000112b800ff
:10071000432ade00ea22b9000401510005c3b300f8
:1007200005484100e30040008048eb00220207003a
:100730009550ec0095f0b700ef4f500003003a00e1
:100740009570ef00406a28001b0207000288a9008c
:100750004f03be004f02be004f01be004f00be005f
:100760003600f90000400600809fbe00821f78001e
:1007700001a8a9007f50e20058003a0015eea80039
:100780004b50e20023003200c0828000011880003c
:1007900001187800c08288004e50e200120032003a
:1007a000d08280001218800002187800d082880061
:1007b0004ed0bf00e14f50000b003600e0828000b9
:1007c0002118800001187800e08288004ed0bf0018
:1007d000e24f500004003600f082800032188000a2
:1007e00002187800f08288005610ec00b082880071
:1007f00015eea9008410e30038003a0001a8a90012
:1008000021a8a90010c0b3007ff0b70015eea80022
:10081000320037004dd0bf000080fb000008a3006d
:10082000030032000003f8006010f9000e003700ea
:100830000018a300030032000203f8006010f90062
:10084000090037000028a300030032000403f80069
:100850006010f900040037000038a30002003200e5
:100860000603f8006010f900808280008010e30029
:1008700018003600a1828000128480008110de0002
:1008800000804000808288004cd0bf0008003a0001
:1008900091828000ea80400002838000810f510035
:1008a0000300360010c0b3004cf0b7000b00370057
:1008b0009182800002838000810f510007003e007a
:1008c0000004e0000500320010c0b3004bf0b70098
:1008d0000200370010c0b3004bf0b7004f017800a2
:1008e0004f00be0000400600801f780042c1a900f2
:1008f00080ff2f004021b60001eba9000088a9006d
:100900002088a9007850ed00e14f500005003e001e
:1009100080ff2f004821b60011eba90001c8a900f3
:1009200021c8a9004f00780000400600801f780011
:100930004ac1a90080ff2f004821b60011eba90091
:1009400001c8a90021c8a9004f0078000040060096
:10095000801f780052c1a90080ff2f005021b600ef
:100960000308a9004f00780000400600801f7800af
:100970005ac1a90080ff2f005821b6000488a900a1
:100980004f00780000400600809fbe00829fbe009e
:1009900091708000ca08de0066d0bf0080806000d1
:1009a0008100ea00cf08de0003d0bf000080fb001a
:1009b000808f500020003a00194ea900196ea9003e
:1009c000198ea90019aea9000268a9002268a90021
:1009d00091708000025480004311de00614161008b
:1009e000ca08de00efc06000400020000011dd00fa
:1009f00082c07000814178006208210003497800bc
:100a000042c1a8004ac1a80052c1a8005ac1a8000a
:100a100011e1a80091708000025480004311de00b3
:100a200061416100ca08de00efc060000010dd0017
:100a300000c0700002f0b7000268a9004f01be00bc
:100a40004f00be0000400600809fbe00829fbe0097
:100a50007108210091407800e780600080ff2f003e
:100a6000030a80000301600002817000020a88000e
:100a70008108210091407800e7806000430a8000ef
:100a80000301600002817000420a88009108210081
:100a900091407800e7806000830a800003016000d5
:100aa00002817000820a8800a1082100914078002c
:100ab000e78060005801b60000807000c00a88001e
:100ac00091708000025480004311de00614161009a
:100ad000ca08de00efc06000400020000011dd0009
:100ae00082c07000814178006208210003497800cb
:100af00042c1a80052c1a8004ac1a8005ac1a8001a
:100b000091708000025480004311de006141610059
:100b1000ca08de00efc060000010dd0000c07000f9
:100b200002f0b70003a8a90023a8a9004f01be0046
:100b30004f00be0000400600809fbe00829fbe00a6
:100b400091708000025480004311de006141610019
:100b5000ca08de00efc06000400020000011dd0088
:100b600082c070008141780062082100034978004a
:100b700081ff2f00821520001289600004c8a9009f
:100b800024c8a90091708000025480004311de0047
:100b900061416100ca08de00efc060000010dd00a6
:100ba00000c0700002f0b7004f01be004f00be0051
:100bb000004006000040da000000fe0000000500d2
:100bc0005400f800423988005039880061398800a3
:100bd0000500fc005105200071398800a10a2000a1
:100be0007139880029e7a80000000000000000001b
:100bf0005400f900000006000400a10001003700c5
:100c00000400a0005400f8005039880061398800c1
:100c1000a00f2000a00288000000eb0021002400ab
:100c200041398800f10f20003208bb000400a70002
:100c3000b20078000198bb002ca7ec008301e9000a
:100c4000f9ff3a00680151000400a7006801510053
:100c5000680050001208bb00ddff3700f30f2000d2
:100c60005400f8005039880061398800a1028800da
:100c700011002400413988000208bb000388bb0032
:100c8000d3ff37005400f80040398800d0ff370008
:100c9000f30f2000f50f20005400f80050398800b1
:100ca00061398800a00f2000a00288000000eb003e
:100cb0000208bb000398bb000408bb000598bb00fa
:100cc0001100240041398800c1ff37005400f800aa
:100cd000a102880080027800620040003549ba0015
:100ce000e08048003204e0000410a7001000320049
:100cf0008301e9000e0032002549ba003204e00009
:100d00000410a7000a0032008301e9000800320045
:100d10000408a300eeff320015c9ba003204e00057
:100d20000410a700020032008301e900e8ff3a0046
:080d30005400f9000000060068
:020000040000fa
:100d3800526500006d6f0000746500003a00000005
:100d48004e6f000064650000636f0000756e000060
:100d58007420000065780000636500006564000089
:100d6800656400002e200000696e000064650000c4
:100d78007820000072650000736500007420000090
:100d8800746f0000203000002e0000005374000033
:100d9800726100007920000050610000636b000060
:100da800657400005b3000005d2c000000500000fe
:100db800534c00006162000020560000350000001e
:020000040000fa
:100dc8004022ef0010aea90014aea80010cea90072
:100dd80014cea8000148a9002148a9007ad0bf0074
:100de80063006000c1ff2f00121280008280600043
:100df800810070001112880098d0bf006700600061
:100e08004200dd0031fe2f00121280008280600057
:100e180081007000111288004382a9004362a90072
:100e280042e2a90077d0bf00e14f500002003a002b
:100e38004342a900010037004342a80099d0bf00ef
:100e4800610060004800dd00f1ef2f001212800001
:100e58008280600081007000111288007bd0bf0082
:100e6800610060004600dd00f1fb2f0012128000d7
:100e780082806000810070001112880042a2a800e0
:100e88009ad0bf00610060004900dd00f1df2f004b
:100e980012128000828060008100700011128800a8
:100ea80041e2a800000006007750e300020032008b
:100eb80077f0b700c2ff070000000600881f78001f
:100ec8000044780010c0b300f7ff070040c2a90033
:100ed8000884fb00481288004022ab00feff3a005d
:100ee8004002ab00feff3200401280004f04780041
:100ef80000000600881f78000004780020c0b300b6
:100f0800e9ff070040c2a900481288004022ab0050
:100f1800feff3a004002ab00feff320040128000a4
:100f28004f047800000006000000e00006003200d0
:100f38008000eb003f000900000000008100e8008d
:100f4800810f5000fbff3e00000006000000e0009b
:100f5800060032008000eb000700090000000000d6
:100f68008100e800810f5000fbff3e0000000600f2
:100f78000001eb00c33520000000e00009003a0042
:100f88000a0037003f000900000000008100e90066
:100f9800fcff3a000060fe000201e800820f5000ea
:100fa8000200360083007800f6ff370000000600d4
:100fb800e349260024ec25000600370091848000d0
:100fc8008258780091848800838f500001003a008d
:100fd80094848800304178000204e000f7ff3a006a
:040fe80000000600ff
:020000040000fa
:1010000000000000000000000000000000000000e0
:1010100000000000000000000000000000000000d0
:1010200000000000000000000000000000000000c0
:1010300000000000000000000000000000000000b0
:020000040000fa
:020000040001f9
:10000000e6874700889fbe008a9fbe008c9fbe0087
:100010008e1f780015eea90040a7a8004430ef001d
:100020004630ef00c5170700f0002000c81a07008f
:1000300010c0b300721a07000d19070015eea800d2
:100040000c7020006edb26002d0a2100000020002d
:1000500080bf9f00010037000060fe007a1a070091
:100060000004e000fcff3200ae1a070000447800f4
:10007000ac1a0700804478000880fb008000eb0089
:1000800061005000e080580018c0b300ee0f50002f
:10009000e08f5800020b3e00000601000e00370002
:1000a00088003700f401370031023700e2023700e0
:1000b0000903370032033700e60337000b0437002b
:1000c000130437007f0637008e0a3700b008370068
:1000d000900a3700d80a3700e2cf540009003200f6
:1000e00003003e00e1cf5400de0a3a001900370059
:1000f000e3cf540040003200e4cf5400d90a3a0064
:1001000027003700871a07007df0b700851a07001f
:100110007cf0b70028e02600f0044400b01a070085
:10012000002c7800890f5400fcff3a007dd0bf00fe
:10013000d917070043e02600c207210012417800ca
:1001400000828000118280003618070018c0b300ba
:10015000d50a3700731a07007df0b700711a07003f
:100160007cf0b7007dd0bf00cb170700c20721008d
:10017000124178000082800011828000551807002b
:1001800028e02600f004440058007800381a0700e0
:10019000890f5400fcff3a0018c0b300c20a3700b0
:1001a0008f1a0700e08088005e1a07007cf0b70015
:1001b000b91707000082800011828000091807002b
:1001c00018c0b300e0808000e10f5000b60a36008e
:1001d00029de26000004eb0059007800241a0700ed
:1001e0000804e8001c10d500880f5000faff3e00fc
:1001f00018c0b300ac0a3700791a0700e080880005
:10020000481a07007cf0b700e0808000e10f500042
:100210000800360029de26000004eb00701a0700f3
:10022000802c78000804e8001c10d500880f5000ce
:10023000faff3e007cd0bf00971707003200240071
:1002400000828000118280005dc2070089002000ca
:100250000004eb004ade26008005eb0008004400a5
:100260008000400081004500110178007284880000
:100270000000e80000004000000045001002780087
:1002800004818800c241dd0000828000118280006c
:1002900000804100e0804800208288003182880090
:1002a0008b0178007ac20700000000000000000007
:1002b0000804e8008904e900e8ff3a0018c0b30028
:1002c000790a37000980fb008000eb0061005000d4
:1002d000e0805800f50f5000e08f5800630a3e00a0
:1002e00000060100380037005d003700be0037000f
:1002f000860037000d0137001a0137003e01370034
:100300001e0137002b01370035013700570a37002f
:100310002301370009003700540a3700b0003700c6
:10032000af003700510a3700500a37004f0a370034
:10033000ad003700f4003700ab003700320f070084
:10034000f81907007df0b700251a070020848800ff
:10035000231a0700108488004e70ef005d15070017
:10036000d1072100914078000174a1000041eb0009
:1003700060c0b3001d1607007d50e20002003d0082
:10038000941707000200370010c0b3004bf0b7000d
:100390007f70ef005630ef00200a2100c0828800f5
:1003a00021848000818040000080400060808800bf
:1003b000e814070001a8a90021a8a80015eea900cb
:1003c00018c0b300380a3700d61907007df0b7000f
:1003d000031a070020848800011a0700108488008f
:1003e0004e70ef00f8cf2f002132200091086400fa
:1003f000d1072100914078000174a1000041eb0079
:1004000010c0b300f9150700223220001209640061
:100410007d50e20002003d006e1707000200370029
:1004200010c0b3004bf0b7007f70ef005630ef0004
:10043000200a2100c0828800218480008180400041
:100440000080400060808800c214070001a8a90055
:1004500021a8a80015eea90018c0b300120a3700a1
:10046000b01907007df0b700dd190700208488006f
:10047000db1907001084880010c0b3004ef0b700ed
:10048000f8cf2f0013198000830064000180a000c2
:1004900011198800d1072100914078000174a10052
:1004a0000041eb00d115070014198000040064001e
:1004b0000080a00010198800210a2100c182880054
:1004c000208480000000400001004000d0828800ad
:1004d000608088007d50e20002003d003d1707006b
:1004e0000200370010c0b3004bf0b7007f70ef0080
:1004f0005630ef009714070001a8a90021a8a80012
:1005000015eea90018c0b300e709370085190700e8
:100510007df0b700b219070020848800b0190700e9
:100520001084880030c0b3004ef0b70000302000c7
:100530002223b700d1072100914078004409de0052
:1005400061016100efc0600010c0b300a715070093
:100550004ed0bf00630060004800dd00f1cf2f00e7
:1005600016198000868060008100700011198800d3
:10057000200a2100c082880021848000018140007f
:1005800000014100d2828800c209dd008081410063
:10059000e3828800e60ab900840078000080400009
:1005a000f0828800628088007d50e20002003d00f9
:1005b000081707000200370010c0b3004bf0b70067
:1005c0007f70ef005630ef006214070001a8a90009
:1005d00021a8a80015eea90018c0b300b209370081
:1005e00000fc2f008a26b6004e1907007df0b700e8
:1005f0007b1907002084880079190700108488007f
:100600004e70ef00f0cf2f002223b60001a8a90002
:1006100021a8a90010c0b3007ff0b7008410f80033
:100620005610f900d1072100914078000104e00044
:1006300005003d000174a1000041eb0080c0b30043
:100640006a150700040037000174a1000041eb00a7
:1006500070c0b300651507000fbb970036588800bf
:100660002d588800003020006058880021848000c8
:100670008100e90071588800f6cf54000f003a005d
:1006800057190700e08088000829ef0008fc2f00b8
:1006900052348000820064000140a0005134880080
:1006a000bb160700a3682000930964000088a90016
:1006b0002088a80001eba8000b0037000088a900e3
:1006c0002088a80001eba800f0cf540002003a00f7
:1006d00024cea90008003700efcf540002003a00f2
:1006e00024cea80004003700f4cf540002003a00e2
:1006f000200ea900240ea9001614070015eea9006b
:1007000018c0b30068093700061907007df0b7006c
:1007100033190700e0808800800078007dd0bf009a
:100720006409070018c0b3005f093700fd1807000f
:100730007df0b7006f4060004df0b700281907004a
:100740009082880000352c00008488007dd0bf0096
:100750000080fb004400de00a082880018c0b300c7
:10076000510937007fd0bf00ba180700b08280005f
:10077000bf18070018c0b3004b093700e91807007d
:100780007cf0b700e71807007df0b70080407800e4
:100790007cd0bf00c615070018c0b300420937005f
:1007a000e01807007cf0b700cf15070018c0b300b1
:1007b0003d093700db1807007cf0b7000041eb0073
:1007c00031c0b30001407800081507007cd0bf009d
:1007d000d5130700a618070018c0b3003209370068
:1007e000d01807007cf0b7003b150700a0180700e1
:1007f00018c0b3002c093700240ea900200ea80051
:10080000c81807007df0b700f5180700e0808800e1
:10081000f318070080047800f9808800e0808000e9
:100820000080440018c0b300808f54001e093100be
:10083000280a2100d1072100914078008180fb0027
:10084000208480008088b9000080440000004000bf
:100850000000440010007800851807008904e800b3
:10086000f08080001c10b400890f5000f1ff3e00a2
:1008700018c0b3000c093700e3cf54001b0032004e
:1008800005003e00e1cf540008003200e2cf5400e2
:10089000f8083a000f003700e4cf54000800320097
:1008a000e5cf5400f3083a00160037009d18070002
:1008b0007cf0b7008040eb0047150700e7fd3700ec
:1008c000981807007cf0b70011c0b300421507006c
:1008d000e2fd3700931807007df0b70079c10700eb
:1008e0005c18070018c0b300ef083700bc180700f9
:1008f000f080880081c107005d18070018c0b300b0
:10090000e9083700871807007df0b700e74060006e
:100910000143780084092100064a78000080fb002a
:10092000c300de00e3c0600081417800a20721001f
:1009300003497800c500de00e1c060000143780093
:1009400094092100064a7800c600de00e1c060007c
:1009500081417800b2072100034978004700de009a
:100960009af0b70018c1070018c0b300ce083700ce
:100970000980fb008000eb0061005000e08058001f
:1009800018c0b300ef0f5000e08f5800c4083e00bd
:10099000000601000f003700230037001c0037005d
:1009a00031003700430037003c0037001b003700a0
:1009b00029003700450037004b0037004e00370054
:1009c00072003700860037008f0037009100370033
:1009d0008800370010c0b300091807004717070048
:1009e000501807007cf0b700bd170700c810800042
:1009f000c01080004f44de004444dd004500de00ae
:100a00000002b200004474000804a000a4083700eb
:100a10004e17070018c0b300a30837009d17070042
:100a200018c0b300a00837003e1807007df0b700db
:100a3000ab170700c8108000c01080004f44de00d4
:100a40004444dd004500de000002b20000447400b2
:100a50000804a00092083700321807007df0b700a4
:100a60009f1707007dfd37004c1707002d18070062
:100a70007cf0b7009a170700c8108000c0108000f3
:100a80004f44de004444dd004500de000002b200b9
:100a9000004474000804a0008108370010c0b300af
:100aa000a71707007cf0b700ea17070018c0b300cb
:100ab0007d0837000040eb00a11707007cf0b7006d
:100ac000e417070018c0b300770837004418070080
:100ad000f08488008c70ef0010c0b300c8170700c6
:100ae00018c0b30070083700c0108000e01707007e
:100af00018c0b3006c0837000a1807007cf0b70074
:100b00000818070096f0b700061807007df0b70038
:100b1000fa1607007cd0bf000040400070170700a5
:100b200096d0bf006e1707001c1707007cd0bf00cf
:100b3000004040000004a000691707007dd0bf00fe
:100b4000e14f50000b0032000004eb0019c0b3006d
:100b5000094078007a170700be1707000804e8006c
:100b60007dd0bf000080fb000000e900880f50002e
:100b7000f7ff3e000040eb0071170700b5170700b4
:100b8000f216070018c0b30047083700e517070042
:100b90007cf0b700e31707007df0b700d716070019
:100ba0007cd0bf00004040004d1707007d50e200a0
:100bb000080032000004eb00da17070048170700ae
:100bc0000804e8007dd0bf000080fb00880f5000c3
:100bd000f9ff3e00dd16070018c0b30032083700e9
:100be0001822ef001702a80017e2a80018c0b300ef
:100bf0002d0837001822ef001702a90017e2a800fd
:100c000018c0b30028083700aa16070018c0b300a0
:100c100025083700f2170700e0808800108ea90031
:100c2000148ea900c2c00700148ea800108ea80060
:100c300018c0b3001c083700e4cf54002100320074
:100c400005003e00e1cf54000a003200e2cf54001c
:100c50000a083a000c003700e7cf540012003200b7
:100c6000e8cf540013003200e6cf540003083a00e6
:100c70000a003700ab1707007df0b7001e18070009
:100c800018c0b30008083700d5170700f0808800a7
:100c90002018070018c0b30003083700fe1707002c
:100ca0006c170700edfc37000918070070170700e4
:100cb000eafc370090118000614060006517070072
:100cc000e6fc3700c6170700e0808800ce17070053
:100cd00018c0b300f4073700e1cf5400040032001d
:100ce00018c0b300e2cf5400ed073a001b003700f4
:100cf00000092000a010880010c0b30040170700b2
:100d0000881707007cf0b700861707007df0b70052
:100d1000b3170700e0808800781607007cd0bf007a
:100d2000ef1607007dd0bf00004040000064a00027
:100d3000eb160700e08080004800de00e8160700a0
:100d40001cd0bf00e61607008016070060002000d8
:100d500077c0070018c0b300d3073700711707002a
:100d60007cf0b7006f1707007df0b7009c170700f5
:100d7000e08088003e17070018c0b300ca0737009c
:100d8000e9cf5400290032000b003e00e4cf5400ac
:100d90007c00320003003e00e3cf5400b9073a0064
:100da0006c003700e7cf540082003200e8cf5400d7
:100db000b4073a009e003700eecf54001200320014
:100dc00003003e00edcf5400ae073a0005003700a7
:100dd000efcf540027003200f0cf5400a9073a00ab
:100de000400037004f1707007df0b7007c17070061
:100df000e0808800d107210091407800e1100700d1
:100e000018c0b300a8073700461707007df0b700e9
:100e100073170700e0808800d10721009140780017
:100e20002d11070018c0b3009f0737006c1707008b
:100e3000708488006a17070000818800681707001f
:100e4000e080880066170700f080880035170700eb
:100e50007df0b70000427800f3808000e2808000df
:100e600001818000708480006f11070018c0b300fa
:100e70008d0737001c30ef000004eb00e949260025
:100e8000fa1f200056170700080444008880440019
:100e900080087800e88080000804e800e880880086
:100ea0008a0f5400f7ff36001c30ef000004eb00ff
:100eb00049e326001b17070008044400888044000b
:100ec0000000fb0080087800e88080000804e8004b
:100ed000e8808800ff0f5400f6ff360018c0b3000a
:100ee000710737001c30ef000004eb00e989260091
:100ef000fa1f20003a1707000804440088804400c5
:100f000080087800e88080000804e800e880880015
:100f10008a0f5400f7ff36001c30ef000004eb008e
:100f200049e72600ff1607000804440088804400b3
:100f30000000fb0080087800e88080000804e800da
:100f4000e8808800ff0f5400f6ff360018c0b30099
:100f50005507370022170700e08088002017070098
:100f6000f0808800ef1607007df0b70000417800a0
:100f7000f1808000e0808000c30f070018c0b3003c
:100f80004907370016170700e0808800141707008c
:100f9000f0808800e31607007df0b700004178007c
:100fa000f1808000e0808000d20f070018c0b300fd
:100fb0003d0737000a170700e08088000817070080
:100fc000f080880006170700708488000417070067
:100fd00000818800021707001081880000170700b1
:100fe00020818800fe16070030818800fc1607006b
:100ff00040818800cb1607007df0b700801f780085
:101000004781800036818000258180001481800026
:101010000381800072848000f1808000e080800085
:10102000ce0f07008f87e90018c0b3001e073700f6
:10103000bc1607007cf0b700ba1607007df0b700b9
:10104000804078007cd0bf001e14070018c0b30099
:101050001507370018c0b300e1cf540010073a005d
:10106000b01607000000fb00e08088000048a300e5
:101070000300320001fc2f00a4682000148a6000e5
:101080000058a30003003200f10f2c00a6682000d6
:10109000168b60000068a3000300320001fc2f00e3
:1010a000c2682000128960000078a30003003200ab
:1010b000f10f2c00c3682000938960008000780045
:1010c000010fb200c208dd008180ea0024718000b7
:1010d00081006200217188006f0060004600dd0021
:1010e000242eb70018c0b300ef06370018c0b300b5
:1010f000e2cf5400ea063a00907080004a00de0019
:101100006f4060005316070018c0b300e6063700b2
:101110000980fb008000eb0061005000e080580077
:10112000f00f5000e08f5800d8063e000006010086
:1011300010003700d5063700d4063700c30037004b
:101140002c013700ca013700d006370045023700ae
:1011500022023700cd06370010023700300037007a
:1011600084003700b5003700f30037008a013700ec
:10117000070237000028a90099160700e0808800c0
:10118000681607007df0b700661607007cf0b70010
:10119000d10721009140780063c16000c208de00e1
:1011a000e78060006f406000920707000028ab00f6
:1011b00008003a00e08080004e01e30005003100a5
:1011c0000060fe000028ab0002003a004e01e30080
:1011d000fbff39000028a900700a800024160700d0
:1011e0007dd0bf00630060000a0032000004eb0005
:1011f000200a80001e160700600a80001c160700e7
:101200000804e8007dd0bf0063006000880f500034
:10121000f7ff3e007c0b070018c0b300a2063700a2
:101220006f160700e08088003e1607007cf0b700cc
:101230003c1607007df0b7003a1607000042780020
:1012400086042100044b7800d20721001241780067
:101250007cd0bf008482fb00c311de0067416100c7
:101260008080fb00c408de006f406000c42ade00fe
:101270006f426200e7c16100b80707007dd0bf0080
:101280000068a3000a00320001fc2f00a2682000c1
:10129000128960000000d1000004b2008100e90062
:1012a00023718000838060008100700021718800bc
:1012b000e080800001022000010037000060fe0095
:1012c0000028ab0008003200244080000481600048
:1012d0000500320048d0bf006f0060000004eb0042
:1012e00004003a000c0037004e01e300f3ff390020
:1012f000f8ff3700200a8000dd150700600a800033
:10130000db1507000804e80048d0bf006f0060004c
:10131000880f5000f7ff3e0048d0bf000080fb0060
:101320004400de000b0032000004eb00a00a800045
:10133000cf150700e00a8000cd1507000804e8007b
:1013400048d0bf000080fb004400de00880f500042
:10135000f6ff3e0004a8a9000028a900700a80003a
:10136000c3150700280b070011e1a90018c0b3003e
:101370004d0637001a160700e0808800e9150700bf
:101380007cf0b700e71507007df0b700c407210027
:1013900014427800c301de00674160008480fb00d6
:1013a000c408de006f406200e7c16100f907070072
:1013b0000028ab0008003a00e08080004e01e30006
:1013c000050031000060fe000028ab0002003a007a
:1013d0004e01e300fbff3900200a8000a41507003e
:1013e000600a8000a215070004a8ab000a003a00ba
:1013f000e08080004e01e300070031000102200080
:101400000060fe00264080000681600002003a0075
:101410004e01e300faff3900a00a8000941507008e
:10142000e00a800092150700700a800090150700fe
:10143000f50a070018c0b3001b063700b9150700ee
:1014400067f0b70018c0b30017063700e4150700af
:10145000e0808800b31507007df0b700b1150700e4
:1014600096f0b700d1072100914078000181fb0080
:101470000208a3001c0032000218a3000200320080
:10148000c248a80001003700c248a9006670ef00fa
:101490008180fb00c408de0042eb26008100410091
:1014a000914078000174a100f107b20002f82f000a
:1014b000133580000301610002817000123588003d
:1014c0006f4160008080fb00c408de008041eb00bb
:1014d000e08080000a08070003a8a90023a8a8004c
:1014e00018c0b300f00537006f4160008080fb003a
:1014f000c408de008041eb00e080800000080700a7
:1015000091708000025480004311de00614161004f
:10151000ca08de00efc06000400020000010dd00bf
:1015200000c0700086f0b70042c1a8004ac1a80000
:1015300018c0b300dc05370004c8a9000c0078000f
:101540005228b70024c8a900a5150700e08088002c
:10155000741507007df0b700721507007cf0b70026
:10156000e70060000e003200d107210091407800b2
:101570006fc160008180fb00c408de0080417800fc
:10158000e0808000de07070004c8a9000c00780096
:101590005228b70024c8a80018c0b300c2053700fd
:1015a0007dd0bf006f4160008080fb00c408de007a
:1015b0008041eb00e0808000d1070700917080003f
:1015c000025480004311de0061416100ca08de0060
:1015d000efc06000400020000010dd0000c070007f
:1015e00086f0b7004ac1a80042c1a80018c0b300e5
:1015f000ad0537007a150700e0808800491507001f
:101600007df0b7004715070096f0b70045150700b5
:101610007cf0b7000041780061092100914078001a
:10162000e08080003c0807007dd0bf008080fb0088
:101630000108a3001b0032000118a30002003200c1
:10164000c248a80001003700c248a9000080fb0082
:101650004400de0041eb260000804000104078008e
:101660000074a100f007b20001f82f0012358000cd
:10167000828060008100700011358800c20721005f
:10168000124178006109210091407800e0808000db
:101690002108070003a8a90023a8a80018c0b300c8
:1016a00081053700c207210012417800610921003d
:1016b00091407800e0808000170807007108210041
:1016c00091407800e780600080ff2f00030a8000cf
:1016d0000301600002817000020a88008108210075
:1016e00091407800e7806000440a800004016000b7
:1016f00002817000420a8800910821009140780020
:10170000e7806000860a80000601600002817000a8
:10171000820a8800a108210091407800e7806000db
:101720005801b60000807000c00a880092708000e6
:1017300001548000c308de00e1c060004a11de00f1
:101740006f416100400020008008dd008140710091
:1017500081417800620821000349780042c1a80055
:1017600052c1a8004ac1a8005ac1a80091708000c7
:10177000025480004311de0061416100ca08de00ae
:10178000efc060000010dd0000c0700002f0b70084
:1017900018c0b3004405370011150700e080880029
:1017a0000f150700f0808800de1407007cf0b700fa
:1017b000e70060000c003200f1ff2000f4808000a0
:1017c0008480600000417800e0808000800807008d
:1017d00004c8a9000c0078005228b70024c8a8004b
:1017e00018c0b30030053700f1ff2000f280800000
:1017f000828060000041eb00e080800074080700f8
:10180000907080001af0b700927080000154800040
:10181000c308de00e1c060004a11de006f416100d4
:10182000400020008008dd00814071000142780006
:10183000630821008449780042c1a8004ac1a80079
:1018400052c1a80091708000025480004311de0054
:1018500061416100ca08de00efc060000010dd00d9
:1018600000c0700002f0b70018c0b3000e053700ca
:10187000db140700e0808800d9140700f08088009e
:10188000a81407007cf0b700a61407007df0b7008d
:101890008670ef00c207210012417800f1808000bd
:1018a000e08080000a0907007dd0bf000080fb00b7
:1018b0000008a3001a0032000018a3000400320040
:1018c00012c0b30036002100024b7800010037003f
:1018d0000370ef006670ef000028a30004003200e0
:1018e000194ea80014c0b300630621008449780093
:1018f0000038a30002003200196ea8006630a8006c
:101900000048a30002003200198ea8006650a8000b
:101910000268a9002268a80018c0b300e2043700da
:1019200011e1a8009270800001548000c308de001d
:10193000e1c060004a11de006f41610040002000fc
:101940008008dd00814071000141780066082100b7
:10195000024b780042c1a8004ac1a80052c1a800a9
:101960005ac1a80091708000025480004311de002b
:1019700061416100ca08de00efc060000010dd00b8
:1019800000c0700002f0b70018c0b300c6043700f2
:101990009d09070018c0b300c30437000d0078008c
:1019a000331407002058800031140700a05880002d
:1019b0002f140700205980002d140700a059800023
:1019c0002b14070086d0bf002214070002d0bf00ee
:1019d0002014070018c0b300b304370080140700b8
:1019e000e08088004f1407007df0b7001c10e20073
:1019f000190032000004eb00893821002a0a210076
:101a00004b9c20007dd0bf000080fb008980b90086
:101a10000000440000004000000045001000780075
:101a2000131407007dd0bf000080fb008980b9003f
:101a30000b0040000800400000004000000045008e
:101a4000100078000a1407000804e800e380800012
:101a5000888f5100ebff3e0015eea80018c0b300c0
:101a6000910437005e140700e08088002d14070001
:101a70007df0b7001c10e2000f0032000004eb0004
:101a8000499c20002a0a21007dd0bf000080fb0075
:101a90008980b900000044000000400000004500bb
:101aa00010007800f21307000804e800e4808000ca
:101ab000880f5200f4ff3e0015eea80018c0b300d6
:101ac000790437000980fb008000eb0061005000c2
:101ad000e0805800fa0f5000e08f58006d043e007f
:101ae000000601001a003700510037009900370046
:101af00068043700bc00370066043700650437000f
:101b0000c200370063003700d600370001013700fc
:101b1000d1013700ec013700f9013700fe01370031
:101b200017003700400137000c023700140237005d
:101b30007000370057043700800137001600370067
:101b4000380037004a0037004e003700db0037000e
:101b5000f41307007df0b7008080fb004709de002a
:101b6000c508de00e3c060007f406000cc040700d1
:101b7000f0808800be13070018c0b3004a04370085
:101b800017140700f0808800a3040700b8130700ab
:101b900018c0b30044043700e21307007df0b7001b
:101ba000e01307007cf0b7003be3a900d107210058
:101bb000914078000181fb004711de004c11dd00ef
:101bc000f3ff2e00d6198000868161008301710029
:101bd000d31988004a00dd00f23f2000f31980008d
:101be0000301610002017000f21988006380600047
:101bf0004800dd00f1cf2f00f419800084806000e0
:101c000081007000f11988003b03a9003be3a800a4
:101c1000803e2000c6bc07003d03a80018c0b300ea
:101c2000210437003104070018c0b3001e04370038
:101c3000bc1307007df0b700ba1307007cf0b700b3
:101c4000e7130700f080880015eea9000001780076
:101c5000c1072100914078007dd0bf002804070013
:101c60008313070015eea80018c0b3000e04370058
:101c7000ac1307007cf0b7002105070018c0b300c3
:101c800009043700300880007913070018c0b3003a
:101c90000504370015eea900a21307007df0b70078
:101ca000c400de00e4c060006f406000a3040700d1
:101cb000000021001640800086006000fdff320019
:101cc0000388a90015eea8000601f8003810f900f5
:101cd0000801f8003a10f90010c0b3005d130700c6
:101ce000d1818000c08180006e13070018c0b3004e
:101cf000ed03370015eea9008a1307007df0b70049
:101d0000c400de00e4c060006f406000cc08070043
:101d1000000021001240800082006000fdff3200c0
:101d20000388a90015eea8004601f8003c10f90050
:101d30004e01f8003e10f90010c0b3004513070033
:101d4000f1818000e08180005613070018c0b300c5
:101d5000d50337000028a900a1130700e080880000
:101d6000701307007df0b70022c0b30051c0b3006c
:101d7000a0040700e08080004e01e3000200310073
:101d80000028ab00fcff32000028a90001f82f005a
:101d9000e36a2000938960004e01e30002003100f5
:101da0004881ab000300320010c0b30029130700c4
:101db000020037000040eb0026130700200a8000d5
:101dc0002b130700600a800029130700200a8000f7
:101dd00027130700600a8000251307008a08070000
:101de00018c0b300b0033700a86d2800e804440011
:101df0005840780017130700890f5400fcff3a0081
:101e0000a0c0b3001313070094f837007413070041
:101e1000e080880072130700f0808800e88080006e
:101e200008004000880f50000b0036008804e900cd
:101e300089844400200a21008084440059007800ed
:101e40000b1307000804e800f08080001c10b400a9
:101e5000880f5000f9ff3e0015eea80018c0b3002f
:101e6000910337005e130700e08088005c130700d1
:101e7000f0808800e18080000101400018c0b300bc
:101e8000810f5100880336008100e9008180400005
:101e9000200a21000080400002014100010a2100c7
:101ea000028140008000eb0001287800820f500082
:101eb000fdff3a0018c0b3007b033700481307004a
:101ec000e080880046130700f0808800e9808000e9
:101ed0000900400018c0b300808f54007203310025
:101ee0000904e90008044400200a21000004440019
:101ef0003b130700002c78008904e800f080800084
:101f00001c10b400890f5000f9ff3e0018c0b30048
:101f100065033700031307007df0b7009670ef00ec
:101f20000004e0000e0032000044eb0049e126000e
:101f3000fc1207008880fb00818044008048780004
:101f40009650ec0000447800610921008848780030
:101f5000d30721009341780088cf5100f4ff3e0061
:101f6000c3e8a90014aea90020032000f0bb0700bd
:101f70007c70ef00d3072100934178000304e00058
:101f8000260032000041eb008240780045e1260047
:101f900084c0b30001003700014178000180fb00dc
:101fa0000080420010407800844078000004e00087
:101fb00007003d0014aea8002d000900000000003d
:101fc00014aea9002600090000000000060037003a
:101fd00014aea800160009000000000014aea9000d
:101fe0003300090000000000004040008140e9008b
:101ff000eeff3a008240e80081cf5100e6ff3e004c
:1020000001437800c4072100064a780083c0b3006a
:10201000620921000349780048f0b700c3e8a8002e
:1020200018c0b30020033700be1207007df0b700d0
:102030009670ef000004e0000e0032000044eb0058
:1020400049e12600b71207008880fb008180440028
:10205000804878009650ec00004478006109210027
:1020600088487800d30721009341780088cf510039
:10207000f4ff3e00c3e8a90014cea900200320000d
:10208000abbb07007c70ef00d307210093417800c1
:102090000304e000260032000041eb00024078001b
:1020a00045e1260084c0b3000100370002407800fb
:1020b0000080fb00008042001040780084407800df
:1020c0000004e00007003d0014cea8002d00090028
:1020d0000000000014cea900260009000000000046
:1020e0000600370014cea80016000900000000000a
:1020f00014cea90033000900000000000040400099
:102100008140e900eeff3a000241e800834f5100b0
:10211000e6ff390002437800c4072100064a780030
:1021200083c0b300620921000349780048f0b7007a
:10213000c3e8a80018c0b300db02370000fc2f0082
:102140008a26b600771207007df0b700c3e8a90021
:1021500024cea9002003200075bb07009670ef0075
:102160007d50e2000e0032000044eb0049e1260001
:102170006c1207008880fb00818044008048780052
:102180009650ec00004478006109210088487800ee
:10219000d30721009341780088cf5100f4ff3e001f
:1021a0007c70ef00d3072100934178000304e00026
:1021b000260032000041eb000240780045e1260095
:1021c00084c0b30001003700024078000080fb00ab
:1021d0000080420010407800844078000004e00055
:1021e00007003d0024cea8002d00090000000000db
:1021f00024cea900260009000000000006003700d8
:1022000024cea800160009000000000024cea9007a
:102210003300090000000000004040008140e90058
:10222000eeff3a000241e800834f5100e6ff39001b
:1022300002437800c4072100064a780083c0b30037
:10224000620921000349780048f0b700c3e8a800fc
:1022500018c0b300940237004430ef004630ef005e
:102260005f1207008000eb00808188009181880068
:102270005b1207008000eb00a0818800b18188001c
:10228000c000dd000000200082818000938180007a
:102290000200700083807000228280003382800000
:1022a00000004100818049000002eb002300200073
:1022b0007281570085ba07007fb09700ec110700c4
:1022c00018c0b300780237004430ef004630ef000a
:1022d000431207008000eb00808188009181880014
:1022e0003f1207008000eb00a0818800b1818800c8
:1022f0003b120700f0b79f0018c0b3006a02370016
:1023000037120700e080880010007800d81107001d
:1023100018c0b3006402370031120700f080880053
:102320002f120700e0808800f1808000800878008c
:1023300018c0b3005c02370080007800314078009c
:1023400081848800c311070084848000880f5200b4
:1023500004003a008984880002003700e84926001a
:1023600029ec2500808480009210e300f2ff3a00ff
:10237000a0c0b300b711070018c0b3004a0237006d
:10238000000004000000000018c0b300460237003f
:102390000980fb008000eb0061005000e0805800e5
:1023a00018c0b300f60f5000e08f58003c023e000a
:1023b0000006010016003700180037001a00370029
:1023c0001c0037001e0037002100370028003700ae
:1023d0002b0037002d003700350037003a0037005a
:1023e0003d003700ac0037004d0137005200370088
:1023f000da0037005c0137006801370074013700ec
:102400007701370087013700980137003700370020
:102410001710070018c0b30023023700d30f0700be
:1024200018c0b30020023700cb0f070018c0b3005c
:102430001d023700c30f070018c0b3001a0237008f
:10244000921007008311070018c0b300160237006e
:10245000b41107007df0b7005b10070018c2b3008d
:102460009450e2001002320018c0b3000e02370090
:10247000ed0f07007711070018c0b3000a023700fc
:10248000f30f070018c0b30007023700a5110700bb
:102490007cf0b700a31107007df0b7008040780002
:1024a0007cd0bf009b0f070018c0b300fe013700af
:1024b0009c1107007cf0b700cc0f070065110700e6
:1024c00018c0b300f8013700d00f070061110700f2
:1024d00018c0b300f4013700921107007df0b70077
:1024e000d50f070018c0b300ef0137008d110700aa
:1024f00048e12600004c78008a1107008800e800b7
:1025000080487800871107008880e80080487800bc
:102510000801780031c0b300a0c0b3009a0f0700d3
:102520000801780031c0b30000c1b300960f070066
:1025300018c0b300dc0137007a1107007df0b70046
:102540007811070041e126008048780075110700e6
:1025500051e12600804878007211070061e12600f1
:10256000804878007dd0bf00ea4f500011003a004b
:10257000248ea90000000000a0c2b30051ba0700d9
:1025800040e12600104078004eba070050e12600d6
:10259000104078004bba070060e126001040780038
:1025a00048ba0700248ea8000000000018c0b3003d
:1025b000bd013700f04f500011003a00248ea900f1
:1025c0000000000000c3b3003eba070040e126004f
:1025d000104078003bba070050e126001040780018
:1025e00038ba070060e126001040780035ba0700cd
:1025f000248ea8000000000018c0b300aa01370014
:10260000248ea90000000000b0c2b3002dba07005c
:102610007dd0bf00eb4f500004003a0040e126009f
:102620001040780027ba07000200370000c0eb0016
:1026300024ba070050e126001040780021ba0700b4
:1026400060e12600104078001eba0700248ea80022
:102650000000000018c0b3007dd0bf00eb4f500059
:10266000910132001000200031ba0700248ea90029
:10267000000000007dd0bf000054a00011ba070088
:1026800040e12600104078000eba0700248ea80012
:102690000000000084013700221107007df0b70020
:1026a000201107007cf0b700d1072100914078008d
:1026b00001007800f003b2000b00320039e126007f
:1026c0000004eb00fa03200016110700806c78006c
:1026d0000804e800d107210091407800010065005e
:1026e000880f5000f8ff3e0042e126007cd0bf007a
:1026f000970f07000803200049062000020037005a
:10270000090078000aba0700400f070000006400c3
:10271000fbff32003d0f07007cf0b7007000600047
:1027200018c1b30001003a0018c0b3009450e20091
:1027300001003a000854a0000000e000030032004d
:1027400001c3b30070c0b300f20e07007dd0ab0030
:1027500053013200050f070051013700c3e8a900fb
:10276000f01007007df0b7001d110700e080880021
:102770007d50e2000900320039e126000004eb0040
:10278000e8100700806c78000804e8007dd0bf00e6
:102790000080fb00880f5000f9ff3e001b0f070070
:1027a0000068a3000400320020ceb300220f07000f
:1027b000a06c280000ba0700e70e070020082000e0
:1027c000dbb9070001c7b30070c0b300d10e07002a
:1027d000d1072100914078000174a00042e1260059
:1027e00000cab3005a0f0700080320004906200062
:1027f0000200370009007800cdb90700030f070079
:1028000000006400fbff32000060fe00ff0e0700c6
:102810007df0b70018c1b3000048a30001003a00e2
:1028200018c0b3009450e20001003a000854a00020
:1028300001c3b30070c0b300b60e0700cb0e070093
:102840007d90ab0032003a0040e126001004e00029
:102850002f003d000060fe00090420004a06200011
:10286000040037000000e900e08088000a007800da
:10287000afb90700e50e07000080640003003a00ce
:10288000e08080000000e000f6ff3a000060fe00fb
:102890001c10e20015003200dc0e07006e00600024
:1028a00012003a0000c6b300d00e07007cf0b7005b
:1028b00041e12600570f07007cd0bf0065100700dc
:1028c0003ae126008004eb00030037005a4078000c
:1028d000601007008904e8007cd0bf000080fb0086
:1028e000808f5400f9ff39000b0037000864a00006
:1028f0000040eb0057100700c40e07006e00600098
:102900000500320020ceb300cb0e070002003700d6
:102910000040eb004f100700c3e8a800e0003700bc
:10292000801007007df0b70041e12600390f070055
:1029300018c0b3007d50e200db00320039e1260010
:102940000004eb0059407800421007000804e8003a
:102950007dd0bf000080fb00880f5000f9ff3e00d3
:1029600018c0b300d000370031c0b30010c0b300ae
:10297000680e070031c0b300c0c1b300650e070088
:1029800031c0b30020c0b300620e07000288a90066
:102990002288a80018c0b300c300370011c0b300dc
:1029a000014078005b0e070011c0b300c0c1b30046
:1029b000580e070011c0b30020c0b300550e070029
:1029c0000288a9002288a90018c0b300b600370009
:1029d00095d0bf001f10070018c0b300b200370029
:1029e000501007007df0b7000004eb00e9c9260095
:1029f0007dd0bf0042c1b3000440bc00020078009b
:102a000008004000008044001040780011100700ca
:102a10000804e800f40f5400f5ff3a0018c0b300b2
:102a2000a10037003f1007007df0b7000004eb0065
:102a3000eac92600d9072100994478008984fb005f
:102a400038100700f44ab9008400780088804000fc
:102a500081004500804878000804e800f40f540025
:102a6000f4ff3a0018c0b3008f0037002d100700a4
:102a70007df0b7008080fb00ed8f500015003e0018
:102a8000f408b90052cc260000014100e4c9260038
:102a900007003700d0687800820f5000fdff3a0031
:102aa00074014100ee8f51000a003200830078006b
:102ab0008101e800f418b9000000e90004004000ba
:102ac000f40bb900860078008100e90084804000a2
:102ad000f0ff37000e0078008040eb0001587800ce
:102ae000a2dc2600820f5000fcff3a0095d0bf0008
:102af00018c0b3006c0032000040e90095f0b70048
:102b0000690037000980fb001110070018c0b300ee
:102b100065003700e2cf54000400320018c0b30053
:102b2000e3cf54005e003a002d00370000fc2f0078
:102b30008a26b6000308a9002308a9000488a90072
:102b40002488a90021eba90031eba900241007007b
:102b5000e080880024cea80023c0b30032c0b300b8
:102b60008040eb00014078000a020700a00020002e
:102b7000efb8070024cea900e08080000028ab0059
:102b800002003a004e01e300fcff3900200a8000f9
:102b9000b70f0700600a8000b50f0700e2808000d1
:102ba00001022000234080000380600003003a00ff
:102bb000f40a8000820f5200faff3900a00a800058
:102bc000ab0f0700e00a8000a90f0700700a800021
:102bd000a70f07000c05070018c0b300320037002c
:102be00040c0b300860f0700148ea90000712200b8
:102bf000cfb8070004c8a9000c0078005228b7001d
:102c000024c8a9008041eb0012c0b30021c0b3006a
:102c1000800c20003a020700907080004a00de001d
:102c20006140600086f0b7004ac1a80042c1a80018
:102c300018c0b3001c003700e1cf540017003a0061
:102c4000b80f07007df0b700e50f0700e0808800af
:102c5000451007007d50e2000100320040a7a900a6
:102c6000ffff370018c0b3000d00370018c0b300d5
:102c70000b00370018c0b3000900370018c0b300bc
:102c80000700370018c0b3000500370018c0b300b4
:102c90000300370018c0b3000100370018c0b300ac
:102ca0000804e000edf4320008407800960f0700b9
:102cb000eaf43700200ea9002e0ea9000004e0005f
:102cc00002003200240ea80001003700240ea900e3
:102cd0000100780096b80700240ea900200ea80075
:102ce0002e0ea80000000000000006003be3a90033
:102cf0003d03a9003d23a9003b83a9000000060075
:102d0000889fbe008a1f78008044780001447800c4
:102d1000020578000041eb0051c0b30040c0b30091
:102d2000b20b07003b83a8004a44dd00f03f2000bf
:102d30003e03b60000007400f0198800e3846400cc
:102d4000c84cdd00f0cf2f003e03b60000807400b9
:102d5000f019880021e1a90020c1a900f0fc2f0092
:102d60002001b6000050a00000098800ea08880091
:102d700001352c000040eb00ceff070021e3a80046
:102d8000400120006ab807002023a8003be3a80008
:102d9000803e200066b807003b23a800c05d2000ed
:102da00063b807001821ef000388a9002388a90051
:102db0003b23a9003d03a80021e1a8000100210058
:102dc0001240800002806000fdff32000388a900ed
:102dd00001a8a9002023a9003d03a90001002200a9
:102de0000240800002806000fdff320001a8a900bf
:102df0002003ab00feff320008188000bbff070075
:102e000021e3a900f0ff2000000064004f057800d6
:102e10004f04be0000000600881f78000004780000
:102e200001352c000040eb00a2ff070001352c000b
:102e30000040eb009fff07000041eb0051c0b300d2
:102e400001407800690b070021e1a9001821ef007b
:102e50000388a900e8088800f0fc2f002001b600d4
:102e60000050a0000009880021e1a800200ea90060
:102e7000240ea800010021001240800002806000a2
:102e8000fdff32000388a900200ea800240ea9002f
:102e900050c0b300900b07004f04780000000600fc
:102ea000881f780000447800610161004c11dd004a
:102eb000f0ff2e003a03b60000007100d019880020
:102ec000f03f20003e23b600e3806000c808dd002c
:102ed000f0cf2f003e03b60000807000f01988008c
:102ee0003d03a9003b03a900fe4f5400020032003d
:102ef0003d23a900010037003d23a8003be3a800c3
:102f0000803e20000ab807003b23a800c05d2000d7
:102f100007b807003b23a9003ba3a9003d03a80075
:102f2000084078006c0b0700000478006fff070072
:102f3000080078004f04780000000600889fbe005b
:102f40000044780081447800e44f540001003a00c6
:102f5000d00907000884fb0040eb2600080440006d
:102f6000184078000074a100f007b20001f82f00ab
:102f70003235800082806000810070003135880029
:102f800013e1a90011e1a90021e1a9001061a80045
:102f90001021a800e3846400c44cdd00f0fc2f0085
:102fa0001001b60000807400800888000108a900a4
:102fb000000320002021b700801a2600e0088800c6
:102fc0000821ef000a21ef000621ef001821ef0091
:102fd00080ff2f004e08b6000000a000704288005d
:102fe0000388a90011e1a80021e1a8004f04be0058
:102ff000000006000080fb0043eb2600008041003b
:10300000104078000074a100f007b20003f82f0010
:1030100074358000848161008301700073358800fd
:1030200085ff2f0000142000108862008314200008
:10303000938962004081a9004881a90000c0210055
:103040004021b7004821b7000241e9006301610057
:103050004511dd00f3f92f00000a800000826100b5
:1030600004027100040a8800440a8000848161001f
:1030700083017100430a88004301a8004b01a800a6
:1030800042c1a9004ac1a90002fe2f00201420005d
:1030900010086100a31420009309610042e1a80018
:1030a0004ae1a80093708000025480004311de00c2
:1030b00061416100ca19de00efc1610044002000d7
:1030c0000411dd0002c171000240780086f0b700f3
:1030d000e7806000030a80000381620002817000c3
:1030e000020a8800440a80000480620000807000a8
:1030f000400a880042c1a8004ac1a800000006009a
:10310000881f78000044780011e1a9001061a9002f
:103110001021a800e44f540001003a005d090700a7
:103120000884fb0040eb26000804400018407800ab
:103130000074a100f007b20001f82f0032358000c2
:103140008280600081007000313588000621ef0028
:1031500011e1a8004f04780000000600889fbe001f
:103160008a9fbe008c9fbe00004478008144780096
:10317000024678008346780004457800854578004b
:103180000028a90004a8a900e44f540001003a0057
:10319000400907000884fb0040eb260008044000bb
:1031a000184078000074a100f007b20001f82f0069
:1031b0007235800082806000810070007135880067
:1031c000e4cf540001003a00320907008984fb0073
:1031d00040eb260089044000194078000074a100eb
:1031e000f007b20001f82f00833580008380600073
:1031f000810070008135880080ff2f004021b600db
:103200005021b6004821b6005821b6004081a900df
:103210005081a9004881a9005881a90011e1a900a5
:103220001061a9001021a900f1fc2f00021120005b
:10323000128960000621ef00f13f2e00030a800092
:103240000381600002a0a000020a8800830a8000b7
:103250000381600002a0a000820a8800430a800067
:103260000381600002a0a000420a8800c20a800018
:103270008280600001a0a000c10a88000a45e90020
:10328000630565004555dd00f1f92f00030a800054
:103290000381600002017500020a88008b45e90085
:1032a000e3856500c55ddd00820a800082806000e4
:1032b00081807500810a88004301a8005301a8009d
:1032c0004b01a8005b01a80001fe2f002314200081
:1032d000938960002215200012896000a314200049
:1032e00093896000a21520001289600042e1a900c4
:1032f00052e1a9004ae1a9005ae1a90092708000b8
:1033000001548000c308de00e1c060004a11de0005
:103310006f416100430020008308dd00814071009f
:103320000141780063082100824978006706660041
:10333000030a80008300600081007600010a880093
:10334000e7866600820a8000820060008180760045
:10335000810a8800430a80008300600081007600b3
:10336000410a88005801b60000807600c00a880033
:1033700042c1a8004ac1a80052c1a8005ac1a80071
:1033800011e1a8004f06be004f05be004f04be006d
:1033900000000600881f78000080fb0045eb260037
:1033a00000804200104378000674a100f40720005a
:1033b0000603620000f82f00783580008803600063
:1033c00087037300773588008180fb00818242008b
:1033d000954078000174a10001026200b006b600b9
:1033e000000072008035880084ff2f000014200048
:1033f0001008620001152000910862008814200066
:10340000180c620080152000100862004081a9009d
:103410005081a9004881a9005881a90000c021005d
:103420004021b7005021b7004821b7005821b7000c
:10343000f1f92f0008142000188c600000152000fe
:10344000108860004301a8005301a8004b01a800a8
:103450005b01a80042e1a90001fe2f002814200012
:10346000188c60004ae1a900a014200010886000b8
:1034700052e1a90028152000188c60005ae1a9002b
:10348000a01520001088600042c1a9004ac1a9000f
:1034900052c1a9005ac1a9000028a90004a8a90086
:1034a00067016100080a80008800620081007100e5
:1034b000010a8800400a80008000620081007100db
:1034c000410a8800e7816100880a80008800620064
:1034d00081807100810a8800c10a800001006200b9
:1034e00000807100c00a880042c1a8004ac1a8003b
:1034f00052c1a8005ac1a8004f047800000006007d
:10350000889fbe008a9fbe000005780001447800b5
:1035100082457800834478000268a9002268a900e7
:1035200001eba90011eba90080ff2f004021b6009c
:103530004821b6004081a9004881a90010c0b3000d
:1035400078f0b700e44f540001003a00510807003a
:103550000884fb0040eb2600080440001840780077
:103560000074a100f007b20001f82f00723580004e
:1035700082806000810070007135880000c02100e9
:103580004021b7004821b700f0f92f004021b600d4
:103590004821b6004301a8004b01a80042c1a90080
:1035a0004ac1a90042e1a8004ae1a800678064007e
:1035b000200032000984fb004444de00e44f540044
:1035c00001003a00330807006f04640040eb260056
:1035d00008044000184078000074a1004800dd0095
:1035e000f10f280082358000828060008100700029
:1035f0008135880000c021005821b700f0f92f0064
:103600005821b6005ae1a90000fe2f005a21b60049
:103610005881a900120a8000820060003101b300c5
:10362000110a88004a01b6003001b300500a880030
:103630000300370000fe2f004221b6004a21b600e9
:10364000f0fc2f00002bb600102bb600c0ff2f009f
:1036500002588000820060000100a000015888002c
:10366000100bb6000000a0008058880001aba90034
:1036700011aba9004014200060588800c01420003d
:10368000e0588800100020001058880090588800ea
:103690000a05e9007a588800fa58880000002000de
:1036a00030588800200a210020588800000020009f
:1036b000b0588800a0422200a05888004081a9008c
:1036c0004881a900e785650080ff2f00020a80007d
:1036d0008200600081807500010a8800420a800033
:1036e0008200600081807500410a88000088a9007e
:1036f0002088a80001eba80011eba800e784640073
:103700005801b60000807400c00a88004f05be0052
:103710004f04be0000000600889fbe008a1f78008c
:103720000005780001eba90011eba90021eba9002d
:1037300031eba90083ff2f000014200010886100e6
:1037400084142000148a610005152000958a610008
:1037500086152000168b61004081a9004881a900d0
:103760005081a9005881a90020c0b30078f0b700ab
:103770000281fb006f02610046eb26000402430059
:10378000944378000774a100f50720008783620046
:1037900004f82f0079358000090462000884730062
:1037a000783588004411de0002034300164178009a
:1037b0000274a100828262008035800000026200f3
:1037c000048272008435880002142000128961008e
:1037d00084142000148a610005152000958a610078
:1037e00086152000168b61004081a9004881a90040
:1037f0005081a9005881a90000c021004021b700d4
:103800004821b7005021b7005821b700f2f92f0026
:1038100004142000140a610085142000950a610038
:1038200006152000160b610089152000990c610017
:103830004301a8004b01a8005301a8005b01a800a8
:1038400042c1a9004ac1a90052c1a9005ac1a90098
:1038500002fe2f002014200010086100a414200094
:10386000140a610025152000950a6100a6152000a4
:10387000160b610042e1a8004ae1a80052e1a8004d
:103880005ae1a8007101510009b02000990c6100b3
:1038900000b120001008610004b22000140a610089
:1038a00005b32000950a6100c2ff2f000658800072
:1038b000860161000300a000035888008958800039
:1038c000890161000300a00083588800005980002e
:1038d000800161000300a000035988008459800022
:1038e000040161000200a0008259880001aba90018
:1038f00011aba90021aba90031aba90042142000f3
:1039000062588800c2142000e25888004215200046
:1039100062598800c2152000e25988001200200078
:1039200012588800925888005202200012598800cc
:10393000925988000a00e90070588800f058880001
:1039400070598800f0598800000020003058880025
:103950000000200030598800200a210020588800eb
:10396000207b23002059880000002000b0588800e8
:1039700000002000b0598800a0422200a058880012
:10398000a0b32400a05988000088a9002088a800be
:1039900001eba80021eba80011eba80031eba80077
:1039a0006fc0600087f0b70088f0b7008180fb002f
:1039b000c408de0095082100814a780001407800a3
:1039c0008af0b7004f0578004f04be0000000600e3
:1039d0008003780001eba90011eba90021eba900fd
:1039e00031eba90083ff2f00001420001088610034
:1039f00084142000148a610005152000958a610056
:103a000086152000168b61004081a9004881a9001d
:103a10005081a9005881a90035c0b300800721005a
:103a20000548780004f82f00763580008602620091
:103a3000a502b30075358800f60f280070358000a8
:103a40000003630005b0220086827200753588008d
:103a50008535800005026200c402b3008435880009
:103a600006142000168b610080142000108861006d
:103a700004152000148a610085152000958a6100d4
:103a80004081a9004881a9005081a9005881a9005e
:103a900000c021004021b7004821b7005021b700e5
:103aa0005821b700f3f92f0004142000148a610094
:103ab00085142000958a610006152000168b610090
:103ac00080152000108861004301a9004b01a90066
:103ad0005301a9005b01a90042c1a9004ac1a90084
:103ae00052c1a9005ac1a90042e1a8004ae1a800b8
:103af00052e1a8000204e00008003a0003fe2f0093
:103b000024142000148a6100a5142000958a610005
:103b100026152000168b61001e003700e7016100aa
:103b20001c0032008281fb00c419de0044eb260039
:103b300083014200934178000374a100c819dd009d
:103b4000f40f2800803580000002620004827100ba
:103b5000843588005ae1a90003fe2f00a415200037
:103b6000148a6100150a8000058261003401b300e7
:103b7000140a8800560a8000068261003401b300ee
:103b8000540a8800900a8000808161003301b300ec
:103b9000930a8800f3fc2f0004b02000148a61000f
:103ba00005b12000958a610006b22000168b6100e5
:103bb000c3ff2f0000588000008261000400a000b5
:103bc0000458880085588000058261000400a00028
:103bd0008458880006598000868161000300a00097
:103be0000359880001aba90011aba90021aba900c2
:103bf0004314200063588800c3142000e358880051
:103c000043152000635988001300200013588800d2
:103c10005300200093588800530220001359880055
:103c20000700e90070588800f05888007059880033
:103c3000000020003058880000002000b0588800a4
:103c4000200a210020588800a0422200a0588800a5
:103c50000000200030598800207b23002059880074
:103c60000088a9002088a80001eba80021eba8008b
:103c700011eba800e781600080ff2f00050a80009b
:103c80000502600004827100040a8800c409de0095
:103c9000e7816100460a800006026000048271002c
:103ca000440a8800c808de00e7806000840a8000bb
:103cb0008401600083817000830a880067016100cd
:103cc0005801b60000007100c00a8800000006001c
:103cd00001eba90011eba90021eba90031eba90030
:103ce00083ff2f0004142000148a61008514200033
:103cf000958a610006152000168b6100871520004b
:103d0000978b61004081a9004881a9005081a900da
:103d10005881a90036c0b30085072100864a780083
:103d200005f82f007735800007826200a402b300f7
:103d300074358800f40f2800763580008603620011
:103d400006b02200070373007635880087358000af
:103d500087826200c502b300853588008535800002
:103d60000502620005d02200848272008535880039
:103d700011e1a9001061a9001021a90063016100ef
:103d80004411dd00f4fc2f008608800086026200ea
:103d9000850271008508880015002000350888001c
:103da00007142000978b61008214200012896100a3
:103db00006152000168b610087152000978b610087
:103dc0004081a9004881a9005081a9005881a9001b
:103dd000f23f2e00070a80000703610006a0a00042
:103de000060a8800470a80000703610006a0a000b9
:103df000460a8800870a80000703610006a0a00029
:103e0000860a8800c60a80000601610002a0a000a0
:103e1000c20a8800f2f92f0007142000970b6100f6
:103e200086142000160b610007152000970b610017
:103e300086152000160b61004301a9004b01a90063
:103e40005301a9005b01a90042c1a9004ac1a90010
:103e500052c1a9005ac1a90002fe2f002714200058
:103e6000970b6100a6142000160b61002715200097
:103e7000970b6100a6152000160b610042e1a80017
:103e80004ae1a80052e1a8005ae1a80007b02000ca
:103e9000970b620002b120001209620006b22000f6
:103ea000160b620007b32000970b6200c2ff2f00c1
:103eb00006588000060261000400a0000458880033
:103ec00087588000070261000400a0008458880021
:103ed00006598000060261000400a0000459880011
:103ee00087598000070161000200a0008259880004
:103ef00001aba90011aba90021aba90031aba9000e
:103f00004214200062588800c2142000e258880041
:103f10004215200062598800c2152000e25988002d
:103f20001558880052002000925888005202200044
:103f3000125988000201e800925988000000e90047
:103f400070588800f058880070598800f05988002f
:103f5000000020003058880000002000b058880081
:103f6000200a210020588800a0422200a058880082
:103f7000000020003059880000002000b05988005f
:103f8000207b230020598800a0b32400a05988007a
:103f90000088a9002088a80001eba80021eba80058
:103fa00011eba80031eba80067806000040a8000d4
:103fb0000481610002017000020a88004408de00ea
:103fc00067006000450a8000058161000201700001
:103fd000420a88004808de0067006000860a800008
:103fe0000681610002017000820a8800cc08de00b0
:103ff000e7806000c70a80008781610083817000cc
:10400000c30a88000000060042c1a9004ac1a900f5
:1040100052c1a9005ac1a90080ff2f004021b6005b
:104020004821b6005021b6005821b6004081a900b1
:104030004881a9005081a9005881a900000006000c
:10404000881f78000044780000f82f00ae26b600e4
:10405000f00f2800ae26b60011e1a9001061a900fa
:104060001021a800e3806000c408dd00f0fc2f00f0
:104070001001b6000080700080088800e44f5400f2
:1040800001003a00830507000884fb0040eb26008e
:1040900008044000184078000074a100f007b20046
:1040a00001f82f00323580008280600081007000ae
:1040b0003135880084ff2f0003142000930962002b
:1040c0008014200010086200f13f2e00030a8000d7
:1040d0000381600002a0a000020a8800400a80005c
:1040e0008080600001a0a000410a8800f1f92f0043
:1040f000030a8000038160000250a000020a8800c9
:10410000400a8000808060000150a000410a8800c1
:104110004081a9004881a9004301a8004b01a800e3
:1041200042c1a9004ac1a90042e1a8004ae1a80091
:1041300001fe2f002214200012896000a314200029
:104140009389600021e1a900000320002021b7002d
:10415000811a2600e10888001821ef0072428000d1
:10416000820062000100a000714288000388a9005b
:104170000621ef0011e1a800430a800083006200dd
:104180005100b300410a8800010a8000010062006a
:104190005000b300000a880021e1a8004ac1a8002d
:0c41a00042c1a8004f0478000000060097
:020000040000fa
:020000040001f9
:1041ac009c10000002000000800000009e10000027
:1041bc000200000082000000720200008c1000005f
:1041cc000400000080000000c25e0000dc0500005e
:1041dc00800000009010000004000000820000002d
:1041ec00c25ec2005e000000a010000002000000d1
:1041fc0080000000bc6e0000060000008200000081
:10420c0001aaaa00ffaaaa009e6c000046010000a9
:10421c0080000000941000000400000080000000ea
:10422c0076100000080000008000000098100000cc
:10423c0004000000820000000201010000000000e8
:10424c007e100000080000008200000003016400e2
:10425c0000050000102700004a10000018000000a4
:10426c0080000000a2100000204e00008000000022
:10427c009e64000000040000820000000001fc00ad
:10428c0000f90000f600f30000f00000ed00ea0079
:10429c0000e60000e300e00000dd0000da00d700db
:1042ac0000d40000d100ce0000cb0000c800c40038
:1042bc0000c10000be00bb0000b80000b500b20099
:1042cc0000af0000ac00a90000a60000a400a100f3
:1042dc00009e00009b0098000095000092008f004b
:1042ec00008d00008a0087000084000082007f009f
:1042fc00007c0000790077000074000072006f00f1
:10430c00006c00006a00670000650000620060003d
:10431c00005d00005b005900005600005400520084
:10432c00004f00004d004b000049000046004400c7
:10433c000042000040003e00003c00003a00380003
:10434c000036000034003200003000002f002d0039
:10435c00002b000029002800002600002400230068
:10436c000021000020001e00001d00001b001a0090
:10437c0000190000170016000015000013001200b1
:10438c000011000010000f00000e00000d000c00ca
:10439c00000b00000a0009000008000008000700dc
:1043ac0000060000060005000004000004000300e5
:1043bc0000030000020002000002000001000100e6
:1043cc0000010000000000000000000000000000e0
:1043dc0000000000000000000000000000000000d1
:1043ec0000010000010001000002000002000200b8
:1043fc000003000003000400000400000500060098
:10440c0000060000070008000008000009000a0070
:10441c00000b00000c000d00000e00000f0010003f
:10442c000011000012001300001500001600170008
:10443c00001900001a001b00001d00001e002000c7
:10444c000021000023002400002600002800290081
:10445c00002b00002d002f00003000003200340033
:10446c000036000038003a00003c00003e004000de
:10447c000042000044004600004900004b004d0083
:10448c00004f0000520054000056000059005b0021
:10449c00005d0000600062000065000067006a00bb
:1044ac00006c00006f00720000740000770079004f
:1044bc00007c00007f0082000084000087008a00de
:1044cc00008d00008f0092000095000098009b006a
:1044dc00009e0000a100a40000a60000a900ac00f2
:1044ec0000af0000b200b50000b80000bb00be0079
:1044fc0000c10000c400c80000cb0000ce00d100f9
:10450c0000d40000d700da0000dd0000e000e3007a
:10451c0000e60000ea00ed0000f00000f300f600f9
:10452c0000f90000fc000000010301000601090075
:10453c00010c01000f0112000115010019011c00f2
:10454c00011f010022012500012801002b012e0072
:10455c000131010034013700013b01003e014100f3
:10456c000144010047014a00014d01005001530074
:10457c000156010059015b00015e010061016400fc
:10458c00016701006a016d00017001007201750084
:10459c00017801007b017d00018001008301860010
:1045ac00018801008b018d000190010093019500a1
:1045bc00019801009a019d00019f0100a201a40035
:1045cc0001a60100a901ab0001ad0100b001b200d0
:1045dc0001b40100b601b90001bb0100bd01bf006f
:1045ec0001c10100c301c50001c70100c901cb0015
:1045fc0001cd0100cf01d00001d20100d401d600c1
:10460c0001d70100d901db0001dc0100de01df0074
:10461c0001e10100e201e40001e50100e601e8002e
:10462c0001e90100ea01ec0001ed0100ee01ef00ef
:10463c0001f00100f101f20001f30100f401f500b9
