:020000040000fa
:080000000002040000000000f2
:020000040000fa
:04000800203500009f
:020000040000fa
:04000c00203500009b
:020000040000fa
:040010002035000097
:020000040000fa
:040014002035000093
:020000040000fa
:04001800203500008f
:020000040000fa
:04001c00203500008b
:020000040000fa
:040020002035000087
:020000040000fa
:040024002035000083
:020000040000fa
:04002800203500007f
:020000040000fa
:04002c00203500007b
:020000040000fa
:040030002035000077
:020000040000fa
:040034002035000073
:020000040000fa
:04003800ba03000007
:020000040000fa
:04003c00203500006b
:020000040000fa
:040040002035000067
:020000040000fa
:040044002035000063
:020000040000fa
:04004800203500005f
:020000040000fa
:04004c00203500005b
:020000040000fa
:040050002035000057
:020000040000fa
:04005400663300000f
:020000040000fa
:04005800203500004f
:020000040000fa
:04005c00fa020000a4
:020000040000fa
:04006000dc030000bd
:020000040000fa
:040064002035000043
:020000040000fa
:04006800203500003f
:020000040000fa
:04006c00203500003b
:020000040000fa
:040070002035000037
:020000040000fa
:040074000a0400007a
:020000040000fa
:04007800761c0000f2
:020000040000fa
:04007c00203500002b
:020000040000fa
:040080002035000027
:020000040000fa
:040084002035000023
:020000040000fa
:04008800ee03000083
:020000040000fa
:04008c00203500001b
:020000040000fa
:040090002035000017
:020000040000fa
:040094002035000013
:020000040000fa
:04009800203500000f
:020000040000fa
:04009c006a040000f2
:020000040000fa
:0400a0005c330000cd
:020000040000fa
:0400a4002035000003
:020000040000fa
:0400a80020350000ff
:020000040000fa
:0400ac0020350000fb
:020000040000fa
:0400b00020350000f7
:020000040000fa
:0400b40020350000f3
:020000040000fa
:0400b800fc03000045
:020000040000fa
:0400bc0020350000eb
:020000040000fa
:0400c000b007000085
:020000040000fa
:0400c40020350000e3
:020000040000fa
:0400c80020350000df
:020000040000fa
:0400cc0020350000db
:020000040000fa
:0400d00020350000d7
:020000040000fa
:0400d40020350000d3
:020000040000fa
:0400d80020350000cf
:020000040000fa
:0400dc0020350000cb
:020000040000fa
:0400e00020350000c7
:020000040000fa
:0400e40020350000c3
:020000040000fa
:0400e80020350000bf
:020000040000fa
:0400ec0020350000bb
:020000040000fa
:0400f00020350000b7
:020000040000fa
:0400f40020350000b3
:020000040000fa
:0400f80020350000af
:020000040000fa
:0400fc0020350000ab
:020000040000fa
:0401000020350000a6
:020000040000fa
:0401040020350000a2
:020000040000fa
:04010800203500009e
:020000040000fa
:04010c00203500009a
:020000040000fa
:040110002035000096
:020000040000fa
:040114002035000092
:020000040000fa
:04011800203500008e
:020000040000fa
:04011c00203500008a
:020000040000fa
:040120002035000086
:020000040000fa
:040124002035000082
:020000040000fa
:04012800203500007e
:020000040000fa
:04012c00203500007a
:020000040000fa
:040130002035000076
:020000040000fa
:040134002035000072
:020000040000fa
:04013800203500006e
:020000040000fa
:04013c00203500006a
:020000040000fa
:040140002035000066
:020000040000fa
:040144002035000062
:020000040000fa
:04014800203500005e
:020000040000fa
:04014c00203500005a
:020000040000fa
:040150002035000056
:020000040000fa
:040154002035000052
:020000040000fa
:04015800203500004e
:020000040000fa
:04015c00203500004a
:020000040000fa
:040160002035000046
:020000040000fa
:040164002035000042
:020000040000fa
:04016800203500003e
:020000040000fa
:04016c00203500003a
:020000040000fa
:040170002035000036
:020000040000fa
:040174002035000032
:020000040000fa
:04017800203500002e
:020000040000fa
:04017c00203500002a
:020000040000fa
:040180002035000026
:020000040000fa
:040184002035000022
:020000040000fa
:04018800203500001e
:020000040000fa
:04018c00203500001a
:020000040000fa
:040190002035000016
:020000040000fa
:040194002035000012
:020000040000fa
:04019800203500000e
:020000040000fa
:04019c00203500000a
:020000040000fa
:0401a0002035000006
:020000040000fa
:0401a4002035000002
:020000040000fa
:0401a80020350000fe
:020000040000fa
:0401ac0020350000fa
:020000040000fa
:0401b00020350000f6
:020000040000fa
:0401b40020350000f2
:020000040000fa
:0401b80020350000ee
:020000040000fa
:0401bc0020350000ea
:020000040000fa
:0401c00020350000e6
:020000040000fa
:0401c40020350000e2
:020000040000fa
:0401c80020350000de
:020000040000fa
:0401cc0020350000da
:020000040000fa
:0401d00020350000d6
:020000040000fa
:0401d40020350000d2
:020000040000fa
:0401d80020350000ce
:020000040000fa
:0401dc0020350000ca
:020000040000fa
:0401e00020350000c6
:020000040000fa
:0401e40020350000c2
:020000040000fa
:0401e80020350000be
:020000040000fa
:0401ec0020350000ba
:020000040000fa
:0401f00020350000b6
:020000040000fa
:0401f40020350000b2
:020000040000fa
:0401f80020350000ae
:020000040000fa
:0401fc0020350000aa
:020000040000fa
:0402000020350000a5
:020000040000fa
:0402040020350000a1
:020000040000fa
:04020800203500009d
:020000040000fa
:04020c002035000099
:020000040000fa
:040210002035000095
:020000040000fa
:040214002035000091
:020000040000fa
:04021800203500008d
:020000040000fa
:04021c002035000089
:020000040000fa
:040220002035000085
:020000040000fa
:040224002035000081
:020000040000fa
:04022800203500007d
:020000040000fa
:04022c002035000079
:020000040000fa
:040230002035000075
:020000040000fa
:040234002035000071
:020000040000fa
:04023800203500006d
:020000040000fa
:04023c002035000069
:020000040000fa
:040240002035000065
:020000040000fa
:040244002035000061
:020000040000fa
:04024800203500005d
:020000040000fa
:04024c002035000059
:020000040000fa
:040250002035000055
:020000040000fa
:040254002035000051
:020000040000fa
:04025800203500004d
:020000040000fa
:04025c002035000049
:020000040000fa
:040260002035000045
:020000040000fa
:040264002035000041
:020000040000fa
:04026800203500003d
:020000040000fa
:04026c002035000039
:020000040000fa
:040270002035000035
:020000040000fa
:040274002035000031
:020000040000fa
:04027800203500002d
:020000040000fa
:04027c002035000029
:020000040000fa
:040280002035000025
:020000040000fa
:100400004fec26000eff27000e01880000000000c0
:10041000000020000000e000020032000001200087
:100420002002880014000700871907000000e00080
:1004300003003a0000002b000100200002003700fa
:100440000000200001002000810f70000100320038
:100450000f000700000020000000e0000200320052
:100460000000020000000000061d02000000000065
:100470000040da000000fe00000520000000e0005f
:1004800002003200002020009001880000000600d9
:10049000a1028800800478000000eb001f003700f4
:1004a000e284440054a0b4009905ba00e2844400f8
:1004b00054a0b4009906ba00e284440054a0b400e9
:1004c0000006eb00476fde00fd07b200ae018800ba
:1004d000636ce10003003a000ad801000000eb0061
:1004e0000e003700606ce10008003a00004deb00a0
:1004f0000a05e800020039003420ec000af0a000f0
:100500008b05e900f9ff3e00040037006168e10057
:10051000010032000086eb000b00070019c7ba008b
:100520001905ba000e04e00003003a000a00e000da
:10053000dbff3a0000000600fe07b200ae028800b2
:100540008a047800f5ff37000cd0a300e20f4d00bd
:100550001c00390089027800354dba000a05e80010
:10056000020039003420ec000af0a0008b05e900fd
:100570000f003200254dba000a05e80002003900dc
:100580003420ec000af0a0008b05e90008003200de
:100590000c00e0000600320015cdba000a05e800a4
:1005a000020039003420ec000af0a0008b05e900bd
:1005b0008984e80054a0b4000b00e000e2ff3a0098
:1005c000000006009902ba00055d78008b05e9007d
:1005d000f7ff3200c82ade00055d78008b05e900d0
:1005e000f3ff32000c00e000f1ff320019ddba0029
:1005f000eeff3700809fbe00821f780001a8a9008f
:100600007e50e20058003a0015eea8001450e200b7
:10061000230032003081800001188000011878002a
:10062000308188001150e2001200320040818000c9
:1006300012188000021878004081880011d0bf0095
:10064000e14f50000b0036006081800021188000cf
:10065000011878006081880011d0bf00e24f50007f
:100660000400360070818000321880000218780083
:10067000708188000010ec000080880015eea90051
:100680008210e30038003a0001a8a90021a8a900bf
:1006900010c0b3007ef0b70015eea800320037009e
:1006a00013d0bf000080fb000008a300030032004d
:1006b0000003f8004610f9000e0037000018a300f0
:1006c000030032000203f8004610f9000900370069
:1006d0000028a300030032000403f8004610f900cc
:1006e000040037000038a300020032000603f800bf
:1006f0004610f900e08080008a10e3001800360000
:1007000001818000628480008110de000080400052
:10071000e080880015d0bf0008003a00f18080001a
:10072000ea80400032828000810f510003003600d1
:1007300010c0b30015f0b7000b003700f180800047
:1007400032828000810f510007003e000004e0006b
:100750000500320010c0b30014f0b70002003700eb
:1007600010c0b30014f0b7004f0178004f00be0076
:1007700000400600801f780042c1a90080ff2f00c2
:100780004021b60001eba9000088a9002088a9003b
:100790000650ed00e14f500005003e0080ff2f00a5
:1007a0004821b60011eba90001c8a90021c8a90081
:1007b0004f00780000400600801f78004ac1a90061
:1007c00080ff2f004821b60011eba90001c8a90045
:1007d00021c8a9004f00780000400600801f780063
:1007e00052c1a90080ff2f005021b6000308a900c4
:1007f0004f00780000400600801f78005ac1a90011
:1008000080ff2f005821b6000488a9004f0078000f
:1008100000400600809fbe00829fbe009170800055
:10082000ca08de007cd0bf00808060008100ea0042
:10083000cf08de000cd0bf000080fb00808f50008e
:1008400020003a00194ea900196ea900198ea900be
:1008500019aea9000268a9002268a9009170800061
:10086000025480004311de0061416100ca08de00cd
:10087000efc06000400020000011dd0082c0700069
:1008800081417800a20021000349780042c1a800fc
:100890004ac1a80052c1a8005ac1a80011e1a8008d
:1008a00091708000025480004311de0061416100bc
:1008b000ca08de00efc060000010dd0000c070005c
:1008c0000bf0b7000268a9004f01be004f00be0048
:1008d00000400600809fbe00829fbe00d100210024
:1008e00091407800e780600080ff2f00030a8000bd
:1008f0000301600002817000020a8800e10021000b
:1009000091407800e7806000430a800003016000a6
:1009100002817000420a8800f100210091407800b5
:10092000e7806000830a800003016000028170009c
:10093000820a88000101210091407800e780600070
:100940005801b60000807000c00a880091708000d5
:10095000025480004311de0061416100ca08de00dc
:10096000efc06000400020000011dd0082c0700078
:1009700081417800a20021000349780042c1a8000b
:1009800052c1a8004ac1a8005ac1a80091708000b5
:10099000025480004311de0061416100ca08de009c
:1009a000efc060000010dd0000c070000bf0b70069
:1009b00003a8a90023a8a9004f01be004f00be0054
:1009c00000400600200ea9002e0ea9000004e00041
:1009d00002003200240ea80001003700240ea900f6
:1009e0000100780094580700240ea900200ea800ea
:1009f0002e0ea80000000000000006003be3a90046
:100a00003d03a9003d23a9003b83a9000000060087
:100a10000080fb0023eb260000804100104078009e
:100a20000074a100f007b20003f82f0074358000b5
:100a300084816100830170007335880085ff2f0079
:100a40000014200010886200831420009389620043
:100a50004081a9004881a90000c021004021b700c1
:100a60004821b7000241e900630161004511dd0042
:100a7000f3f92f00000a8000008261000402710077
:100a8000040a8800440a80008481610083017100a7
:100a9000430a88004301a8004b01a80042c1a900f5
:100aa0004ac1a90002fe2f00201420001008610096
:100ab000a31420009309610042e1a8004ae1a800c4
:100ac00093708000025480004311de006141610098
:100ad000ca19de00efc16100440020000411dd00ee
:100ae00002c17100024078000af0b700e7806000a0
:100af000030a80000381620002817000020a8800fc
:100b0000440a80000480620000807000400a88006f
:100b100042c1a8004ac1a80000000600881f780052
:100b20000080fb0025eb2600008042001043780087
:100b30000674a100f40720000603620000f82f00ed
:100b4000783580008803600087037300773588005c
:100b50008180fb0081824200954078000174a100f1
:100b600001026200b006b600000072008035880005
:100b700084ff2f00001420001008620001152000df
:100b80009108620088142000180c62008015200073
:100b9000100862004081a9005081a9004881a90085
:100ba0005881a90000c021004021b7005021b700a2
:100bb0004821b7005821b700f1f92f000814200090
:100bc000188c600000152000108860004301a80008
:100bd0005301a8004b01a8005b01a80042e1a90055
:100be00001fe2f0028142000188c60004ae1a900a3
:100bf000a01420001088600052e1a90028152000f0
:100c0000188c60005ae1a900a0152000108860002f
:100c100042c1a9004ac1a90052c1a9005ac1a900f4
:100c20000028a90004a8a90067016100080a800043
:100c30008800620081007100010a8800400a80007b
:100c40008000620081007100410a8800e781610034
:100c5000880a80008800620081807100810a880013
:100c6000c10a80000100620000807100c00a880093
:100c700042c1a8004ac1a80052c1a8005ac1a80098
:100c80004f047800000006009deaa9006547a8000f
:100c900000000600834aa90082eaa80082aaa900ef
:100ca00000ff2f0012548000820060007100b3002a
:100cb00011548800c1ff2f00c2a9200012896000d2
:100cc0009c8aa800f1f32f00e2548000828060002b
:100cd0000160a000e15488009daaa9009d2aa900f6
:100ce0009dcaa800f1f82f0022aa200012896000f6
:100cf00081ff2f0012558000828060000120a0003b
:100d000011558800a26aa8009e0ab6000000a00043
:100d1000f0548800a1eaa800a12aa8009deaa80032
:100d20006547a90000000600889fbe008a9fbe009c
:100d30008c9fbe0000447800814478000246780011
:100d40008346780004457800854578000028a9008e
:100d500004a8a900e44f540001003a00cdff0700a9
:100d60000884fb0020eb26000804400018407800af
:100d70000074a100f007b20001f82f007235800066
:100d8000828060008100700071358800e4cf5400db
:100d900001003a00bfff07008984fb0020eb26001a
:100da00089044000194078000074a100f007b200e7
:100db00001f82f008335800083806000810070007f
:100dc0008135880080ff2f004021b6005021b600f9
:100dd0004821b6005821b6004081a9005081a900e1
:100de0004881a9005881a90011e1a9001061a9005a
:100df0001021a900f1fc2f000211200012896000cf
:100e00000621ef00f13f2e00030a800003816000fd
:100e100002a0a000020a8800830a8000038160000b
:100e200002a0a000820a8800430a800003816000bb
:100e300002a0a000420a8800c20a800082806000ee
:100e400001a0a000c10a88000a45e9006305650009
:100e50004555dd00f1f92f00030a80000381600091
:100e600002017500020a88008b45e900e3856500f0
:100e7000c55ddd00820a800082806000818075008f
:100e8000810a88004301a8005301a8004b01a80073
:100e90005b01a80001fe2f0023142000938960004d
:100ea0002215200012896000a3142000938960009d
:100eb000a21520001289600042e1a90052e1a900b8
:100ec0004ae1a9005ae1a900927080000154800013
:100ed000c308de00e1c060004a11de006f4161001e
:100ee000430020008308dd0081407100014178004b
:100ef000a30021008249780067066600030a80008b
:100f00008300600081007600010a8800e7866600a1
:100f1000820a80008200600081807600810a880059
:100f2000430a80008300600081007600410a880047
:100f30005801b60000807600c00a880042c1a800af
:100f40004ac1a80052c1a8005ac1a80011e1a800d6
:100f50004f06be004f05be004f04be000000060055
:100f6000809fbe00829fbe0091708000025480006e
:100f70004311de0061416100ca08de00efc060007d
:100f8000400020000011dd0082c070008141780027
:100f9000a20021000349780081ff2f008215200064
:100fa0001289600004c8a90024c8a90091708000bb
:100fb000025480004311de0061416100ca08de0076
:100fc000efc060000010dd0000c070000bf0b70043
:100fd0004f01be004f00be0000400600889fbe00cb
:100fe0008a9fbe00000578000144780082457800a1
:100ff000834478000268a9002268a90001eba900d7
:1010000011eba90080ff2f004021b6004821b60057
:101010004081a9004881a90010c0b30006f0b700c4
:10102000e44f540001003a001aff07000884fb0057
:1010300020eb260008044000184078000074a1004e
:10104000f007b20001f82f00723580008280600046
:10105000810070007135880000c021004021b70078
:101060004821b700f0f92f004021b6004821b60012
:101070004301a8004b01a80042c1a9004ac1a90030
:1010800042e1a8004ae1a800678064002000320025
:101090000984fb004444de00e44f540001003a00a0
:1010a000fcfe07006f04640020eb260008044000eb
:1010b000184078000074a1004800dd00f10f2800fe
:1010c0008235800082806000810070008135880058
:1010d00000c021005821b700f0f92f005821b600b8
:1010e0005ae1a90000fe2f005a21b6005881a9003c
:1010f000120a8000820060003101b300110a8800ea
:101100004a01b6003001b300500a880003003700de
:1011100000fe2f004221b6004a21b600f0fc2f004d
:10112000002bb600102bb600c0ff2f000258800025
:10113000820060000100a00001588800100bb6007a
:101140000000a0008058880001aba90011aba900e5
:101150004014200060588800c0142000e058880027
:101160001000200010588800905888000a05e900f7
:101170007a588800fa58880000002000305888000b
:10118000000a21002058880000002000b058880084
:1011900080422200a05888004081a9004881a9000f
:1011a000e785650080ff2f00020a80008200600052
:1011b00081807500010a8800420a80008200600078
:1011c00081807500410a88000088a9002088a80055
:1011d00001eba80011eba800e78464005801b600f9
:1011e00000807400c00a88004f05be004f04be0096
:1011f00000000600889fbe008a1f78000005780066
:1012000001eba90011eba90021eba90031eba9002a
:1012100083ff2f0000142000108861008414200038
:10122000148a610005152000958a6100861520004a
:10123000168b61004081a9004881a9005081a90056
:101240005881a90020c0b30006f0b7000281fb005e
:101250006f02610026eb26000402430094437800ed
:101260000774a100f50720008783620004f82f00af
:10127000793580000904620008847300783588009d
:101280004411de0002034300164178000274a100fd
:101290008282620080358000000262000482720057
:1012a0008435880002142000128961008414200013
:1012b000148a610005152000958a610086152000ba
:1012c000168b61004081a9004881a9005081a900c6
:1012d0005881a90000c021004021b7004821b70073
:1012e0005021b7005821b700f2f92f000414200054
:1012f000140a610085142000950a6100061520007b
:10130000160b610089152000990c61004301a800ab
:101310004b01a8005301a8005b01a80042c1a9002d
:101320004ac1a90052c1a9005ac1a90002fe2f005a
:101330002014200010086100a4142000140a610089
:1013400025152000950a6100a6152000160b6100e6
:1013500042e1a8004ae1a80052e1a8005ae1a80031
:101360007101510009b02000990c610000b120000a
:101370001008610004b22000140a610005b32000c7
:10138000950a6100c2ff2f000658800086016100a7
:101390000300a0000358880089588000890161007b
:1013a0000300a0008358880000598000800161007c
:1013b0000300a000035988008459800004016100e3
:1013c0000200a0008259880001aba90011aba9005e
:1013d00021aba90031aba90042142000625888005b
:1013e000c2142000e258880042152000625988008b
:1013f000c2152000e259880012002000125888000f
:101400009258880052022000125988009259880090
:101410000a00e90070588800f05888007059880068
:10142000f05988000000200030588800000020009b
:1014300030598800000a210020588800007b2300d2
:101440002059880000002000b058880000002000cb
:10145000b059880080422200a058880080b3240040
:10146000a05988000088a9002088a80001eba800e6
:1014700021eba80011eba80031eba8006fc06000c1
:101480000df0b7000ef0b7008180fb00c408de004d
:10149000f5002100814a78000140780010f0b70083
:1014a0004f0578004f04be0000000600800378005e
:1014b00001eba90011eba90021eba90031eba90078
:1014c00083ff2f0000142000108861008414200086
:1014d000148a610005152000958a61008615200098
:1014e000168b61004081a9004881a9005081a900a4
:1014f0005881a90035c0b30060002100054878007c
:1015000004f82f007635800086026200a502b30041
:1015100075358800f60f28007035800000036300e1
:1015200005b02200868272007535880085358000fe
:1015300005026200c402b30084358800061420004e
:10154000168b6100801420001088610004152000b3
:10155000148a610085152000958a61004081a900e8
:101560004881a9005081a9005881a90000c021002c
:101570004021b7004821b7005021b7005821b700db
:10158000f3f92f0004142000148a61008514200050
:10159000958a610006152000168b610080152000d9
:1015a000108861004301a9004b01a9005301a90063
:1015b0005b01a90042c1a9004ac1a90052c1a9000a
:1015c0005ac1a90042e1a8004ae1a80052e1a800de
:1015d0000204e00008003a0003fe2f00241420005b
:1015e000148a6100a5142000958a61002615200048
:1015f000168b61001e003700e70161001c003200fd
:101600008281fb00c419de0024eb26008301420026
:10161000934178000374a100c819dd00f40f28007d
:1016200080358000000262000482710084358800e9
:101630005ae1a90003fe2f00a4152000148a6100be
:10164000150a8000058261003401b300140a880085
:10165000560a8000068261003401b300540a8800f3
:10166000900a8000808161003301b300930a8800f2
:10167000f3fc2f0004b02000148a610005b12000a3
:10168000958a610006b22000168b6100c3ff2f000f
:1016900000588000008261000400a0000458880007
:1016a00085588000058261000400a00084588800ed
:1016b00006598000868161000300a000035988005c
:1016c00001aba90011aba90021aba9004314200074
:1016d00063588800c3142000e35888004315200095
:1016e000635988001300200013588800530020001d
:1016f0009358880053022000135988000700e9001e
:1017000070588800f0588800705988000000200048
:101710003058880000002000b0588800000a2100de
:101720002058880080422200a05888000000200035
:1017300030598800007b2300205988000088a900c8
:101740002088a80001eba80021eba80011eba8005d
:10175000e781600080ff2f00050a8000050260001d
:1017600004827100040a8800c409de00e781610078
:10177000460a80000602600004827100440a880064
:10178000c808de00e7806000840a800084016000f1
:1017900083817000830a8800670161005801b600e8
:1017a00000007100c00a88000000060001eba900db
:1017b00011eba90021eba90031eba90083ff2f0059
:1017c00004142000148a610085142000958a6100a9
:1017d00006152000168b610087152000978b61008d
:1017e0004081a9004881a9005081a9005881a90021
:1017f00036c0b30065002100864a780005f82f0046
:101800007735800007826200a402b3007435880037
:10181000f40f2800763580008603620006b02200af
:101820000703730076358800873580008782620061
:10183000c502b30085358800853580000502620049
:1018400005d02200848272008535880011e1a9004c
:101850001061a9001021a900630161004411dd009d
:10186000f4fc2f0086088000860262008502710069
:10187000850888001500200035088800071420001e
:10188000978b6100821420001289610006152000e8
:10189000168b610087152000978b61004081a9009d
:1018a0004881a9005081a9005881a900f23f2e006b
:1018b000070a80000703610006a0a000060a88004e
:1018c000470a80000703610006a0a000460a8800be
:1018d000870a80000703610006a0a000860a88002e
:1018e000c60a80000601610002a0a000c20a8800aa
:1018f000f2f92f0007142000970b610086142000d6
:10190000160b610007152000970b6100861520005b
:10191000160b61004301a9004b01a9005301a90066
:101920005b01a90042c1a9004ac1a90052c1a90096
:101930005ac1a90002fe2f0027142000970b610056
:10194000a6142000160b610027152000970b6100dc
:10195000a6152000160b610042e1a8004ae1a8008c
:1019600052e1a8005ae1a80007b02000970b6200de
:1019700002b120001209620006b22000160b6200bc
:1019800007b32000970b6200c2ff2f0006588000ab
:10199000060261000400a0000458880087588000f7
:1019a000070261000400a0008458880006598000e6
:1019b000060261000400a0000459880087598000d5
:1019c000070161000200a0008259880001aba90054
:1019d00011aba90021aba90031aba9004214200032
:1019e00062588800c2142000e25888004215200086
:1019f00062598800c2152000e259880015588800f5
:101a0000520020009258880052022000125988008b
:101a10000201e800925988000000e900705888002f
:101a2000f058880070598800f059880000002000a4
:101a30003058880000002000b0588800000a2100bb
:101a40002058880080422200a05888000000200012
:101a50003059880000002000b0598800007b230026
:101a60002059880080b32400a05988000088a9006c
:101a70002088a80001eba80021eba80011eba8002a
:101a800031eba80067806000040a800004816100d7
:101a900002017000020a88004408de00670060004e
:101aa000450a80000581610002017000420a880039
:101ab0004808de0067006000860a80000681610039
:101ac00002017000820a8800cc08de00e780600016
:101ad000c70a80008781610083817000c30a880083
:101ae0000000060042c1a9004ac1a90052c1a900d4
:101af0005ac1a90080ff2f004021b6004821b6003e
:101b00005021b6005821b6004081a9004881a900a3
:101b10005081a9005881a90000000600881f7800a4
:101b20000044780000f82f00ae26b600f00f280021
:101b3000ae26b60011e1a9001061a9001021a8008d
:101b4000e3806000c408dd00f0fc2f001001b60047
:101b50000080700080088800e44f540001003a00c3
:101b60004cfc07000884fb0020eb26000804400022
:101b7000184078000074a100f007b20001f82f00af
:101b8000323580008280600081007000313588002d
:101b900084ff2f00031420009309620080142000aa
:101ba00010086200f13f2e00030a800003816000ec
:101bb00002a0a000020a8800400a80008080600025
:101bc00001a0a000410a8800f1f92f00030a80005b
:101bd000038160000250a000020a8800400a8000d1
:101be000808060000150a000410a88004081a90067
:101bf0004881a9004301a8004b01a80042c1a900e7
:101c00004ac1a90042e1a8004ae1a80001fe2f0054
:101c10002214200012896000a31420009389600020
:101c200021e1a900000320002021b700811a26002d
:101c3000e10888001821ef007242800082006200f3
:101c40000100a000714288000388a9000621ef006e
:101c500011e1a800430a8000830062005100b30034
:101c6000410a8800010a8000010062005000b300b0
:101c7000000a880021e1a8004ac1a80042c1a800ca
:101c80004f04780000000600881f780000447800a8
:101c900011e1a9001061a9001021a800e44f54002f
:101ca00001003a00fbfb07000884fb0020eb260044
:101cb00008044000184078000074a100f007b2004a
:101cc00001f82f00323580008280600081007000b2
:101cd000313588000621ef0011e1a8004f0478009b
:101ce00000000600889fbe00004478008144780010
:101cf000e44f540001003a00e6fb07000884fb00b3
:101d000020eb260008044000184078000074a10071
:101d1000f007b20001f82f003235800082806000a9
:101d2000810070003135880013e1a90011e1a9009c
:101d300021e1a9001061a8001021a800e38464003b
:101d4000c44cdd00f0fc2f001001b60000807400d0
:101d5000800888000108a900000320002021b700a6
:101d6000801a2600e00888000821ef000a21ef0011
:101d70000621ef001821ef0080ff2f004e08b6006b
:101d80000000a000704288000388a90011e1a800ab
:101d900021e1a8004f04be00000006004022ef0031
:101da00010aea90014aea80010cea90014cea80051
:101db0000148a9002148a90008d0bf0063006000c5
:101dc000c1ff2f001212800082806000810070002d
:101dd0001112880076d0bf00670060004200dd006d
:101de00031fe2f001212800082806000810070009e
:101df000111288004382a9004362a90042e2a900af
:101e000005d0bf00e14f500002003a004342a90054
:101e1000010037004342a80077d0bf006100600096
:101e20004800dd00111280000180a10081007000d7
:101e30001112880009d0bf00610060004600dd007b
:101e4000111280000160a100810070001112880051
:101e500042a2a80078d0bf00610060004900dd0008
:101e6000111280000190a100810070001112880001
:101e700041e2a800000006000550e3000200320025
:101e800005f0b700c5ff070000000600881f7800b6
:101e90000044780010c0b300f7ff070040c2a9005b
:101ea0000884fb00481288004022ab00feff3a0085
:101eb0004002ab00feff3200401280004f04780069
:101ec00000000600881f78000004780020c0b300de
:101ed000e9ff070040c2a900481288004022ab0079
:101ee000feff3a004002ab00feff320040128000cd
:101ef0004f04780000000600e14f500007003a0050
:101f0000e1806000ca08dd002070800000a0a10010
:101f100000807000207088002c003700e24f5000d5
:101f200007003a00e1806000c708dd0020708000f3
:101f30000070a1000080700020708800230037002e
:101f4000e64f500007003a00e1806000c508dd0060
:101f5000207180000050a100008070002071880076
:101f60001a003700e74f500007003a00e180600098
:101f7000c408dd00207180000040a10000807000d6
:101f80002071880011003700e94f500007003a0027
:101f9000e1806000c508dd00a07080000050a10055
:101fa00000807000a070880008003700ea4f5000e1
:101fb00006003a00e1806000c608dd00a0708000e5
:101fc0000060a10000807000a07088000000060082
:101fd000889fbe0080447800014478008040eb0078
:101fe00009407800c4ff07000800fb0000e0a000e3
:101ff000b4ff070011c0b30009407800beff07001e
:102000004f04be0000000600881f780000447800de
:102010008040eb0010c0b300b7ff07000804fb00ce
:102020000010240008007000a6ff070011c0b300d4
:1020300001407800b0ff07004f0478000000060060
:102040000368a900d00888000180200012408000a9
:1020500002806000fdff320000000600f34f5000d8
:1020600008003e004b00dd00cf80de000280230030
:10207000031020000202400083824800448388004d
:1020800055838800000006008100e900314888007f
:102090000000e90010088800600020000048880067
:1020a000f03f2e000009b60000c0a00000488800e4
:1020b000630061004400dd00f1fc2f002308800074
:1020c000838060008100700021088800b00020003b
:1020d0001048880005e1a8000228a30004003a0087
:1020e00000fc2f008a06b6000040a0005034880093
:1020f00000000600800178001fe1a9000308a90084
:102100002308a90021eba9000108a3001e0032004a
:1021100002102000d248880002202000c248880017
:102120001629ef0062002000a2488800f00120007c
:102130001629b70000c021001429b700f2fc2f00b7
:1021400000b220001008610021cba900c2ff2f00bf
:1021500000b220001008610021aba800a29120006d
:1021600062598800b2012000125988000200200044
:10217000325988002263260022598800f21f20006d
:10218000725988001d00370002022000d2488800e2
:1021900002042000c24888001629ef0062002000d7
:1021a000a2488800f00120001629b70000c02100d5
:1021b0001429b700f2fc2f0000b2200010086100c3
:1021c00021cba900c2ff2f0000b22000100861003f
:1021d00021aba800a291200062598800b201200022
:1021e00012598800020020003259880022e326009c
:1021f00022598800f2012000725988000308a900c2
:102200002308a80021eba800c308dd000103b200e9
:10221000f2fc2f00f00880000001610002817000d4
:10222000f2088800d30888001fe1a800f10f2c00f5
:102230006034800080806000002021000100700078
:1022400060348800000006008001780013e1a900d6
:102250001061a9000488a9002488a90031eba90015
:102260000108a3001e00320002102000224988004d
:1022700002202000124988002029ef00620020007f
:10228000f2488800f00120002029b70000c021009a
:102290001e29b700f2fc2f0000b3200010086100d7
:1022a00031cba900c2ff2f0000b32000100861004d
:1022b00031aba80042922000e25988008200200041
:1022c00092598800f21f2000f25988000200200075
:1022d000b259880022a32600a25988001d003700a9
:1022e00002022000224988000204200012498800ce
:1022f0002029ef0062002000f2488800f001200051
:102300002029b70000c021001e29b700f2fc2f00d1
:1023100000b320001008610031cba900c2ff2f00dc
:1023200000b320001008610031aba80042922000e9
:10233000e25988008200200092598800f2012000b2
:10234000f259880002002000b259880022e72600d6
:10235000a25988000488a9002488a80031eba800ad
:10236000c308dd000103b200f2fc2f0090088000da
:1023700000016100028170009208880073088800e3
:1023800013e1a80000fc2f008c06b6003001b3005a
:102390006034880000000600889fbe008a1f780015
:1023a0000005780013e1a9001061a9001fe1a90050
:1023b0000488a9002488a9000308a9002308a9000b
:1023c00021eba90031eba9008482fb00618362004c
:1023d0000500320007102000d748880007202000a1
:1023e000c74888000400370007022000d74888004b
:1023f00007042000c7488800e2826200050032001e
:10240000071020002749880007202000174988006e
:102410000400370007022000274988000704200035
:10242000174988001629ef0067002000a748880098
:102430002029ef00f7488800f00120001629b70096
:1024400007c02100070078001429b700f001200020
:102450002029b700070078001e29b700f8fc2f00dc
:1024600000b220001008640021cba900c7ff2f0094
:1024700000b220001088630021aba800a9912000c1
:1024800069598800b90120001959880000b320005b
:102490001008640031cba90000b32000108863004d
:1024a00031aba80047922000e75988008700200040
:1024b000975988000600e00007003200f61f200050
:1024c00076598800060020003659880026632600c9
:1024d0002659880006003700f6012000765988004a
:1024e000060020003659880026e326002659880079
:1024f0000500e00007003200f51f2000f5598800b4
:1025000005002000b559880025a32600a55988009c
:1025100006003700f5012000f5598800050020006d
:10252000b559880025e72600a55988000308a900a9
:102530002308a8000488a9002488a80021eba8008b
:1025400031eba8004030ef000200e0000a0032004a
:102550008003eb000600280033eba80090598000b0
:1025600080026300fdff3a008703e800870f5100f7
:10257000f9ff3e00028288000482fb00c222dd00d7
:102580000503b200f2fc2f009008800000036100f8
:1025900006837200960888000403b200f0088000e9
:1025a0000001610002017200f2088800da08880068
:1025b000710888001421ef005308880000fc2f00e8
:1025c0008c06b6003001b30060348800f10f2c0097
:1025d00060348000808060000020210001007000d5
:1025e0006034880013e1a8001fe1a8004f057800bf
:1025f0004f04be00000006008100e9002149880068
:102600000000e9007008880060002000f0488800a1
:10261000f03f2e001e09b60000a0a000f048880080
:10262000630161004411dd00f0fc2f001e01b600c3
:1026300000007100f0088800d000200000498800e8
:102640001fe1a800f10f2c00503480008080600052
:1026500000302100010070005034880000000600a6
:102660004fe7a9004f87a900ef806000c808dd0090
:10267000f20f2f00733a80000301610002817000a5
:10268000723a88000080fb000008a30005003200b9
:1026900001fc2f0052348000828060001103b300df
:1026a000513488000018a30006003200f20f2c00fd
:1026b0005334800003016100011023008280700008
:1026c000513488000028a3000500320001fc2f00cf
:1026d00062348000828060001103b300613488009e
:1026e0000038a30006003200f20f2c006334800093
:1026f00003016100011023008280700061348800b2
:102700000048a30007003200152ea900f10f2c008d
:1027100030348000808060000010230001007000d1
:10272000303488004fe7a80000000600e687470025
:10273000889fbe008a9fbe008c9fbe008e1f7800bf
:10274000800678000107780082bf9f00830478002c
:102750000405be0006067800f7b79f006fe49700f7
:102760000308a9002308a9000488a9002488a90057
:1027700021eba90031eba90005e1a9000868a3003d
:102780000b00320043f90700900120001048880038
:1027900002e9a800604888000ce9a800b048880059
:1027a00016e9a8000049880020e9a80005003700c4
:1027b000b00020001048880060488800b0488800b9
:1027c000004988001d0888000629ef002e4888006f
:1027d0000fb897008048880079488800da48880058
:1027e000cb4888002c4988007fb1970012498800a7
:1027f0000858a3000a00320070002000004888003a
:1028000050488800a0488800f04888000389a90043
:102810000d89a9001789a9002189a9001c0037008a
:10282000400020000048880050488800a0488800e8
:10283000f04888000389a9000880fb00c200de0080
:10284000e1806000cc08dd006248800002c0a10089
:102850000281700062488800c300de00e1806000f1
:10286000cc08dd00b248800002c0a10002817000e7
:10287000b24888004400de00610060004c00dd00ca
:102880000149800001c0a100810070000149880059
:10289000f03f2e00024880008200600001c0a000ce
:1028a00001488800524880008200600001c0a000fa
:1028b00051488800a24880008200600001c0a0004a
:1028c000a14888001e09b60000c0a000f04888009a
:1028d000630464004444dd00f0fc2f000401b600f2
:1028e00000007400200888000021ef0005e1a80026
:1028f00001fc2f0052348000028060000040a000e4
:1029000050348800f00f2c005234800082016000a7
:1029100002102100030171005234880062348000eb
:10292000828060002101b300613488008c06b6000b
:102930000130210080807000613488004f077800ea
:102940004f06be004f05be004f04be006f00b10031
:1029500000000600f0fc2f002001b6000040a0009f
:1029600000098800618480008100e900e108880096
:102970001821ef0021e1a8000000060021e1a900d4
:10298000f1fc2f0002098000828060000150a0004d
:10299000010988000000e900e00888001821ef0024
:1029a0000388a90021e1a800010021001240800055
:1029b00002806000fdff320021e1a9000000060056
:1029c0002183a8003303a800000006002183a9008a
:1029d0003303a90001eba9000000060001a8a9002b
:1029e00021a8a900f9ff0700a7f8070021e3a90023
:1029f0002223ef003223ef002e23ef003023ef00dd
:102a00002143a80086d0bf007f00600001fe2f0098
:102a100042198000828060008100700041198800a6
:102a200025e3a9002083a900f0f12f002023b600a0
:102a30002063a9002043a900f00f2e002403b60054
:102a400000c0a0002019880030f82f002223b60013
:102a5000a0c0b30024e3b700000006001c30ef0064
:102a60001570ef001470ef00000006002023ef0047
:102a7000d6ff07002143a9002083a900f0f12f0011
:102a80002003b6000070a000001988002043a800b1
:102a90002063a80086d0bf007f00600001fe2f00e9
:102aa0004219800082806000810070004119880016
:102ab00028e3a90012d0bf00610060003119800036
:102ac0000100a100810070003119880090ff2f00e3
:102ad0002623b60030f82f002223b6003223ef0061
:102ae0002e23ef003023ef0001a8a90021a8a900a0
:102af00010c0b30024e3b70025e3a90021e3a80038
:102b0000400120004c50070021e1a90021a1a800ac
:102b1000f0fc2f002001b6000040a0000009880052
:102b20001821ef0021e1a8000388a9002388a9004b
:102b300000000600881f78002023ef00610060007d
:102b40004a00dd000119800001a0a1008100700091
:102b5000011988002083a900f0f12f002003b6009e
:102b60000070a000001988002043a8002063a8007e
:102b700086d0bf007f00600001fe2f004219800058
:102b800082806000810070004119880028e3a9005c
:102b900012d0bf0061006000311980000100a10067
:102ba000810070003119880090ff2f002623b600a5
:102bb00030f82f002223b6003223ef002e23ef003f
:102bc0003023ef0001a8a90021a8a90018c0b30074
:102bd000403220000848780025e3a90021e3a8003e
:102be000400120001450070021e1a90021a1a80004
:102bf000f0fc2f0002098000820060000140a0006c
:102c0000010988001821ef000388a9002388a90082
:102c100001eba900002bb600c0ff2f00000bb6008f
:102c20000000a0000058880001aba900d0002000df
:102c30001058880088407800600021000148780022
:102c40005fff07004f047800000006005fff0700e9
:102c500021e3a9002143a8002083a900f0f12f005f
:102c60002003b6000070a000001988002043a800cf
:102c700086d0bf007f00600001fe2f004219800057
:102c800082806000810070004119880028e3a9005b
:102c900030f82f002223b6003223ef002e23ef005e
:102ca0003023ef0001a8a90021a8a90090c0b3001b
:102cb00024e3b70025e3a90021e3a8004001200098
:102cc000dd4f070021e1a90021a1a800f0fc2f00a1
:102cd0002001b6000040a000000988001821ef0084
:102ce00021e1a8000388a9002388a90000000600ac
:102cf00001a8a90021a8a90034ff07002223ef00a2
:102d00003223ef002e23ef003023ef0021e3a90050
:102d10002143a80021a3a90025e3a8002083a9003e
:102d2000f0cf2f002223b60086d0bf007f006000c6
:102d300001fe2f0042198000828060008100700037
:102d40004119880028e3a900000e20002023b700c5
:102d50002043a90030f82f002223b60000f0210004
:102d60002423b70090c0b30024e3b70021e3a800f8
:102d700040012000b04f07000000060001a8a90094
:102d800021a8a90011ff070021e3a9002223ef00d9
:102d90003223ef002e23ef003023ef002143a80061
:102da00021a3a90025e3a9002083a900f0cf2f00cb
:102db0002223b60086d0bf007f00600001fe2f00f6
:102dc00042198000828060008100700041198800f3
:102dd00028e3a900000e20002023b700f00f2e00ea
:102de0002403b60000c0a00020198800a0c0b300d2
:102df00024e3b70030f82f002203b600c003b3006d
:102e00001019880000000600889fbe008a1f780005
:102e100000447800814478000245780004d0bf0067
:102e2000884f500007003a00610821009140780067
:102e300089cf500003003a0012d0bf008a4f5000e3
:102e40002900320086d0bf00e74f50000200320058
:102e5000e54f500001003a008bf7070041002100c8
:102e6000884878000940780086f0b7000a4078006a
:102e700012f0b700e14f540002003a00fbfe0700d9
:102e800019003700e74f540003003a000040eb0000
:102e900028ff070014003700e84f540003003a00f1
:102ea00010c0b30023ff07000f003700e34f5400aa
:102eb00002003a008eff07000b003700e64f540077
:102ec00002003a0061ff070007003700e54f540099
:102ed00002003a00a9ff070003003700e44f540046
:102ee00001003a00bdfe07004f0578004f04be0008
:102ef00000000600889fbe008a1f7800804478008a
:102f000001447800020578000041eb0051c0b30095
:102f100040c0b300bcff07003b83a8004a44dd006b
:102f2000f03f20003e03b60000007400f019880056
:102f3000e3846400c84cdd00f0cf2f003e03b600f0
:102f400000807400f019880021e1a90020c1a900c7
:102f5000f0fc2f002001b6000050a00000098800fe
:102f6000ea08880001352c000040eb0095f60700c8
:102f700021e3a800400120002f4f07002023a800d4
:102f80003be3a800803e20002b4f07003b23a80016
:102f9000c05d2000284f07001821ef000388a9001a
:102fa0002388a9003b23a9003d03a80021e1a80034
:102fb000010021001240800002806000fdff32000d
:102fc0000388a90001a8a9002023a9003d03a900a6
:102fd000010022000240800002806000fdff3200fc
:102fe00001a8a9002003ab00feff320008188000f2
:102ff00082f6070021e3a900f0ff20000000640032
:103000004f0578004f04be0000000600e687470029
:10301000889fbe008a9fbe008c9fbe008e1f7800d6
:103020000041eb008040780050c0b30076ff0700fd
:1030300021e3a80040012000ff4e07002043a80024
:1030400001a8a90001002200024080000280600067
:10305000fdff320001a8a9002003ab00feff3200f3
:103060002043a90021e3a9000d1880001e1880004c
:103070002c1880003b1880004a18800059188000e6
:1030800068188000771880008618800095188000e6
:10309000a4188000b3188000c2188000d0188000e7
:1030a00080bf9f00e0188000f1188000f1b79f00fa
:1030b0008d0647000c8646008b0546000a854500b4
:1030c00089044500088444008703440006834300c4
:1030d00085024300048242008301420002814100d4
:1030e0008fb997008300410000804000ffb0970037
:1030f000010040004f0778004f06be004f05be009c
:103100004f04be006f00b10000000600881f780069
:1031100000447800610161004c11dd00d01980008d
:1031200000c0a10000007100d0198800f03f20000d
:103130003e23b600e3806000c808dd00f0cf2f001a
:103140003e03b60000807000f01988003d03a9001e
:103150003b03a900fe4f5400020032003d23a900aa
:10316000010037003d23a8003be3a800803e20007b
:10317000b14e07003b23a800c05d2000ae4e070003
:103180003b23a9003ba3a9003d03a8000840780009
:103190009eff07000004780018f60700080078007a
:1031a0004f04780000000600881f780000047800b3
:1031b00001352c000040eb0002f6070001352c0021
:1031c0000040eb00fff507000041eb0051c0b300e9
:1031d000014078000cff070021e1a9001821ef0051
:1031e0000388a900e8088800f0fc2f002001b60041
:1031f0000050a0000009880021e1a800200ea900cd
:10320000240ea8000100210012408000028060000e
:10321000fdff32000388a900200ea800240ea9009b
:1032200050c0b30079ff07004f047800000006008b
:103230007f00600001fe2f00421980008280600044
:1032400081007000411988002023a8002003ab00f2
:10325000feff320000188000000006002e2eef0056
:103260002e0ef8001e0ef9000e0ea8000e2ea8005d
:103270001e0ea8001e2ea8001e6ea8002e2ea8004e
:103280002e4ea80000000600e0032000303a88001f
:10329000f0f32f004427b60000fe2f004407b600cd
:1032a0000000a000203a8800a10920003200200080
:1032b000800720003374200080497800814978001d
:1032c00082497800123a80000200a00071052000b7
:1032d0006004200023742000804978008149780030
:1032e000824978000200270001002300133a800081
:1032f00003006100810f5000fcff3a000102200032
:10330000123a800002806000fdff320080ff2f0033
:10331000c22ab60020cea90020eea900210ea900e5
:10332000212ea900000ea800002ea800102ea80033
:10333000100ea800202ea800204ea800114ea800b4
:10334000116ea800118ea80011aea80011cea80021
:10335000112ea800104ea8001e4ea9000288a90038
:103360002288a900014ea900054ea80000eea90080
:1033700004eea80010aea90014aea80010cea9005b
:1033800014cea80011eea90015eea900208ea90008
:10339000248ea80020aea90024aea800008ea900ab
:1033a0000e8ea900206ea900012ea80020c0b30037
:1033b000b1fa0700200ea8002e0ea900240ea900c5
:1033c000106ea8001e6ea8000168a9002168a9005f
:1033d00003c8a90023c8a90088f507009fff0700bc
:1033e00000000600e2eb2500040220000202420079
:1033f0008001eb0003297800840f5100fdff3a00a3
:1034000002012000028288000002eb00030220007b
:1034100002ec2500d00d07000000000000000000b5
:1034200000000600889fbe008a9fbe000004be0008
:103430008245780003057800eaff07004030ef007e
:103440008b85fb00c45ddd00e0eb25008085450039
:103450000000eb00ba2d78000000e8000082880030
:10346000e80f5000fbff3a00320024000800be00c5
:10347000760d07004030ef000000eb000aec25005d
:103480008005eb00000140008200e80081804000e0
:103490008101450002014100020145004200dd00ba
:1034a00008004000e0804c00130278008b01780097
:1034b00012017800990d07004010ec00008288008e
:1034c000e70f5000efff36004f05be004f04be006f
:1034d00000000600881f780002447800c1ff070042
:1034e0000884fb004444dd00e0eb250000044400b8
:1034f000e0ed2500f000400058287800810f5000d2
:10350000fdff3a0080002000008288004f04780010
:1035100000000600c34c260004ef2500060037001b
:10352000918480008258780091848800838f5000b5
:1035300001003a0094848800304178000204e000e1
:10354000f7ff3a0000000600881f78000144780069
:10355000248ea900000000000054a0004bfa0700d0
:103560000840780049fa0700248ea80000000000f7
:103570004f0478000000060024aea9008040eb0054
:1035800001407800f0ff07000000060024aea9000b
:10359000e1c3b3000040eb00ebff070000000600b2
:1035a000f1c3b3000040eb00e7ff070024aea80022
:1035b00040002000a04d070000000600889fbe00cc
:1035c0000144780082047800248ea90000000000e5
:1035d0000054a0002dfa07004030ef000884fb00e3
:1035e000080032000000eb0000804400104078002a
:1035f00026fa07004010ec0000828800880f500077
:10360000f9ff3900248ea80000000000000000002f
:1036100000000000000000004f04be000000060093
:10362000248ea9000000000018fa07000040eb00fb
:1036300016fa0700248ea800000000000000060013
:10364000248ea9000000000000c0eb000ffa070064
:10365000248ea8000000000000000600f8ff07000c
:103660004600de006100600000000600248ea90014
:103670000000000005fa0700248ea80000000000ea
:103680000000060001c3b30070c0b300aeff070026
:1036900020ceb300f5ff070010ceb300f3ff070004
:1036a00000000600248ea8000000000024aea9003f
:1036b000f1c3b3000040eb00a3ff070011c0b3004b
:1036c00001407800a0ff070011c0b300c0c1b300e3
:1036d0009dff070011c0b30020c0b3009aff070090
:1036e00011c0b30030c0b30097ff070051c2b30050
:1036f00040c0b30094ff070041c0b300d0c1b30085
:1037000091ff070041c6b30050c0b3008eff070011
:1037100061c2b30060c0b3008bff0700d2eb26008c
:1037200031c0b300a0c0b300a4ff070002ec260024
:1037300031c0b300b0c0b300a0ff0700d2eb260039
:1037400031c0b30000c1b3009cff0700cdff0700ec
:103750000040eb00b2ff07000038a3000200320077
:1037600010c0b30024f0b700c228a800f10f280051
:103770000035800080806000002022000100700081
:103780000035880000000600889fbe008a1f780070
:103790000145780082047800248ea9000000000012
:1037a000baf907004030ef000a047800f803b200cd
:1037b000080032000000eb00008044001040780058
:1037c000b2f907004010ec0000828800880f50001a
:1037d000f9ff3900248ea800000000000a04e00070
:1037e00004003d0024aea800c0002000124d0700d8
:1037f00024aea9004f0578004f04be00000006006b
:103800000200fa00881f7800c0ff9f006481570003
:1038100011c0b30000cab300dbff07002450e20070
:10382000040032000802200085ff07000000640049
:10383000fdff320001c2b30070c0b30042ff0700b9
:103840004f0478000080fa0000000600889fbe0048
:103850008a9fbe008044780001057800248ea9006c
:103860000000000010c6b30088f907004030ef00e8
:103870008984fb000b0032000004eb008045eb0064
:103880000b40780081f9070008044500004c7800df
:10389000088280000804e80008828800890f54002c
:1038a000f7ff3900248ea8000000000001c4b30017
:1038b00070c0b30024ff07004f05be004f04be00d8
:1038c000000006000200fa008f80e90010c0b3007b
:1038d000deff070001c3b30070c0b3001aff07008a
:1038e0006ff897000080fa00000006003600f8002c
:1038f000809fbe00829fbe00849fbe00869fbe0048
:103900004fff07002104200000806000810f50005d
:1039100037003a00205e2b00fefe070000c6b30011
:103920003fff07008041780000072100034878002e
:1039300073d0bf0042c1b3000440bc00544e260007
:103940008400410003407800c0ff070001c3b300ba
:1039500070c0b300fcfe07003107210091407800e1
:103960008182fb00a2002000110009008282d800a1
:1039700001027800e34c260001c3b30081494200f4
:103980000080fb00110009000280d8008000fd00cb
:103990008301e90001c3b300814940000302e9004b
:1039a00043062000110009008382d8008000fd003a
:1039b0008180fb00110009008280d80000c3b300a1
:1039c00000ca4000e30042008048eb000400780099
:1039d000d0fe07007350ec0073f0b700ef4f5000bb
:1039e00003003a007370ef00a05e2b00c9fe0700d1
:1039f0000288a9004f03be004f02be004f01be0067
:103a00004f00be003600f90000400600e687470080
:103a1000889fbe008a9fbe008c9fbe008e1f7800cc
:103a200015eea90040a7a8006c30ef006e30ef0043
:103a300015fe0700f0002000730b070010c0b30054
:103a40005b0d070017ff070015eea8000c702000a3
:103a5000de5f26000d0a21000000200080bf9f00cd
:103a6000010037000060fe00250b07000004e000a5
:103a7000fcff3200590b070000447800570b070089
:103a8000804478000880fb008000eb00610050005b
:103a9000e080580018c0b300ee0f5000e08f5800cf
:103aa000000b3e00000601000e00370088003700c2
:103ab000f401370031023700e20237000903370012
:103ac00032033700e60337000b04370013043700d6
:103ad0007e0637008c0a3700ae0837008e0a3700a2
:103ae000d60a3700e2cf54000900320003003e003e
:103af000e1cf5400dc0a3a0019003700e3cf54004c
:103b000040003200e4cf5400d70a3a0027003700c3
:103b1000320b07003df0b700300b07003cf0b70058
:103b2000e8ed2500f00444005b0b0700002c780052
:103b3000890f5400fcff3a003dd0bf0047f9070051
:103b400003ee2500c203210012417800408380006b
:103b50005183800033fe070018c0b300d30a37003a
:103b60001e0b07003df0b7001c0b07003cf0b70030
:103b70003dd0bf0039f90700c2032100124178008f
:103b8000408380005183800052fe0700e8ed25004d
:103b9000f004440058007800e30a0700890f54003d
:103ba000fcff3a0018c0b300c00a37003a0b070008
:103bb00010828800090b07003cf0b70027f90700c6
:103bc000408380005183800006fe070018c0b300c8
:103bd00010828000e10f5000b40a3600e9eb2500a6
:103be0000004eb0059007800cf0a07000804e80041
:103bf0004210d500880f5000faff3e0018c0b300f5
:103c0000aa0a3700240b070010828800f30a070075
:103c10003cf0b70010828000e10f50000800360031
:103c2000e9eb25000004eb001b0b0700802c78005b
:103c30000804e8004210d500880f5000faff3e004b
:103c40003cd0bf0005f9070032002400408380000b
:103c5000518380007d0b0700890020000004eb00e9
:103c60000aec25008005eb000800440080004000bd
:103c70008100450011017800d28488000000e8002e
:103c800000004000000045001002780044828800d7
:103c9000c241dd00408380005183800000804100ec
:103ca000e080480060838800718388008b01780081
:103cb0009a0b070000000000000000000804e80064
:103cc0008904e900e8ff3a0018c0b300770a37001a
:103cd0000980fb008000eb0061005000e08058008c
:103ce000f50f5000e08f5800610a3e000006010009
:103cf000380037005d003700be003700860037000f
:103d00000d0137001a0137003e0137001e01370050
:103d10002b01370035013700550a370023013700e2
:103d200009003700520a3700b0003700af003700f3
:103d30004f0a37004e0a37004d0a3700ad003700f2
:103d4000f4003700ab00370066f70700a30a07004e
:103d50003df0b700d00a070010848800ce0a0700a3
:103d6000608488001170ef0018fb0700d103210068
:103d7000914078000174a1000041eb0060c0b300e5
:103d800021fc07003d50e20002003d0033fb07002c
:103d90000200370010c0b30014f0b7007e70ef00cf
:103da0000030ef00000a210030818800118480007b
:103db000818040000080400050818800e5fa0700c3
:103dc00001a8a90021a8a80015eea90018c0b300f9
:103dd000360a3700810a07003df0b700ae0a070037
:103de00010848800ac0a0700608488001170ef001e
:103df000f8cf2f002132200091086400d103210068
:103e0000914078000174a1000041eb0010c0b300a4
:103e1000fdfb070022322000120964003d50e20041
:103e200002003d000dfb07000200370010c0b30088
:103e300014f0b7007e70ef000030ef00000a2100a0
:103e40003081880011848000818040000080400023
:103e500050818800bffa070001a8a90021a8a80086
:103e600015eea90018c0b300100a37005b0a07005e
:103e70003df0b700880a070010848800860a070012
:103e80006084880010c0b30011f0b700f8cf2f0095
:103e900013198000830064000180a00011198800bc
:103ea000d1032100914078000174a1000041eb0092
:103eb000d5fb070014198000040064000080a000f6
:103ec00010198800010a21003181880010848000c7
:103ed00000004000010040004081880050818800bf
:103ee0003d50e20002003d00dcfa0700020037000e
:103ef00010c0b30014f0b7007e70ef000030ef0088
:103f000094fa070001a8a90021a8a80015eea900ad
:103f100018c0b300e5093700300a07003df0b700cc
:103f20005d0a0700108488005b0a0700608488002f
:103f300030c0b30011f0b700003020002223b700da
:103f4000d1032100914078004409de006101610045
:103f5000efc0600010c0b300abfb070011d0bf0082
:103f6000630060004800dd00f1cf2f0016198000cb
:103f7000868060008100700011198800000a21000d
:103f800030818800118480000181400000014100df
:103f900042818800c209dd00808141006381880080
:103fa000e60ab90084007800008040007081880033
:103fb000528188003d50e20002003d00a7fa070050
:103fc0000200370010c0b30014f0b7007e70ef009d
:103fd0000030ef005ffa070001a8a90021a8a8009f
:103fe00015eea90018c0b300b009370000fc2f007f
:103ff0008a26b600f90907003df0b700260a070037
:1040000010848800240a0700608488001170ef0083
:10401000f0cf2f002223b60001a8a90021a8a900f3
:1040200010c0b3007ef0b7008210f8000010f90055
:10403000d1032100914078000104e00005003d001b
:104040000174a1000041eb0080c0b3006efb0700cb
:10405000040037000174a1000041eb0070c0b30000
:1040600069fb07000fbb9700365888002d58880061
:104070000030200060588800118480008100e90031
:1040800071588800f6cf54000f003a00020a07006a
:10409000108288000829ef0008fc2f0052348000ad
:1040a000820064000140a0005134880033fa070008
:1040b000a3682000930964000088a9002088a80054
:1040c00001eba8000b0037000088a9002088a80099
:1040d00001eba800f0cf540002003a0024cea90062
:1040e00008003700efcf540002003a0024cea800a9
:1040f00004003700f4cf540002003a00200ea9005b
:10410000240ea90013fa070015eea90018c0b30089
:1041100066093700b10907003df0b700de09070066
:1041200010828800800078003dd0bf0025f2070093
:1041300018c0b3005d093700a80907003df0b700bb
:104140006f40600013f0b700d3090700f0808800cb
:1041500000352c00508488003dd0bf000080fb005b
:104160004400de000081880018c0b3004f0937000a
:104170007ed0bf0065090700008080006a09070043
:1041800018c0b30049093700940907003cf0b70094
:10419000920907003df0b700804078003cd0bf0096
:1041a0008bf7070018c0b300400937008b090700e0
:1041b0003cf0b70094f7070018c0b3003b09370084
:1041c000860907003cf0b7000041eb0031c0b300a6
:1041d000014078000cfb07003cd0bf0014fc070036
:1041e0005109070018c0b300300937007b090700e8
:1041f0003cf0b70085fb07004b09070018c0b3006f
:104200002a093700240ea900200ea8007309070010
:104210003df0b700a0090700108288009e09070042
:104220008004780029828800108280000080440089
:1042300018c0b300808f54001c093100080a210007
:10424000d1032100914078008180fb001084800020
:104250008088b90000804400000040000000440055
:1042600010007800300907008904e80020828000ef
:104270004210b400890f5000f1ff3e0018c0b30097
:104280000a093700e3cf54001b00320005003e004e
:10429000e1cf540008003200e2cf5400f6083a00a3
:1042a0000f003700e4cf540008003200e5cf54007f
:1042b000f1083a0016003700480907003cf0b70043
:1042c0008040eb000cf70700e7fd370043090700cb
:1042d0003cf0b70011c0b30007f70700e2fd37005c
:1042e0003e0907003df0b700e8f6070007090700a0
:1042f00018c0b300ed083700670907002082880066
:10430000f0f607000809070018c0b300e7083700f7
:10431000320907003df0b700e74060000143780034
:1043200064072100064a78000080fb00c300de001d
:10433000e3c06000814178008200210003497800d9
:10434000c500de00e1c06000014378007407210071
:10435000064a7800c600de00e1c0600081417800b6
:1043600092002100034978004700de0078f0b70092
:104370008af6070018c0b300cc0837000980fb009c
:104380008000eb0061005000e080580018c0b300ce
:10439000ef0f5000e08f5800c2083e0000060100f9
:1043a0000f003700230037001c00370031003700b2
:1043b000430037003c0037001b003700290037005e
:1043c000450037004b0037004e00370072003700c1
:1043d000860037008f0037009100370088003700d3
:1043e00010c0b300f20a0700300a0700fb080700fc
:1043f0003cf0b700a60a0700c8108000c01080007b
:104400004f44de004444dd004500de000002b200ff
:10441000004474000804a000a2083700370a07000f
:1044200018c0b300a1083700860a070018c0b300ff
:104430009e083700e90807003df0b700940a07001e
:10444000c8108000c01080004f44de004444dd00ee
:104450004500de000002b200004474000804a00021
:1044600090083700dd0807003df0b700880a070014
:104470007dfd3700350a0700d80807003cf0b7007b
:10448000830a0700c8108000c01080004f44de007f
:104490004444dd004500de000002b2000044740028
:1044a0000804a0007f08370010c0b300900a07007e
:1044b0003cf0b7009508070018c0b3007b08370030
:1044c0000040eb008a0a07003cf0b7008f080700a5
:1044d00018c0b30075083700ef080700f0848800a3
:1044e0009c70ef0010c0b300b10a070018c0b30001
:1044f0006e083700c01080008b08070018c0b3009a
:104500006a083700b50807003cf0b700b308070099
:1045100070f0b700b10807003df0b700e3090700ed
:104520003cd0bf0000404000590a070070d0bf00d7
:10453000570a0700050a07003cd0bf0000404000b2
:104540000004a000520a07003dd0bf00e14f500018
:104550000b0032000004eb0019c0b30009407800e2
:10456000630a0700690807000804e8003dd0bf009f
:104570000080fb000000e900880f5000f7ff3e00bc
:104580000040eb005a0a070060080700db0907003b
:1045900018c0b30045083700900807003cf0b7008a
:1045a0008e0807003df0b700c00907003cd0bf00ef
:1045b00000404000360a07003d50e200080032008b
:1045c0000004eb0085080700310a07000804e80032
:1045d0003dd0bf000080fb00880f5000f9ff3e0077
:1045e000c609070018c0b300300837001822ef00d2
:1045f0001702a80017e2a80018c0b3002b08370064
:104600001822ef001702a90017e2a80018c0b30093
:10461000260837009309070018c0b30023083700a5
:104620009d08070010828800108ea900148ea90032
:1046300081490700148ea800108ea80018c0b3008e
:104640001a083700e4cf54002100320005003e0074
:10465000e1cf54000a003200e2cf540008083a00cb
:104660000c003700e7cf540012003200e8cf5400ae
:1046700013003200e6cf540001083a000a00370068
:10468000560807003df0b700cb08070018c0b3007c
:10469000060837008008070020828800cd08070040
:1046a00018c0b30001083700aa0807001708070060
:1046b000edfc3700b50807001b080700eafc3700cf
:1046c000901180006140600010080700e6fc370090
:1046d00071080700108288007a08070018c0b3002c
:1046e000f2073700e1cf54000400320018c0b300d5
:1046f000e2cf5400eb073a001b003700000920000e
:10470000a010880010c0b300290a07003308070072
:104710003cf0b700310807003df0b7005e08070025
:1047200010828800610907003cd0bf00d80907004b
:104730003dd0bf00004040000064a000d409070045
:10474000108280004800de00d109070042d0bf007f
:10475000cf090700690907006000200036490700fb
:1047600018c0b300d10737001c0807003cf0b700a1
:104770001a0807003df0b7004708070010828800bc
:10478000e907070018c0b300c8073700e9cf540095
:10479000290032000b003e00e4cf54007c003200c0
:1047a00003003e00e3cf5400b7073a006c00370027
:1047b000e7cf540082003200e8cf5400b2073a003d
:1047c0009e003700eecf54001200320003003e007e
:1047d000edcf5400ac073a0005003700efcf54008e
:1047e00027003200f0cf5400a7073a0040003700fe
:1047f000fa0707003df0b70027080700108288007d
:10480000d1032100914078003af6070018c0b300a8
:10481000a6073700f10707003df0b7001e080700a4
:1048200010828800d10321009140780086f60700ad
:1048300018c0b3009d07370017080700d084880010
:1048400015080700408288001308070010828800be
:104850001108070020828800e00707003df0b7003c
:104860000042780023828000128280004182800012
:10487000d0848000c8f6070018c0b3008b0737004b
:104880004230ef000004eb0029632600fa1f2000ed
:10489000010807000804440088804400800878006c
:1048a000188280000804e800188288008a0f5400eb
:1048b000f7ff36004230ef000004eb0029e326004a
:1048c000c607070008044400888044000000fb007d
:1048d00080087800188280000804e80018828800a8
:1048e000ff0f5400f6ff360018c0b3006f07370003
:1048f0004230ef000004eb0029a32600fa1f20003d
:10490000e507070008044400888044008008780018
:10491000188280000804e800188288008a0f54007a
:10492000f7ff36004230ef000004eb0029e72600d5
:10493000aa07070008044400888044000000fb0028
:1049400080087800188280000804e8001882880037
:10495000ff0f5400f6ff360018c0b30053073700ae
:10496000cd07070010828800cb070700208288004f
:104970009a0707003df0b7000041780021828000cf
:1049800010828000c0f5070018c0b3004707370049
:10499000c107070010828800bf0707002082880037
:1049a0008e0707003df0b7000041780021828000ab
:1049b0001082800010f7070018c0b3003b073700d3
:1049c000b507070010828800b3070700208288001f
:1049d000b1070700d0848800af0707004082880035
:1049e000ad07070050828800ab070700608288008f
:1049f000a907070070828800a70707008082880047
:104a0000760707003df0b700801f7800878280009e
:104a1000768280006582800054828000438280001c
:104a2000d284800021828000108280003ff707003e
:104a30008f87e90018c0b3001c073700670707001d
:104a40003cf0b700650707003df0b70080407800f4
:104a50003cd0bf0002f7070018c0b30013073700af
:104a600018c0b300e1cf54000e073a005b070700ff
:104a70000000fb00108288000048a3000300320001
:104a800001fc2f00a4682000148a60000058a300d5
:104a900003003200f10f2c00a6682000168b600086
:104aa0000068a3000300320001fc2f00c268200050
:104ab000128960000078a30003003200f10f2c007f
:104ac000c36820009389600080007800010fb20065
:104ad000c208dd008180ea0024718000810062004c
:104ae000217188006f0060004600dd00242eb700b1
:104af00018c0b300ed06370018c0b300e2cf540071
:104b0000e8063a00907080004a00de006f406000c6
:104b1000fe06070018c0b300e40637000980fb005a
:104b20008000eb0061005000e0805800f00f500062
:104b3000e08f5800d6063e00000601001000370046
:104b4000d3063700d2063700c20037002b013700ea
:104b5000c9013700ce063700440237002102370072
:104b6000cb0637000f0237003000370083003700d4
:104b7000b4003700f2003700890137000602370021
:104b80000028a900440707001082880013070700c7
:104b90003df0b700110707003cf0b700d10321003a
:104ba0009140780063c16000c208de00e7806000c9
:104bb0006f40600096ef07000028ab0008003a0045
:104bc000108280004e01e300050031000060fe000d
:104bd0000028ab0002003a004e01e300fbff390061
:104be0000028a900700a8000cf0607003dd0bf0052
:104bf000630060000a0032000004eb00200a80001d
:104c0000c9060700600a8000c70607000804e8001c
:104c10003dd0bf0063006000880f5000f7ff3e00ea
:104c2000b0f3070018c0b300a00637001a0707004a
:104c300010828800e90607003cf0b700e70607008d
:104c40003df0b700e5060700004278001607210096
:104c5000044b7800d2032100124178003cd0bf0001
:104c60008482fb00c311de00674161008080fb008d
:104c7000c408de006f406000c42ade006f4262009c
:104c8000e7c1610028f007003dd0bf000068a30025
:104c90000900320001fc2f00a26820001289600088
:104ca0000000d1000004b200217180000160a10069
:104cb00081007000217188001082800001022000b4
:104cc000010037000060fe000028ab000800320041
:104cd00023408000038160000500320071d0bf00d6
:104ce0006f0060000004eb0004003a000c00370085
:104cf0004e01e300f3ff3900f8ff3700200a80007f
:104d000089060700600a8000870607000804e8009b
:104d100071d0bf006f006000880f5000f7ff3e00a9
:104d200071d0bf000080fb004400de000b003200a9
:104d30000004eb00a00a80007b060700e00a800068
:104d4000790607000804e80071d0bf000080fb006e
:104d50004400de00880f5000f6ff3e0004a8a900c2
:104d60000028a900700a80006f0607005df30700a5
:104d700011e1a90018c0b3004c063700c6060700b1
:104d800010828800950607003cf0b70093060700e4
:104d90003df0b700c403210014427800c301de00d7
:104da000674160008480fb00c408de006f40620041
:104db000e7c1610059ef07000028ab0008003a0086
:104dc000108280004e01e300050031000060fe000b
:104dd0000028ab0002003a004e01e300fbff39005f
:104de000200a800050060700600a80004e06070077
:104df00004a8ab000a003a00108280004e01e300d4
:104e000007003100010220000060fe002440800005
:104e10000481600002003a004e01e300faff39000d
:104e2000a00a800040060700e00a80003e06070056
:104e3000700a80003c0607002af3070018c0b30080
:104e40001a063700650607007df0b70018c0b300ea
:104e50001606370090060700108288005f060700dc
:104e60003df0b7005d06070070f0b700d1032100e8
:104e7000914078000181fb000208a3001c00320071
:104e80000218a30002003200c248a8000100370047
:104e9000c248a9007c70ef008180fb00c408de00de
:104ea00022eb260081004100914078000174a100ae
:104eb000f107b20002f82f001635800006016100ec
:104ec00002817000123588006f4160008080fb0015
:104ed000c408de008041eb00108280003ff0070034
:104ee00003a8a90023a8a80018c0b300ef05370045
:104ef0006f4160008080fb00c408de008041eb0051
:104f00001082800035f0070091708000025480000c
:104f10004311de0061416100ca08de00efc060009d
:104f2000400020000010dd0000c070000af0b70053
:104f300042c1a8004ac1a80018c0b300db05370071
:104f400004c8a9000c0078005228b70024c8a900a2
:104f50005106070010828800200607003df0b700c8
:104f60001e0607003cf0b700e70060000e003200ac
:104f7000d1032100914078006fc160008180fb0067
:104f8000c408de00804178001082800013f0070022
:104f900004c8a9000c0078005228b70024c8a80053
:104fa00018c0b300c10537003dd0bf006f4160009d
:104fb0008080fb00c408de008041eb00108280008e
:104fc00006f0070091708000025480004311de005b
:104fd00061416100ca08de00efc0600040002000af
:104fe0000010dd0000c070000af0b7004ac1a80040
:104ff00042c1a80018c0b300ac0537002606070060
:1050000010828800f50507003df0b700f3050700a2
:1050100070f0b700f10507003cf0b70000417800e0
:1050200001072100914078001082800071f0070094
:105030003dd0bf008080fb000108a3001b003200b0
:105040000118a30002003200c248a8000100370086
:10505000c248a9000080fb004400de0021eb2600ce
:1050600000804000104078000074a100f007b200fa
:1050700001f82f00123580008280600081007000ee
:1050800011358800c2032100124178000107210078
:10509000914078001082800056f0070003a8a90014
:1050a00023a8a80018c0b30080053700c203210060
:1050b00012417800010721009140780010828000a1
:1050c0004cf00700d100210091407800e78060009b
:1050d00080ff2f00030a800003016000028170003e
:1050e000020a8800e100210091407800e78060001a
:1050f000440a80000401600002817000420a8800b6
:10510000f100210091407800e7806000860a80006d
:105110000601600002817000820a880001012100fe
:1051200091407800e78060005801b6000080700070
:10513000c00a88009270800001548000c308de001d
:10514000e1c060004a11de006f41610040002000b4
:105150008008dd008140710081417800a2002100bb
:105160000349780042c1a80052c1a8004ac1a80062
:105170005ac1a80091708000025480004311de00e3
:1051800061416100ca08de00efc060000010dd0070
:1051900000c070000bf0b70018c0b3004305370023
:1051a000bd05070010828800bb050700208288002b
:1051b0008a0507003cf0b700e70060000c003200f1
:1051c000f1ff20002482800084806000004178008c
:1051d00010828000b5f0070004c8a9000c00780018
:1051e0005228b70024c8a80018c0b3002f05370004
:1051f000f1ff200022828000828060000041eb00ed
:1052000010828000a9f00700907080003ef0b70087
:105210009270800001548000c308de00e1c060008d
:105220004a11de006f416100400020008008dd006f
:105230008140710001427800a30021008449780078
:1052400042c1a8004ac1a80052c1a80091708000c4
:10525000025480004311de0061416100ca08de0093
:10526000efc060000010dd0000c070000bf0b70060
:1052700018c0b3000d0537008705070010828800ad
:105280008505070020828800540507003cf0b70020
:10529000520507003df0b7000a70ef00c20321007d
:1052a0001241780021828000108280003ff10700c7
:1052b0003dd0bf000080fb000008a3001a003200b0
:1052c0000018a3000400320012c0b300c600210081
:1052d000024b7800010037000c70ef007c70ef008b
:1052e0000028a30004003200194ea80014c0b30027
:1052f000c3072100844978000038a300020032006f
:10530000196ea8007c30a8000048a30002003200fb
:10531000198ea8007c50a8000268a9002268a80085
:1053200018c0b300e104370011e1a80092708000ba
:1053300001548000c308de00e1c060004a11de00b5
:105340006f416100400020008008dd008140710055
:1053500001417800a6002100024b780042c1a8005c
:105360004ac1a80052c1a8005ac1a800917080008b
:10537000025480004311de0061416100ca08de0072
:10538000efc060000010dd0000c070000bf0b7003f
:1053900018c0b300c5043700d2f1070018c0b3002d
:1053a000c20437000d007800df0407002058800099
:1053b000dd040700a0588000db04070020598000ae
:1053c000d9040700a0598000d70407000ad0bf0005
:1053d000ce0407000bd0bf00cc04070018c0b300f8
:1053e000b20437002c05070010828800fb04070078
:1053f0003df0b7004210e200190032000004eb005b
:10540000893821000a0a21004b9c20003dd0bf00b2
:105410000080fb008980b9000000440000004000cb
:105420000000450010007800bf0407003dd0bf0019
:105430000080fb008980b9000b004000080040009c
:10544000000040000000450010007800b60407008e
:105450000804e80013828000888f5100ebff3e00b3
:1054600015eea80018c0b300900437000a05070025
:1054700010828800d90407003df0b7004210e20016
:105480000f0032000004eb00499c20000a0a2100b2
:105490003dd0bf000080fb008980b90000004400bf
:1054a0000000400000004500100078009e04070046
:1054b0000804e80014828000880f5200f4ff3e00c8
:1054c00015eea80018c0b300780437000980fb006f
:1054d0008000eb0061005000e0805800fa0f50009f
:1054e000e08f58006c043e00000601001a003700ef
:1054f000500037009800370067043700bb003700c2
:105500006504370064043700c100370062003700cb
:10551000d500370000013700d0013700eb0137001c
:10552000f8013700fd013700170037003f01370051
:105530000b023700130237006f00370056043700a4
:105540007f01370016003700370037004900370069
:105550004d003700da003700a00407003df0b70027
:105560008080fb004709de00c508de00e3c0600064
:105570007f406000e5f60700208288006a0407008b
:1055800018c0b30049043700c30407002082880014
:1055900005f707006404070018c0b3004304370090
:1055a0008e0407003df0b7008c0407003cf0b70004
:1055b0003be3a900d1032100914078000181fb0069
:1055c0004711de004c11dd00d319800003c0a1009b
:1055d00083017100d31988004a00dd00f23f2000ea
:1055e000f61980000601610002017000f2198800be
:1055f000638060004800dd00f1cf2f00f2198000c9
:105600008280600081007000f11988003b03a900ce
:105610003be3a800803e2000874507003d03a8002b
:1056200018c0b30021043700f4ec070018c0b30021
:105630001e043700690407003df0b7006704070047
:105640003cf0b700940407002082880015eea90002
:1056500000017800c1032100914078003dd0bf00d7
:1056600024f607003004070015eea80018c0b300a8
:105670000e043700590407003cf0b70082f1070020
:1056800018c0b30009043700300880002604070062
:1056900018c0b3000504370015eea9004f04070039
:1056a0003df0b700c400de00e4c060006f40600061
