:020000040000fa
:08000000e01a040000000000fa
:020000040000fa
:1035c0008fbf26000eff27000e01880000000000bc
:1035d000000020000000e000020032000001200096
:1035e00020028800140007005f0307000000e000cd
:1035f00003003a00a02b2600010020000200370043
:103600000000200001002000810f70000100320046
:103610000f000700000020000000e0000200320060
:103620000000020000000000f61902000000000087
:103630000040da000000fe00a04c20000000e00086
:1036400002003200002020009001880000000600e7
:10365000a1028800800478000000eb001f00370002
:10366000e284440054a0b4009905ba00e284440006
:1036700054a0b4009906ba00e284440054a0b400f7
:103680000006eb00476fde00fd07b200ae018800c8
:10369000636ce10003003a000ad801000000eb006f
:1036a0000e003700606ce10008003a00004deb00ae
:1036b0000a05e800020039003420ec000af0a000fe
:1036c0008b05e900f9ff3e00040037006168e10066
:1036d000010032000086eb000b00070019c7ba009a
:1036e0000e04e0001905ba0003003a000a00e000e9
:1036f000dbff3a0000000600fe07b200ae028800c1
:103700008a047800f5ff37000cd0a300e20f4d00cb
:103710001c003b0089027800354dba000a05e8001c
:10372000020039003420ec000af0a0008b05e9000b
:103730000f003200254dba000a05e80002003900ea
:103740003420ec000af0a0008b05e90008003200ec
:103750000c00e0000600320015cdba000a05e800b2
:10376000020039003420ec000af0a0008b05e900cb
:103770008984e80054a0b4000b00e000e2ff3a00a6
:10378000000006009902ba00055d78008b05e9008b
:10379000f7ff3200c82ade00055d78008b05e900de
:1037a000f3ff32000c00e000f1ff320019ddba0037
:1037b000eeff37008a850400000000004686040002
:1037c00000000000768204000000000078820400ff
:1037d00000000000b699040000000000b899040041
:1037e0000000000086870400000000008e870400af
:1037f00000000000a6870400000000009e8704006f
:1038000000000000fc87040000000000f2870400b4
:103810000000000036880400000000001679040053
:10382000000000006479040000000000ba99040060
:10383000000000006c79040000000000968704007e
:1038400000000000e682040000000000068304007f
:103850000000000018830400000000000083040042
:10386000000000001283040000000000fa8204003f
:10387000000000000c83040000000000ce73040070
:1038800000000000ba73040000000000a6720400eb
:10389000000000009673040000000000987404000b
:1038a00000000000a0740400000000003c7304004d
:1038b00000000000b473040000000000287204003f
:1038c0000000000030720400000000004a74040090
:1038d000000000006e730400000000003672040057
:1038e0000000000046720400000000004e72040058
:1038f000000000003e720400000000003498040044
:1039000000000000ce6c040000000000206d0400e8
:1039100000000000726d040000000000486f040009
:10392000000000009e6b040000000000046a040018
:1039300000000000d86a0400000000008069040054
:1039400000000000c269040000000000a269040039
:1039500000000000e469040000000000168c040070
:10396000000000006a8c0400000000002e830400a8
:1039700000000000d88304000000000080840400e0
:10398000000000009e8d040000000000d68d0400a1
:1039900000000000fa770400000000009283040099
:1039a000000000003e84040000000000f0840400d9
:1039b00000000000047a040000000000ba7904004e
:1039c000000000009e96040000000000b69604006f
:1039d00000000000b099040000000000788d040091
:1039e00000000000448e040000000000ce96040099
:1039f00000000000d696040000000000807904005a
:103a000000000000ca96040000000000d27a040002
:103a100000000000a092040000000000e2920400f8
:103a200000000000ac8f040000000000fc8f0400c8
:103a3000000000001c8e04000000000094860400ba
:103a4000000000000880040000000000188004004e
:103a500000000000f0800400000000000881040065
:103a600000000000d87d040000000000e07c04009d
:103a700000000000c47e040000000000e495040083
:103a800000000000aa95040000000000809fbe0016
:103a9000829fbe000648a90018e2ab001f003a0052
:103aa000f08080008000eb00eb0f5000e08f5800aa
:103ab0000d00360050b826001048e8001642a80055
:103ac00000818000200090000000e0000200320031
:103ad00061002000010878001e30ef004f01be0099
:103ae0004f00be0000400600000601003200370013
:103af0002a00370068003700120037001e00370028
:103b000090003700a00037001b0037007900370015
:103b1000e8ff3700520037004400370018e2a900e0
:103b20001e30ef0000818000200090000008eb00b4
:103b30002030ef004f01be004f00be0000400600e5
:103b4000e9ff37001802e2009600350027d0bf00d9
:103b50008040e90073022100814978000004e00000
:103b6000dc003a00600020002430b4002250ed0058
:103b700022f0b70009003a001642a8000081800038
:103b8000200090000000e000d3ff32002100200060
:103b9000010878001e30ef00d0ff37001622a80081
:103ba00020002000f08088004f01be004f00be00c2
:103bb00000400600ccff370040b826001000780017
:103bc00062006000c5ff3a00105c8300008188003d
:103bd0001041780021022100824878009001900075
:103be0002381880066004000105c8b00c1b826006d
:103bf000810f50009a003200215c83000100a10077
:103c0000215c8b00025c8300800f51008e0032002b
:103c10001602a80020002000f08088004f01be009e
:103c20004f00be0000400600afff37001802e20060
:103c300074003d0050b826001048e8001642a80065
:103c400000818000200090000000e000a2ff320010
:103c500041002000010878001e30ef009fff370070
:103c60001802e200f3ff3500418180000100d1001d
:103c7000f00fb200901088000108a300810032000c
:103c8000b0002000f08088004f01be004f00be0051
:103c90000040060094ff370026d0bf00e14f5000df
:103ca0006600320021818000110078004081880088
:103cb000210190005281880021419000730221006f
:103cc00082497800f10f2000810f500073003e0000
:103cd000901088000008a3006a0032005000200005
:103ce000f08088004f01be004f00be00004006007b
:103cf0007dff3700811080005081800001587800de
:103d0000508188002750ed0027f0b70031003a00bd
:103d100016a2a800600020002430b4002250ed005c
:103d200022f0b70067003a0040002000f0808800d1
:103d30001682a8004f01be004f00be0000400600e2
:103d400069ff37001802e20027003d0050b8260046
:103d50001048e8001642a800008180002000900072
:103d60000000e0000200320041002000010878005d
:103d70001e30ef0019e2a9004f01be004f00be0047
:103d80000040060058ff370080002000f0808800c7
:103d90001662a8004f01be004f00be0000400600a2
:103da00051ff370050b826001048e80019e2a9007a
:103db0001642a80000818000200090000000e00072
:103dc00045ff320051002000010878001e30ef004e
:103dd00042ff370016a2a90060002000f080880092
:103de0001682a800d3ff37001662a80080002000ca
:103df000f08088004f01be004f00be00004006006a
:103e000039ff37001622a800408180004800de00fc
:103e100066006000100fb3004081880010c0b3003e
:103e200026f0b70020002000f08088004f01be007f
:103e30004f00be00004006002bff37002670ef0049
:103e4000408180009fff37000110a000215c8b00a3
:103e50001602a80020002000f08088006fff3700c5
:103e600060b82600105c8b00215c83000100a1007b
:103e7000215c8b00025c8300800f510064ff3a00dc
:103e8000f1ff370030002000f08088004f01be00b5
:103e90004f00be000040060013ff37004800de0060
:103ea00066006000000fb30090108800a0002000a2
:103eb000f08088004f01be004f00be0000400600a9
:103ec00009ff370010002000f08088001682a8004b
:103ed00098ff370050818000b080fb00911088006f
:103ee000508188004f01be004f00be000040060018
:103ef000fdfe37002602f8003402f9000168a9002f
:103f0000004006003602f8002402f90003c8a900a8
:103f1000004006003600f800809fbe00829fbe0071
:103f2000849fbe00869fbe008b2a070080ff2f0063
:103f30005821b60004c8a90024c8a900922a070085
:103f40004f03be004f02be004f01be004f00be0037
:103f50003600f90000400600809fbe00829fbe0030
:103f6000849fbe0001a8a9005650e20025003a0037
:103f7000a1708000cf08de000104a2008180fb0058
:103f8000cf08dd00a070800000f0a100008070006c
:103f9000a07088000050e2001e00320010808000f7
:103fa0000118800001187800108088000ad0bf0036
:103fb00010003200218080001218800082187800e2
:103fc00021808800e14f50000a00360031808000d7
:103fd000241880008418780031808800e24f500057
:103fe00004003200408080003518800005187800f9
:103ff000408088000c30ec00708080000c10e300e2
:10400000500032004f02be004f01be004f00be0004
:10401000004006008380800001002100914078006c
:1040200010c0b300f2342c00828f510030003600f3
:1040300000c0700000f0b700a08080009180800078
:104040000008de001030b40016d0bf000080fb0076
:104050000000400043fc2a0080804100910078006d
:1040600091027800c2808000a401210014427800ef
:1040700011c0b300828f52001500360084c070005a
:10408000a4012100014a78008040eb001a50e200b0
:1040900006003200008041001000780011c0b3001b
:1040a000900f5100010031008040eb000000210022
:1040b00090c0700002002100014978004f02be004c
:1040c0004f01be004f00be0000400600d1ff370088
:1040d0008040eb0084c07000a4012100014a7800f8
:1040e0008040eb001a50e200f0ff3200e9ff370099
:1040f0000040eb0000c0700000f0b700a08080001e
:10410000918080000008de001030b40016d0bf009f
:104110000080fb000000400043fc2a00808041003a
:104120009100780091027800c2808000a4012100f3
:104130001442780011c0b300828f5200cfff3e00be
:10414000e3ff370021a8a90010c0b30056f0b70064
:1041500015eea8004f02be004f01be004f00be008a
:1041600000400600abff37003600f800809fbe001d
:10417000829fbe00849fbe00869fbe004739070015
:104180003b39070001eba9000088a9002088a9009d
:10419000c0828000e10f500004003e00703907002b
:1041a00011eba90001c8a90021c8a9004f03be0056
:1041b0004f02be004f01be004f00be003600f900a6
:1041c000004006003600f800809fbe00829fbe00bf
:1041d000849fbe00869fbe006c39070060390700cf
:1041e00011eba90001c8a90021c8a9004f03be0016
:1041f0004f02be004f01be004f00be003600f90066
:10420000004006003600f800809fbe00829fbe007e
:10421000849fbe00869fbe00983907008c39070036
:104220000308a9004f03be004f02be004f01be00ad
:104230004f00be003600f900004006003600f800ce
:10424000809fbe00829fbe00849fbe00869fbe00ee
:10425000c6390700ba3907000488a9004f03be0019
:104260004f02be004f01be004f00be003600f900f5
:10427000004006003600f800809fbe00829fbe000e
:10428000849fbe00869fbe00889fbe0099708000fc
:10429000ec30070000447800ee300700ca4cde0026
:1042a000088464000804ea004f44de000080fb003c
:1042b000800f5400080032000268a9004f04be00bd
:1042c0004f03be004f02be004f01be004f00be00b4
:1042d0003600f90000400600194ea900196ea90029
:1042e000198ea90019aea9002268a9000a3c07008e
:1042f0009929070099330700a32907000268a9003c
:104300004f04be004f03be004f02be004f01be006f
:104310004f00be003600f90000400600eeff3700f7
:104320003600f800809fbe00829fbe00849fbe00c2
:10433000869fbe008829070088330700922907005e
:1043400003a8a90023a8a9004f03be004f02be0086
:104350004f01be004f00be003600f90000400600cd
:104360000040da000000fe00000005006022b800f6
:10437000060220000000d0008180d2000482d2001a
:104380008582d2000000a0000202520083825a00ff
:10439000030031000202420083824a000000a100b3
:1043a0000603e900f3ff3a0000000600889fbe0004
:1043b0008a9fbe0030044200b0844a0030054b00a2
:1043c00090854b006000b1000898be000a90be00c6
:1043d0000440e10005c8e10006d0e10007d8e10093
:1043e00002003100680040001008e8004f05be00e0
:1043f0004f04be0000000600889fbe008a9fbe00da
:10440000100478009004900020059000b005900002
:104410000418540005985c0006185d0007985d00bc
:10442000110020000440e10005c8e10006d0e100d1
:1044300007d8e100010039008000eb00108810006f
:104440004f05be004f04be0000000600f487470081
:10445000889fbe008a9fbe008c9fbe008e1f780082
:10446000d0b79f00e1b79f00f2b79f0083bf9f00c6
:104470000605be000404be00cfae97000000eb00ae
:10448000c0b79f00b0b79f00a0b79f0090b79f0034
:1044900080b79f00000678004fb0970000014000f1
:1044a0000000e00006003d003c0007000f07470049
:1044b000450007000f004000bcff07000500370063
:1044c000360007000f0747003f0007000f004000bd
:1044d000c9ff07004fb797000e00e0000c00350041
:1044e0005fb29700efb297007fb397008fbb970042
:1044f00010002000010020006011b80000027200ce
:104500008182720002037300838373001c00070022
:104510000c06e80001042000810f5600deff3a007f
:104520000e00e00005003d000802be000a03be00c8
:1045300000fe2f000f0040009cff07000d00e00070
:1045400005003a000fb297009fb297002fb3970073
:10455000bfb397000a0007005fb09700efb0970065
:104560007fb197008fb997004f0778004f06be00c4
:104570004f05be004f04be004f01b1000000060011
:10458000010007000000060094b79f00a5b79f0038
:10459000b6b79f00c7b79f00000006009fb0970006
:1045a0004f08de0002017000a2b79f000fb0970015
:1045b0004f01de00818040008100710091b79f00b3
:1045c0000efe2f0000000600de0078004f09de001e
:1045d000000040000000710080b79f006fa89700a6
:1045e0004f01de0081804000010f71000e000700c6
:1045f0004f3ade000000400004007000e0af9f0072
:10460000090007000402420085824a0006034b00ad
:1046100087834b00dcff07000802be000a03be00d0
:1046200000fe2f00000006001fb29700afb29700f7
:104630003fb39700cfb3970000000600881f7800b3
:1046400018002000881f780080ff07008f87e9008e
:104650004f04780000000600801feb007bff07007e
:104660008f87e90000000600889fbe008a9fbe0079
:10467000e00f5000e08f5800e00f5900e08f590024
:104680000c003d006044b8006055b80000005400c4
:1046900081805c0002015d0083815d0018002000c4
:1046a0001500070008003d00180007000004eb009b
:1046b000050037000004eb000f00070002003d007a
:1046c0001200070018002000dcff07000800e000cf
:1046d000060032006022b8006033b80000005200cb
:1046e00081805a0002015b0083815b004f05be00a0
:1046f0004f04be0000000600e00f5200e08f5a0099
:10470000e00f5b00e08f5b00000006006044b80033
:104710006055b8000402540085825c0006035d0009
:1047200087835d0000000600889fbe008a9fbe0050
:104730008c1f7800e00f5000e08f5800e00f590008
:10474000e08f59000d003d006044b8006055b8008e
:104750000000540081805c0002015d0083815d00e7
:104760001c0020000820e10009a8e1000ab0e100d7
:104770000bb8e1000d003d00080037000006eb001b
:10478000e00f5200e08f5a00e00f5b00e08f5b000b
:1047900006003d006044b8006055b80004025400b3
:1047a00085825c0006035d0087835d00aaff070029
:1047b0000c00e000060032006022b8006033b80050
:1047c0000000520081805a0002015b0083815b007f
:1047d0004f0678004f05be004f04be0000000600e3
:1047e000889fbe008a9fbe008c1f78000006eb00e9
:1047f000e00f5000e08f5800e00f5900e08f5900a3
:1048000007003d006044b8006055b8000000540047
:1048100081805c0002015d0083815d001c0020003e
:10482000e00f5200e08f5a00e00f5b00e08f5b006a
:1048300007003d006044b8006055b8000402540011
:1048400085825c0006035d0087835d000c00a2008a
:104850000c0007000c00e000060032006022b800e7
:104860006033b8000000520081805a0002015b00f2
:1048700083815b004f0678004f05be004f04be00e9
:1048800000000600889fbe008a9fbe008c9fbe006d
:104890000404b8000506b8008904460060854e008f
:1048a0000606b8000a054600e0854e000706b80077
:1048b0008b054600040eb800890446000a854e00a8
:1048c000e0854d00050eb8000a0546008b854e00b8
:1048d000060eb8008b0546000416b8000a0546000f
:1048e0008b854e000516b8008b054600041eb800e7
:1048f0008b0546000800be000a01be004f06be0040
:104900004f05be004f04be0000000600889fbe0099
:104910008a9fbe00800478000200e0005a00320046
:1049200001407800814c780082814400f1f99f00b9
:10493000e20f51005400360091449800a1449800c1
:10494000e1f99f00d1f99f00e60f51004e003600bb
:10495000b1449800c1f99f00e80f51004a003600a9
:104960000905ea00630565000a8444000a05510050
:10497000c1ff2f00010565000080fb008000eb00f7
:10498000121020001310200021030700008cbe002d
:104990000a01440060b99f0071b99f00e80f5500fb
:1049a0003900360020049800310498004004980033
:1049b0005104980020b99f0031b99f0040b99f0071
:1049c00051b99f00f80f55002f0036006004980081
:1049d00071049800000c9800110c9800200c9800ad
:1049e000310c9800400c9800510c980020b19f00a9
:1049f00031b19f0040b19f0051b19f0060b19f0055
:104a000071b19f0000b99f0011b99f00640164005b
:104a10007801410002044400020555006011b8000d
:104a20000203be000002be000403be006022b80004
:104a300000007200818072000201730083817300a4
:104a40000f00370008027800009abe00029abe00ec
:104a5000009abe000292be00000c9800110c980053
:104a6000220c9800330c9800400c9800510c9800d0
:104a7000620c9800730c98000a02b1000802b000a2
:104a8000ff0f5500efff3e00090078004f05be0004
:104a90004f04be000000060081b926002800370040
:104aa0001800fa00889fbe008a1f78000005780071
:104ab0000a007800990107000203be000002be0050
:104ac0000004be006011b8000400e1000588e100a8
:104ad0000690e1000798e10010003a000002eb00a8
:104ae00094bf9f006022b800a4bf9f00b5bf9f0085
:104af000e4be2600c4bf9f007e8257002900070045
:104b00000000e00005003500fe8257000b000900a0
:104b1000351d78008a01b10004003700b004200080
:104b2000b05f8b000084eb008084eb000800be00c7
:104b30004f0578004f04be000080fa000000060018
:104b4000881f78000104780010027800900290001d
:104b50006033b8000400be000601be000802780001
:104b6000100007000000e00004003d00b004200039
:104b7000b05f8b000004eb000700370070004400ba
:104b80000008eb006033b800160c9800270c980062
:104b900020bf2600300c9800080078004f047800f1
:104ba000000006006f02b000889fbe008a9fbe0012
:104bb0008c9fbe008e1f7800b0b79f00c1b79f00ca
:104bc000d2b79f00e3b79f000407780008002000d9
:104bd000092824001a0f20000b00200008044000c0
:104be000898448000a0549008b8549000086eb004e
:104bf00004b02700d5312800261e20000700200021
:104c00000440e10005c8e10006d0e10007d8e1005a
:104c10003b013e0008282a0039742c00faff2f00bf
:104c2000fbff2f0008044000898448000a05490062
:104c30008b85490004182500150020006033b8005a
:104c40000800be000a01be0087fe0700b0b79f0043
:104c5000c1b79f00d2b79f00e3b79f00041825009b
:104c6000150020006033b8000800be000a01be0035
:104c7000adfe07000004be00e00f5000e08f5800ba
:104c800010003d000018250011002000080440001d
:104c9000898448003fb09700cfb097005fb197007c
:104ca000efb1970061005000e080580060015900aa
:104cb000e0815900b0b79f00c1b79f00d2b79f00f5
:104cc000e3b79f003fb29700cfb297005fb3970062
:104cd000efb3970063004200e0804a0060014b00a0
:104ce000e0814b0074002000050020006033b80014
:104cf0008dfe070080027800c5af9f000500e00030
:104d000002003d00e7824200c5af9f0014ab2300c4
:104d1000250020006033b8003fb09700cfb0970067
:104d20005fb19700efb197004ffe0700f0af9f0013
:104d300081b79f0014ab2300250020006033b8002a
:104d40003fb09700cfb097005fb19700efb19700e9
:104d500075fe07000006be00e00f5000e08f58000f
:104d60000a003d0010ab2300210020000c0640008b
:104d70008d8648007fad97008fb59700610555007f
:104d8000e0855d00faaf9f008bb79f00c2ea280064
:104d9000030020000c00be00fc0107000005be005f
:104da000e40f5000e08f580002003a003a00200063
:104db0000b00200042152700f3ff2f000a00be0061
:104dc000130207000006460081864e00525b200059
:104dd000030020000c00be00ec0107000002be0032
:104de000f90f5000e08f580002003a0084012000c3
:104df00005002000b2a42f00f3ff2f000400be0026
:104e0000f4b79f0085bf9f00010207000001460024
:104e100081814e00b2b79f00c3b79f00d216200019
:104e2000030020003fb09700cfb09700d7010700e4
:104e30000006be007fb297008fba9700e40f5000c3
:104e4000e08f580002003a003c0020000d002000d6
:104e500032e92f00f3ff2f000c00be00f4b79f00d3
:104e600085bf9f00ea0107003fb39700cfb39700cb
:104e70000003430081834b00d6af9f00e7af9f0044
:104e80000000eb007fb297008fba9700e00f56004a
:104e9000e08f5e0009003a0010002000e00f520091
:104ea000e08f5a0005003a000a80750000f0a70064
:104eb0000000ea000000e9004f00de00dfa89700d4
:104ec000b103b00080804000b1af9f00c116200048
:104ed00080804000bfab9700878f500004003d00ea
:104ee0000080530031e92f0081004000b1af9f00e6
:104ef00092012000030020000a00be00f4b79f00ca
:104f000085bf9f00c20107007fb297008fba97004c
:104f100004024000858248004228dd00ce20de00e9
:104f2000810070004220dd000c0640008d864800a4
:104f30000c02be004fabde0086037800f4a79f0092
:104f400085af9f0096af9f00a7af9f007fab9700f4
:104f50008fb397000600be004f89de008201780003
:104f600004192000050020006033b8001cfe070073
:104f70007fa297008faa97001fab9700afab970057
:104f80000002420081824a0002034b0083834b00ef
:104f9000b4b79f00c5b79f00d6b79f00e7b79f0083
:104fa00090bd26000005eb005fa99700efa99700d0
:104fb0008a00780003003700040151008581590000
:104fc0008100e8005002fb00cfa2de00820f5200f9
:104fd000838f5a00f8ff3400d2af9f00e3af9f00e9
:104fe00001057800e90f55000d0034006c055500ef
:104ff0003fb09700cfb097005fb19700efb1970037
:1050000061004000e080480060014900e081490003
:10501000b0b79f00c1b79f00d2b79f00e3b79f0012
:105020003fb29700cfb297005fb39700efb39700fe
:1050300040062800010020006011b8000002420074
:1050400081824a0002034b0083834b00f4af9f0030
:1050500085b79f0096b79f00a7b79f000086eb001b
:10506000f0ff2f00010020006011b8000020e100d7
:1050700001a8e10002b0e10003b8e10020003e0019
:105080006a004700bfb09700420620000288400037
:10509000680047000a88e80066004700dfa997001b
:1050a0000308e8004faa970064079800bfaa97007a
:1050b0007507980002e12000030020000800be00f0
:1050c0003201070020079800c203200003002000df
:1050d0000800be002d010700c203200003002000cd
:1050e0003901070010079800c203200003002000c8
:1050f0000800be0034010700000f78000006eb0036
:105100000c0078004f0778004f06be004f05be0028
:105110004f04be006f02b100000006001a00fa0042
:10512000889fbe008a1f7800000578005a00900012
:105130006102b900612bb900d4b79f00e5b79f00a9
:10514000f6b79f0087bf9f004a049000eb0f540002
:1051500016003600c4002000110009000404d80025
:1051600001047800000278000800e00002003d0021
:105170000402e9006c0444005fb09700efb09700b0
:105180007fb197008fb99700cfa2de0000004200e8
:1051900081804a0002814a0083814a00d0b79f0083
:1051a000e1b79f00f2b79f0083bf9f0004fe2f006e
:1051b0000f0242005fb09700efb097007fb19700f9
:1051c0008fb997006800070090b79f00a1b79f00b4
:1051d000b2b79f00c3b79f008fb097000800780058
:1051e000520007000004be002a009000cf80de00bd
:1051f0006109b90004e12000050020006033b80017
:1052000077fd0700d0b79f00e1b79f00f2b79f007e
:1052100083bf9f001a009000cf80de006109b900b3
:10522000c4032000050020006033b8006cfd0700b7
:105230005fb29700efb297007fb397008fbb9700e4
:105240000002420081824a0002034b0083834b002c
:1052500094bf9f00a5bf9f00b6bf9f00c7bf9f0020
:105260001a007800cf80de000402400085824800ea
:105270000683480087834800d4b79f00e5b79f00a6
:10528000f6b79f0087bf9f003a0090000000e9003a
:10529000cf80de006109b900041825001500200048
:1052a0006033b8004efd07005fb29700efb2970081
:1052b0007fb397008fbb97000002420081824a00b3
:1052c00002034b0083834b0094bf9f00a5bf9f0048
:1052d000b6bf9f00c7bf9f001fb09700afb0970039
:1052e0003fb19700cfb197000000420081804a0093
:1052f00002014b0083814b00d0b79f00e1b79f00b4
:10530000f2b79f0083bf9f004fcdde000000440036
:1053100081804c0002014d0083014d004f05780053
:105320004f04be000080fa00000006000001be002d
:105330004210dd0001b52600008040009000900082
:10534000100078000300e00006003200e10f510079
:105350000400340002182500130020000000410062
:105360008180490000000600e4874700889fbe0056
:105370008a9fbe008c9fbe008e1f78000205be0073
:105380000004be0004077800a008200001002000ef
:105390006011b8000040e10001c8e10002d0e10066
:1053a00003d8e1001e003c00c1fb2f0088804000b4
:1053b0004288de00e380600006003a000000e90059
:1053c0000e00e0000600320011002000010f7800fe
:1053d000030037000e00e00001003200000feb0078
:1053e000cf80de000218250013002000880007008f
:1053f0000006be00a0fb2f0008004000cf80de00aa
:1054000002382300131e2000810007000c0040001a
:105410008d8048004f89de008201780055003700fa
:105420000e00e00002003a008ebf9f007087570018
:10543000cdf92f00888646000219200011000900ce
:105440008206d800800678000800be000a01be006f
:105450004006b1000180b1000280b1000380b100bc
:1054600004192000050020006033b800aefc0700de
:105470000000e00005003a0010002000000f780056
:105480008000eb00010678001c003700710c200042
:10549000810f500009003400b1122000810f50002c
:1054a00003003400c012b1003c00200009003700a6
:1054b000800cb1002c002000060037000006eb0035
:1054c00031062000810f5000070034004006b10073
:1054d0001c0020000000e00003003a00000f7800ec
:1054e0008000eb0005003700c200de0063006000b2
:1054f0000000e9004f00de00000f780010062000d9
:1055000080e8b9001e075000010747000438230057
:10551000151e20006033b8000800be000a01be005e
:10552000affc07000870270069c72700faff2f00ab
:10553000fbff2f0008044000898448000a05490049
:105540008b854900f860b90000004700cf80de007d
:105550006109b90004182500150020006033b80067
:105560009ffc07000000440081804c0002014d00b8
:1055700083814d004f0778004f06be004f05be00e7
:105580004f04be004f00b10000000600839f68007a
:105590000100e00002003d0060001000e080180003
:1055a0000300e00002003d0060011100e0811900ed
:1055b0006efb07004f00e00002003b00600010009f
:1055c000e080180000000600811f78000100e00064
:1055d00002003d0060001000e08018000300e000c1
:1055e00002003d0060011100e08119000500070084
:1055f0004f00e00002003b0060001000e080180057
:105600000000060059fb07000400be000000060071
:10561000020ab900001bb9000200b8008100420074
:085620008100430000000600b8
:020000040000fa
:020000040005f5
:045ff400ffffff00ac
:020000040000fa
:10000800041a0000081a00000c1a0000101a000058
:10001800141a0000181a00001c1a0000001a000028
:10002800201a0000241a0000281a00002c1a0000c8
:10003800301a0000341a0000381a00003c1a000078
:10004800401a0000441a0000481a00004c1a000028
:10005800501a0000541a0000581a0000001a000034
:100068005c1a0000601a0000641a0000681a000098
:100078006c1a0000001a0000001a0000001a0000a4
:10008800701a0000741a0000781a00007c1a000028
:10009800801a0000841a0000881a00008c1a0000d8
:1000a800901a0000941a0000001a0000001a0000bc
:1000b800981a00009c1a0000a01a0000001a0000fc
:1000c800001a0000001a0000001a0000001a0000c0
:1000d800001a0000001a0000001a0000001a0000b0
:1000e800001a0000a41a0000a81a0000001a000054
:1000f800001a0000001a0000001a0000001a000090
:10010800001a0000001a0000ac1a0000001a0000d3
:10011800001a0000001a0000001a0000001a00006f
:10012800001a0000b01a0000b41a0000b81a000043
:10013800001a0000001a0000001a0000001a00004f
:10014800001a0000001a0000001a0000001a00003f
:10015800001a0000bc1a0000001a0000001a000073
:10016800001a0000001a0000001a0000001a00001f
:10017800001a0000001a0000001a0000001a00000f
:10018800001a0000001a0000001a0000001a0000ff
:10019800001a0000001a0000001a0000001a0000ef
:1001a800001a0000001a0000001a0000001a0000df
:1001b800001a0000001a0000001a0000001a0000cf
:1001c800001a0000001a0000001a0000001a0000bf
:1001d800001a0000001a0000001a0000001a0000af
:1001e800001a0000001a0000001a0000001a00009f
:1001f800001a0000001a0000001a0000001a00008f
:10020800001a0000001a0000001a0000001a00007e
:10021800001a0000001a0000001a0000001a00006e
:10022800001a0000001a0000001a0000001a00005e
:10023800001a0000001a0000001a0000001a00004e
:10024800001a0000001a0000001a0000001a00003e
:10025800001a0000001a0000c01a0000c41a0000aa
:10026800001a0000c81a0000cc1a0000d01a0000ba
:10027800d41a0000d81a0000dc1a0000001a000086
:10028800001a0000001a0000001a0000001a0000fe
:10029800001a0000001a0000001a0000001a0000ee
:1002a800001a0000001a0000001a0000001a0000de
:1002b800001a0000001a0000001a0000001a0000ce
:1002c800001a0000001a0000001a0000001a0000be
:1002d800001a0000001a0000001a0000001a0000ae
:1002e800001a0000001a0000001a0000001a00009e
:1002f800001a0000001a0000001a0000001a00008e
:10030800001a0000001a0000001a0000001a00007d
:10031800001a0000001a0000001a0000001a00006d
:10032800001a0000001a0000001a0000001a00005d
:10033800001a0000001a0000001a0000001a00004d
:10034800001a0000001a0000001a0000001a00003d
:10035800001a0000001a0000001a0000001a00002d
:10036800001a0000001a0000001a0000001a00001d
:10037800001a0000001a0000001a0000001a00000d
:10038800001a0000001a0000001a0000001a0000fd
:10039800001a0000001a0000001a0000001a0000ed
:1003a800001a0000001a0000001a0000001a0000dd
:1003b800001a0000001a0000001a0000001a0000cd
:1003c800001a0000001a0000001a0000001a0000bd
:1003d800001a0000001a0000001a0000001a0000ad
:1003e800001a0000001a0000001a0000001a00009d
:0803f800001a0000001a0000c9
:020000040000fa
:08340000b021040000000000ef
:020000040000fa
:08340800001a0400000000009e
:020000040000fa
:08341000001a04000000000096
:020000040000fa
:08341800001a0400000000008e
:020000040000fa
:08342000001a04000000000086
:020000040000fa
:08342800001a0400000000007e
:020000040000fa
:08343000001a04000000000076
:020000040000fa
:08343800001a0400000000006e
:020000040000fa
:08344000001a04000000000066
:020000040000fa
:08344800001a0400000000005e
:020000040000fa
:08345000001a04000000000056
:020000040000fa
:08345800001a0400000000004e
:020000040000fa
:08346000b4200400000000008c
:020000040000fa
:08346800001a0400000000003e
:020000040000fa
:08347000001a04000000000036
:020000040000fa
:08347800001a0400000000002e
:020000040000fa
:08348000001a04000000000026
:020000040000fa
:08348800001a0400000000001e
:020000040000fa
:08349000001a04000000000016
:020000040000fa
:083498007a1f0400000000008f
:020000040000fa
:0834a000001a04000000000006
:020000040000fa
:0834a800ac1f0400000000004d
:020000040000fa
:0834b000e2200400000000000e
:020000040000fa
:0834b800001a040000000000ee
:020000040000fa
:0834c000001a040000000000e6
:020000040000fa
:0834c800001a040000000000de
:020000040000fa
:0834d0003a2104000000000095
:020000040000fa
:0834d800001a040000000000ce
:020000040000fa
:0834e0000221040000000000bd
:020000040000fa
:0834e800001a040000000000be
:020000040000fa
:0834f000001a040000000000b6
:020000040000fa
:0834f800001a040000000000ae
:020000040000fa
:08350000001a040000000000a5
:020000040000fa
:08350800902104000000000006
:020000040000fa
:08351000821f0400000000000e
:020000040000fa
:08351800001a0400000000008d
:020000040000fa
:08352000001a04000000000085
:020000040000fa
:08352800001a0400000000007d
:020000040000fa
:083530001e2104000000000050
:020000040000fa
:08353800001a0400000000006d
:020000040000fa
:083540008a1f040000000000d6
:020000040000fa
:08354800001a0400000000005d
:020000040000fa
:08355000461d0400000000000c
:020000040000fa
:08355800001a0400000000004d
:020000040000fa
:08356000001a04000000000045
:020000040000fa
:08356800001a0400000000003d
:020000040000fa
:08357000001a04000000000035
:020000040000fa
:08357800001a0400000000002d
:020000040000fa
:08358000001a04000000000025
:020000040000fa
:08358800001a0400000000001d
:020000040000fa
:08359000001a04000000000015
:020000040000fa
:08359800001a0400000000000d
:020000040000fa
:0835a000001a04000000000005
:020000040000fa
:0835a800001a040000000000fd
:020000040000fa
:0835b000001a040000000000f5
:020000040000fa
:0835b800001a040000000000ed
:020000040000fa
:08300000e01a040000000000ca
:020000040000fa
:020000040005f5
:045ff00078ff000036
:020000040000fa
:020000040005f5
:045fec005eff000054
:020000040000fa
:020000040005f5
:045fe80079ff00003d
:020000040000fa
:020000040005f5
:045fe4003fff00007b
:020000040000fa
:020000040005f5
:045fe000ceff0000f0
:020000040000fa
:10562800b6990000b6990000b6990000b699000036
:10563800b6990000b6990000b6990000b699000026
:10564800b6990000b6990000b6990000b699000016
:10565800b6990000b6990000b6990000b699000006
:10566800b6990000b6990000b6990000b6990000f6
:10567800b6990000b6990000b6990000b6990000e6
:10568800b6990000b6990000b6990000b6990000d6
:10569800b6990000b8990000b8990000b8990000c0
:1056a800b8990000b6990000b6990000b6990000b4
:1056b800b6990000b6990000b6990000b6990000a6
:1056c800b6990000b6990000b6990000b699000096
:1056d800b6990000b6990000b6990000b699000086
:1056e800b6990000b6990000b6990000b699000076
:1056f800b6990000b6990000b6990000b699000066
:10570800b6990000868700008e870000a6870000f3
:105718009e870000fc870000f2870000b89900000f
:10572800368800001679000064790000ba990000f4
:10573800b8990000b8990000ba990000ba99000019
:10574800ba990000ba990000ba990000ba99000005
:10575800ba9900006c790000ba9900009687000099
:10576800b6990000b6990000b6990000b6990000f5
:10577800b6990000ba990000ba990000ba990000d9
:10578800ba990000e6820000068300001883000032
:105798000083000012830000fa8200000c830000de
:1057a800b6990000b6990000b6990000b6990000b5
:1057b800b6990000b6990000b6990000b6990000a5
:1057c800b6990000b6990000b6990000b699000095
:1057d800b6990000b6990000b6990000b699000085
:1057e800b6990000ce730000ba730000a6720000dc
:1057f8009673000098740000a07400003c730000c9
:10580800b473000028720000307200004a7400006f
:105818006e73000036720000467200004e7200007f
:105828003e720000b6990000b6990000b6990000d3
:10583800b6990000b6990000b6990000b699000024
:10584800b6990000b6990000b6990000b699000014
:10585800b6990000b6990000b6990000ba99000000
:10586800b6990000b6990000b6990000b6990000f4
:10587800b6990000b6990000b6990000b6990000e4
:10588800b6990000b6990000b6990000b6990000d4
:10589800b6990000b6990000b6990000b6990000c4
:1058a800b6990000b6990000b6990000b6990000b4
:1058b800b6990000b6990000b6990000b6990000a4
:1058c800b6990000ba990000ba990000349800000f
:1058d800b6990000b6990000b6990000b699000084
:1058e800b6990000b6990000b6990000b699000074
:1058f800b6990000b6990000b6990000b699000064
:10590800b6990000b6990000b6990000b699000053
:10591800b6990000b6990000b6990000b699000043
:10592800b6990000b6990000b6990000b699000033
:10593800b6990000b8990000b6990000ce6c000036
:10594800206d0000ba990000b6990000726d000041
:10595800486f00009e6b0000b8990000b8990000dd
:10596800b8990000046a0000d86a00008069000045
:10597800c2690000ba990000a2690000e469000049
:10598800b6990000b6990000b6990000b6990000d3
:10599800b6990000b6990000b6990000b6990000c3
:1059a800b6990000168c0000b6990000b699000060
:1059b800b6990000b6990000b6990000b6990000a3
:1059c800b6990000b6990000b6990000b699000093
:1059d800b6990000b6990000b6990000b699000083
:1059e800b6990000b6990000b6990000b699000073
:1059f800b6990000b6990000b6990000b699000063
:105a0800b6990000b6990000b6990000b699000052
:105a1800b6990000b89900006a8c0000b699000099
:105a2800b6990000b6990000b6990000b699000032
:105a3800b6990000b6990000b6990000b699000022
:105a4800b6990000b6990000b6990000b699000012
:105a5800b6990000b6990000b6990000b699000002
:105a6800b6990000b6990000b6990000b6990000f2
:105a7800b6990000b6990000b6990000b6990000e2
:105a8800b6990000b8990000b6990000b6990000d0
:105a98002e830000d883000080840000ba9900009b
:105aa8009e8d0000d68d0000b8990000fa7700009e
:105ab800b8990000b8990000ba99000092830000d4
:105ac8003e840000f0840000b6990000b6990000fa
:105ad800b6990000b6990000b6990000b699000082
:105ae800b6990000b6990000b6990000b699000072
:105af800b6990000047a0000ba790000b89900004d
:105b0800b89900009e960000b6960000b099000073
:105b1800788d0000b8990000448e0000ba99000002
:105b2800ba990000ba990000ce960000d6960000f7
:105b380080790000ba990000ba990000ca9600005e
:105b4800b8990000d27a0000ba990000a09200002b
:105b5800e2920000ac8f0000fc8f00001c8e000059
:105b6800b699000094860000b6990000b699000026
:105b7800b6990000b6990000b6990000b6990000e1
:105b8800b6990000b6990000b6990000b6990000d1
:105b9800b6990000b6990000b6990000b6990000c1
:105ba800b6990000b6990000b6990000b6990000b1
:105bb800b6990000b6990000b6990000b6990000a1
:105bc800b6990000b6990000b6990000b699000091
:105bd800b69900000880000018800000f0800000de
:105be80008810000b8990000b8990000b899000031
:105bf800b8990000b8990000b6990000b69900005d
:105c0800b6990000b6990000b6990000b699000050
:105c1800b6990000b6990000b6990000b699000040
:105c2800b6990000b6990000b6990000b699000030
:105c3800b6990000b6990000b6990000b699000020
:105c4800b6990000d87d0000e07c0000c47e00000a
:105c5800b6990000b6990000b6990000b699000000
:105c6800b6990000b6990000b6990000b6990000f0
:105c7800b6990000b6990000b6990000b6990000e0
:105c8800b6990000b6990000b6990000b6990000d0
:105c9800b6990000b6990000b6990000b6990000c0
:105ca800b6990000b6990000b6990000b6990000b0
:105cb800740200006b020000000000009500000064
:105cc800000000000000000001000000f9000000d2
:105cd800000000000000000008000000870000002d
:105ce800040000000000000009000000af000000f0
:105cf80000000000010000000a0000001b00000076
:105d080000000000010000000c000000c3000000bb
:105d180001000000000000000d000000af000000be
:105d2800020000000000000010000000ff0000005a
:105d3800000000000000000011000000ff0000004b
:105d4800000000000100000012000000ff00000039
:105d5800000000000100000018000000ff00000023
:105d6800000000000100000019000000ff00000012
:105d7800000000000100000020000000ff000000fb
:105d8800000000000000000021000000ff000000eb
:105d9800000000000000000026000000df000000f6
:105da8000100000000000000370000007300000040
:105db80000000000000000003a000000250000007c
:105dc80004000000000000003b0000002500000067
:105dd800000000000000000029000000ff00000093
:105de800040000000000000017000000ff00000091
:105df800000000000000000044520000564100006e
:105e080000460000415400000046000041540000d4
:105e180033320000002200002a2b00002c3a000038
:105e28003b3c00003d3e00003f5b00005d7c000005
:105e38007f000000809a0000454100008e4100006c
:105e48008f80000045450000454900004949000091
:105e58008e8f000090920000924f0000994f000032
:105e680055550000599900009a9b00009c9d000020
:105e78009e9f0000414900004f550000a5a5000065
:105e8800a6a70000a8a90000aaab0000acad0000be
:105e9800aeaf0000b0b10000b2b30000b4b500006e
:105ea800b6b70000b8b90000babb0000bcbd00001e
:105eb800bebf0000c0c10000c2c30000c4c50000ce
:105ec800c6c70000c8c90000cacb0000cccd00007e
:105ed800cecf0000d0d10000d2d30000d4d500002e
:105ee800d6d70000d8d90000dadb0000dcdd0000de
:105ef800dedf0000e0e10000e2e30000e4e500008e
:105f0800e6e70000e8e90000eaeb0000eced00003d
:105f1800eeef0000f0f10000f2f30000f4f50000ed
:105f2800f6f70000f8f90000fafb0000fcfd00009d
:105f3800feff0000303a000000480000454c000019
:105f48004c4f00002e540000585400000048000038
:105f5800656c00006c6f0000205700006f72000035
:105f68006c640000210000000300000003500000e2
:105f7800534c00006162000020560000360000000b
:105f880000030000020300000403000006030000f1
:105f980008080000000000000f000000303a000070
:105fa80000000000e4950000aa950000200700000a
:045fb80020070000be
:020000040000fa
:105fbc00881f780000037800960278000080eb00c0
:105fcc000500e000110032000501780003c2b300a7
:105fdc00a4c3b300b240780083cf50001100360048
:105fec0084cf5000fbff3a009540780000cdb30001
:105ffc0000c04000e94f500006003e008582e800da
:10600c000080eb00828f5200240032004f04780095
:10601c00000006000080eb004f0478000000060032
:10602c00fcff3700f0c2b300954f100005003200a2
:10603c003cd0bf000080fb004f047800000006003d
:10604c00f4ff37008502e80003f02a00f0c9b30022
:10605c0007ceb300b34078000504780035417800d2
:10606c0000c24000f94f520001003e0087c04000c2
:10607c0000424100f94f520001003e00074141002f
:10608c000104e0000d00320082cf5000f1ff32001d
:10609c003cd0bf000080fb00e7ff370003c3b30018
:1060ac0083cf5000d9ff3a00020b78000000eb00c0
:1060bc004f04780000000600d6ff3700f0c2b30092
:1060cc00804f51000300320000c2b300804f5100da
:1060dc00d7ff3e00080b78000000eb00cbff370029
:1060ec000200fa00881f7800000478000800e00025
:1060fc0009003200180078000000e00006003200b1
:10610c001004e0000400320098019000300190006f
:10611c00828f510006003200900020000001eb003d
:10612c00820878004f0478000080fa000000060016
:10613c0010409000e1bf9f0014320700efb89700a9
:10614c000008a300f4ff3a00180178000000eb00ef
:10615c00820878004f0478000080fa0000000600e6
:10616c00f3ff3700889fbe008a9fbe008c1f78000b
:10617c0000047800e30444000000eb001904e00084
:10618c0004003a004f0678004f05be004f04be00d5
:10619c00000006004c032000080646000b032000fc
:1061ac00888545001b0178009b019000080578004c
:1061bc005a407800140020008c0078001a32070036
:1061cc0080007800100020000100e000edff3a0094
:1061dc00814c78001b0178009b019000680a9000ac
:1061ec00f80a900028139000b81390000603510091
:1061fc00878359000000eb00840f5300858f5b00f0
:10620c00e0ff3100a8409000e2cf5000ddff3a00e3
:10621c0004014100858149001a40780014002000d7
:10622c008c007800003207000000eb004f0678006d
:10623c004f05be004f04be0000000600d5ff37001e
:10624c000400fa00889fbe008a9fbe008c9fbe008f
:10625c00800578000b00780082bf9f0093bf9f00e1
:10626c00c0ff070080007800100020000fb99700d5
:10627c009fb997000100e0002a003a00620151002a
:10628c00e08159004b089000db0890006200500040
:10629c00e0805800800f5100818f59002600390092
:1062ac006066b800ea8445008c1d98009d1d98001e
:1062bc004a0320000b0545000a007800412320000a
:1062cc008b8040000058eb00810f5000fdff3a001e
:1062dc001900e000300032000004eb008b05e800f0
:1062ec000c014400e0814e001b407800140020009b
:1062fc008a007800cc3107000000e0001f003a0053
:10630c000804e80019007800880f5000f4ff3e00e4
:10631c0000006c0000f0a7000000ea000000ea009a
:10632c004f00de004f06be004f05be004f04be00fe
:10633c000080fa0000000600ea844500190078008d
:10634c00809ab9000011b800830142006b169000ce
:10635c00fb1690000206460083864e008c1d9800aa
:10636c009d1d98004a0320000b0545000a0078008b
:10637c00412320008b804000d2ff370019007800a9
:10638c0000006c0000f0a7000000ea000000ea002a
:10639c004f00de00e3ff37000000eb000004780044
:1063ac0000006c0000f0a7000000ea000000ea000a
:1063bc004f00de00dbff3700889fbe008a9fbe00c7
:1063cc008c1f7800000678000205be00090320002f
:1063dc008c8444000004eb00b90f1100a98f190044
:1063ec00050032000c0078005eff07000004780006
:1063fc000800e00005003200080078004f06780025
:10640c004f05be004f04be000000060041032000f3
:10641c008c8040001c409000140020000a01be003b
:10642c00753107000000e000030032001800200066
:10643c000085eb008085eb008a8cbe00080078009c
:10644c004f0678004f05be004f04be00000006004a
:10645c00eeff3700881f78000004780063004400ca
:10646c000048eb0000032000080040000098eb00ff
:10647c000090eb0008007800cfff07008000780048
:10648c0040c0b3000100e0000c003a0030232000b3
:10649c00080040001081fb004811dd002023200083
:1064ac00080040001080fb000201700030c0b300f7
:1064bc0051a52a00810f5100020032004f047800d0
:1064cc0000000600420320000801410092407800c1
:1064dc00f7cf400005003200f5cf4000030032003a
:1064ec0020c0b300f8cf4000f4ff3a00a806b0007b
:1064fc0050f02a00b840780090cf500009003a00c4
:10650c0060f02a0010407800b84f500005003a00a7
:10651c000040eb0071f02a0018447800914f5400b1
:10652c00e6ff320020052000020040003082fb0014
:10653c0093f02a009380fb00810052006205b000aa
:10654c000100e0000a003a001082fb00d380fb003f
:10655c0081005200820f5000020032000000e8005f
:10656c00f7ff37000040eb000100e000d3ff3200e2
:10657c0020c0b3004f04780000000600d1ff3700a4
:10658c002f02b000889fbe008a9fbe008c9fbe0069
:10659c008e1f78000105780002477800000deb0093
:1065ac0083fe070000067800b90020000c00e00014
:1065bc00250035000c004600e1032100008040005e
:1065cc0010047800c90020000800e0001e00320012
:1065dc00080d78000e04a1001804e00021003a0018
:1065ec008804e800004ceb008c4c78000c407800e0
:1065fc00fb3007000080fb00390020000008a300de
:10660c0011003a000e04e00003003200a900200043
:10661c000028a3000c003a006011b80008007800b4
:10662c008cff07006055b800e24f5000200032008c
:10663c0019002000e44f500003003200d900200064
:10664c00e14f500056003600090078004f077800e3
:10665c004f06be004f05be004f04be002f02b10016
:10666c00000006008804780059407800c730070005
:10667c000080fb000008a300daff3a008004eb0066
:10668c000e04e000f0ff32000028a300eeff320001
:10669c00a00020004f0778004f06be004f05be003b
:1066ac004f04be002f02b10000000600edff3700c2
:1066bc00e9fc2f008f84440009027800e01b2000c5
:1066cc00e61f200041032000808040008100440030
:1066dc00c14290006011b8000504e0001e003200b9
:1066ec0068814000314e90000c86fb008006eb0068
:1066fc00486ddd00c865de008b0575004865dd0062
:10670c00214e90000c86fb008006eb000c067500f9
:10671c008d867500486ddd00c865de008b05750043
:10672c004865dd00114e90000c86fb008006eb00e6
:10673c000c0675008d867500486ddd00c865de00a1
:10674c008b0575004865dd001281fb008001eb00b4
:10675c00020175008381750002aabe007000400022
:10676c00860f5000d7ff3a00ecfd2f000f064600b5
:10677c00e4844400190578009905900030c0b300fa
:10678c00e00f5500e08f5d00fb0032000a01be00f7
:10679c00080078002fff0700e14f5000f6003e0084
:1067ac0088c09000c808dd00787890000080fb005d
:1067bc0081007000d900200000202000808f500044
:1067cc00a1ff3a0038ce90004866dd0028c8900042
:1067dc000080fb000c0670008006eb00e00f5600fa
:1067ec00e08f5e001e003a0038d890000080fb005d
:1067fc008000eb004809dd00c801de008301710058
:10680c004801dd0028d890000080fb008000eb00e0
:10681c0000007100818071004809dd00c801de00b4
:10682c00830171004801dd0018d890000080fb0046
:10683c008000eb000000710081807100480edd00cb
:10684c00c806de008d0676004806dd0008d89000ec
:10685c000080fb008000eb0000067600818676004d
:10686c006c0c98007d0c9800c8c1900023449800d3
:10687c000340e900d9002000e14f500072ff3e00b8
:10688c0018c190000281fb00520498006eff320088
:10689c000200e900020060006bff3a0068c790003c
:1068ac000e0078004807dd0058c090000080fb0007
:1068bc000e0770004e0498006f00670062ff3a00ec
:1068cc0088c89000c808dd0078c090000080fb00ec
:1068dc00010070008000eb00e00f5000e08f5800ca
:1068ec001e003a0078d090000080fb008000eb0086
:1068fc00480add00c802de00850272004802dd0095
:10690c0068d090000080fb008000eb00000072005b
:10691c0081807200480add00c802de008502720028
:10692c004802dd0058d090000080fb008000eb0096
:10693c000000720081807200480add00c802de008f
:10694c00850272004802dd0048d090000080fb00f8
:10695c008000eb00000072008180720038c3900050
:10696c004833dd0028c290000482fb00060372004d
:10697c00d900200034ff32000382fb008002eb00c0
:10698c0094b79f00a5b79f0084eab90084037800f0
:10699c009fb297000562b800f4b79f0085bf9f00b7
:1069ac008582430085bf9f006132b80094b79f0079
:1069bc00a5b79f004473de0004034300e0834a0044
:1069cc007fb297008fba97000603420087834a0074
:1069dc00860f5000878f58001bff390006005000af
:1069ec00878058008001eb00b6b79f00c7b79f00a7
:1069fc005bf607000001be003fb39700cfb39700d2
:106a0c00e00f5100e08f59000fff320050ff2f00b4
:106a1c00f1ff2000800f5100818f59000aff3e00ca
:106a2c00eb0f4100e08f590026013e0055ff20007e
:106a3c00850f5100e08f59000e013e0062014100ac
:106a4c00e0814900420c9800530c98000a149800fd
:106a5c001b1498001fb09700afb097000a004000bd
:106a6c008b80480090b79f00a1b79f00201498001e
:106a7c0031149800c0022000080040000a1843009e
:106a8c000b904b0011c0b300d90020000e00e000a9
:106a9c00edfe320080022000080040001fb397007a
:106aac00afb397007fb297008fba970004184300da
:106abc0005904b00e2cf5000eb003200e31ab90016
:106acc006310b800810042008102d1000082d30023
:106adc00610061008000eb000401400085814800ea
:106aec0011c0b300f21fb0000380b000c71add0064
:106afc004911de0002817200c919de00d9002000a4
:106b0c00820f5600838f5e00cffe39007006440062
:106b1c00009eeb000096eb00ec044400809ceb0024
:106b2c008094eb006407440000c8b300004f780069
:106b3c00e3cf50001a003200014c78004010ec00fa
:106b4c0000828800300498006033b800260c98004e
:106b5c00370c98008004eb00090078004f07780090
:106b6c004f06be004f05be004f04be002f02b10001
:106b7c0000000600bbfe37008c8f5400acfe3200c8
:106b8c00e4844400190578009905900030c0b300e6
:106b9c00e00f5500e08f5d00f7ff3200fbfe370081
:106bac0058e190004811dd0048e090000080fb00a7
:106bbc0002007000e10f5000dfff3a006101450058
:106bcc00e0814d0008007800b1b79f00fafd070086
:106bdc00bfb097000000e000d7ff3a00004f7800ec
:106bec0030232000080040001081fb004811dd001c
:106bfc0020232000080040001080fb0002017000e0
:106c0c0050a52a00800f5100cbff3a0078719000fc
:106c1c000281fb008001eb00481add00c812de0087
:106c2c00850272004812dd00687190000281fb0041
:106c3c008001eb000201720083817200481add00b2
:106c4c00c812de00850272004812dd0058719000f7
:106c5c000281fb008001eb00020172008381720053
:106c6c00481add00c812de00850272004812dd00f1
:106c7c00487190000281fb008001eb00020272005f
:106c8c00838272002225250013162400820f5200e5
:106c9c00838f5a00a8ff3a00b02120000800400062
:106cac001081fb008001eb00481add00c812de00e9
:106cbc00850272004812dd00a0212000080040006f
:106ccc001081fb008001eb000201720083817200d5
:106cdc00481add00c812de00850272004812dd0081
:106cec0090212000080040001081fb008001eb0087
:106cfc000201720083817200481add00c812de00a6
:106d0c00850272004812dd0080212000080040003e
:106d1c001081fb008001eb00020272008382720082
:106d2c002227270013142600820f5200838f5a004b
:106d3c0081ff3a00f0212000080040001081fb0088
:106d4c008001eb00481add00c812de0085027200db
:106d5c004812dd00e0212000080040001081fb00fb
:106d6c008001eb000201720083817200481add0081
:106d7c00c812de00850272004812dd00d02120000e
:106d8c00080040001081fb008001eb000201720042
:106d9c0083817200481add00c812de008502720081
:106dac004812dd00c0212000080040001081fb00cb
:106dbc008001eb00021e720003967200302220004c
:106dcc00080040001081fb008001eb00481add0038
:106ddc00c812de00850272004812dd00202220005d
:106dec00080040001081fb008001eb0002017200e2
:106dfc0083817200481add00c812de008502720021
:106e0c004812dd0010222000080040001081fb0019
:106e1c008001eb000201720083817200481add00d0
:106e2c00c812de00850272004812dd00002220002c
:106e3c00080040001081fb008001eb00821c7200f6
:106e4c0083947200014c78004010ec0000828800a2
:106e5c00300498006033b800260c9800370c98006a
:106e6c008004eb003cff37000201410083814900a4
:106e7c001cff370062014100e0814900420c980080
:106e8c00530c98000a1498001b1498001fb297001a
:106e9c00afb297000a0242008b824a0094b79f005f
:106eac00a5b79f002414980035149800c002200048
:106ebc00080040000a1843000b904b0021c0b3009f
:106ecc00f1fe370062004100e0804900400c980060
:106edc00510c98000a1498001b14980042022000d0
:106eec00080141001fb29700afb29700041945008a
:106efc0005914d00c2022000080141000a1943000f
:106f0c000b914b00f8d99000c819dd0068d990009e
:106f1c000281fb0003017100cbfd3a000e00e00082
:106f2c00c9fd3a0038e190000281fb008001eb00c2
:106f3c00481add00c812de00850272004812dd001e
:106f4c0028e190000281fb008001eb00020172003d
:106f5c0083817200481add00c812de0085027200bf
:106f6c004812dd0018e190000281fb008001eb006b
:106f7c000201720083817200481bdd00c813de0021
:106f8c00870373004813dd0008e290000482fb00c5
:106f9c008002eb00820220000801410004197300fa
:106fac00059173004209dd00ce01de008301710002
:106fbc004201dd0031c0b300cafe3700889fbe001d
:106fcc008a9fbe008c9fbe008e1f78000004780044
:106fdc000205be000406be0020002000e10f510097
:106fec00e08f59000c00360048099000d809900039
:106ffc00820f5500838f5d000700310098407800a8
:10700c00e2cf500009003200e3cf50005a003200aa
:10701c00e1cf5000200032004f0778004f06be0031
:10702c004f05be004f04be00000006004858dd00ae
:10703c004851de0002017000c859de002810900093
:10704c00b8109000020140008381480008007800cd
:10705c00d9fc07000000e000efff3a000a054500ec
:10706c00fa1fb2008a004400cc7098000a05440054
:10707c004866de005c75980011c0b300314498007e
:10708c004f0778004f06be004f05be004f04be00f0
:10709c0000000600e5ff37008a04d1008a84440012
:1070ac004949de004e022000080747001e00780008
:1070bc009e00900000014100e0814800080078002b
:1070cc00bdfc07000000e000d3ff3a000900780087
:1070dc00f01fb2008904e800610565006f00320002
:1070ec0041032000808040008100440091407800e2
:1070fc00efc060004461dd0081407100000044007d
:10710c0041709800e305440010c0b300804d780036
:10711c004949de001e0078009e00900000014100ed
:10712c00e081480008007800a3fc07000000e000a4
:10713c00b9ff3a00f91fb2000a00e0005900320012
:10714c00cc68dd004466de000c867000c46ede0088
:10715c0089044400cc74980011c0b300814d7800b0
:10716c004f0778004f06be004f05be004f04be000f
:10717c0000000600adff3700c958dd004751de00a6
:10718c0002817000c759de0028109000b8109000e2
:10719c0002014000838148000800780086fc07004b
:1071ac000000e0009cff3a000c017800f1ff200089
:1071bc008d8160004255dd00fa1fb20041032000b2
:1071cc008a80400081004400314290000482fb0020
:1071dc008002eb00482bdd00c823de008703730020
:1071ec004823dd00214290000482fb008002eb006a
:1071fc000402730085827300482edd00c826de0071
:10720c008d0676004826dd00010278005483fb00d1
:10721c008003eb000606760087867600486bdd005f
:10722c00c863de00870373004863dd001186fb0032
:10723c008006eb0006067600878676000003780051
:10724c0001002f008d8360000201730083817300a5
:10725c000a05440042759800c81bde00c818dd0002
:10726c004813de000683700084007800865878008e
:10727c00835878004819de008248780011c0b300aa
:10728c00314498004f0778004f06be004f05be00f2
:10729c004f04be000000060064ff37008c407800ed
:1072ac0096ff37004203200009014100020144000f
:1072bc0001cfb30092c060004869dd004866de0073
:1072cc000c067100c86ede006f4666000cc67000be
:1072dc0089044400cc74980011c0b300814d78002f
:1072ec009fff3700889fbe000004780008007800dc
:1072fc009cfb07000000e0000c003a0030c0b3001b
:10730c00984f10000b0032000804e8001840780079
:10731c000001eb008040eb00cf2d070000f0a70030
:10732c000000ea000000ea004f00de004f04be003f
:10733c0000000600e404440010c0b300994f100094
:10734c00f1ff3a00410320008880400001007800e2
:10735c0042232000080141000058eb00820f50002e
:10736c00fdff3a00202320000800400052c5b30066
:10737c00024878003023200008004000a2cab30065
:10738c000248780020c5b3008048780050749800fb
:10739c0010c6b3006074980012c4b30072749800e5
:1073ac00842120000802420023c7b300034a78005e
:1073bc009421200008024200034a7800a3212000f7
:1073cc008881410082497800b221200008014100e7
:1073dc00004978000809900098099000c02120000d
:1073ec000800400002487800c81ade004818dd008a
:1073fc004812de0004027000d0212000080040007a
:10740c0004487800e0212000080040000348780080
:10741c00f0212000080040004819de0002487800e6
:10742c0068019000f8019000002220000800400044
:10743c0002487800c81ade004818dd004812de0049
:10744c00040270001022200008004000044878005c
:10745c002022200008004000034878003022200041
:10746c00080040004819de0002487800081190001e
:10747c009811900061014100e0814900021c9800c4
:10748c00131c98005840780014002000662d07004b
:10749c00804ceb00184078000001eb008040eb00c2
:1074ac006d2d070000f0a7000000ea000000ea00c4
:1074bc004f00de009dff3700fa81400031599000eb
:1074cc004811dd009381fb00028171008001eb000b
:1074dc00e34f5000020032000200be000000060024
:1074ec0074804000d1529000c82add001082fb004d
:1074fc00850072000000eb000001710081817100b9
:10750c000200be0000000600f5ff3700e901410053
:10751c008049eb001002780090029000e00f5200be
:10752c00e08f5a00440032000002eb0004007800a7
:10753c0006c2b300e7c2b30091014000934178004a
:10754c000000e80086cf510007003200e5cf510063
:10755c0041003200e90f5000380032008402410033
:10756c00934a98000402e800eb0f5000f2ff3a0037
:10757c000402410069024200004aeb0091017800cc
:10758c006b80410010407800004998001100780091
:10759c00fc004000705a90000482fb008002eb005b
:1075ac00482bdd00c823de00870373004823dd0071
:1075bc00605a90000482fb008002eb00040273000e
:1075cc0085827300482bdd00c823de00870373001f
:1075dc004823dd00505a90000482fb008002eb002f
:1075ec000402730085827300482bdd00c823de0083
:1075fc00870373004823dd001182fb008002eb003f
:10760c000419730005917300f6004000705290004d
:10761c004822dd009181fb00e600410083087200e6
:10762c00f801400090589000c808dd001380fb0062
:10763c0064014100008970000000060084024100d2
:10764c00974a98000402e80084024100934a98008b
:10765c000402e800c4ff370053ceb300e90f50001a
:10766c00beff3a00f5ff3700e4874700889fbe0055
:10767c008a9fbe008c9fbe008e1f7800000678008b
:10768c000205be001800200009002000e10f510087
:10769c00e08f59000c0036004c089000dc0890007c
:1076ac00800f5100818f5900070031001c40780079
:1076bc00e24f500079003200e34f50003b003200a3
:1076cc00e14f5000070032000800be004f07780061
:1076dc004f06be004f05be004f04be004f00b10068
:1076ec00000006008206d100828646004969de0051
:1076fc004e0220000c0747001e0078009e009000f0
:10770c0000014100e08148000c0078002afb0700d2
:10771c000084eb008084eb000000e000eaff3a00fc
:10772c000d007800f01fb200000046004070900081
:10773c0080f79f008d06e8004969de001e00780086
:10774c009e00900000014100e08148000c00780090
:10775c0019fb07000000e000dbff3a000ff0970078
:10776c008080fb00fd1fb2004d03b0000d064600eb
:10777c001c80fb004800dd00008070006105650086
:10778c00660032004404de008004eb000800be00fa
:10779c004f0778004f06be004f05be004f04be00d9
:1077ac004f00b10000000600ceff37004918dd0085
:1077bc004711de0002017000c719de002c1090008a
:1077cc00bc10900002014000838148000c0078003e
:1077dc00f9fa07000084eb008084eb000000e00065
:1077ec00b9ff3a004255dd00fa1fb2004a03b0005f
:1077fc000a0646003c4190000281fb008001eb0030
:10780c004818dd00c810de00810070004810dd0053
:10781c002c4190000281fb008001eb000201700002
:10782c00838170004818dd00c810de0081007000f4
:10783c004810dd001c4190000281fb008001eb0030
:10784c0002017000838170004818dd00c810de0052
:10785c00810070004810dd001c81fb008001eb00f2
:10786c00000171008181710082007800f0ff20001e
:10787c000300600001047800800478000800be005a
:10788c004f0778004f06be004f05be004f04be00e8
:10789c004f00b1000000060092ff3700c818dd0051
:1078ac004811de0002817000c819de002c10900017
:1078bc00bc10900002014000838148000c0078004d
:1078cc00bdfa07000084eb008084eb000000e000b0
:1078dc007dff3a000a054500fa1fb2004a03b000ca
:1078ec000a0646000c00e8001080fb004800dd0092
:1078fc001c84fb00080470008004eb000800be0030
:10790c004f0778004f06be004f05be004f04be0067
:10791c004f00b1000000060072ff3700f2ff20009c
:10792c00020160008a00780002047800810478006b
:10793c000800be004f0778004f06be004f05be0082
:10794c004f04be004f00b1000000060065ff370079
:10795c00e8874700889fbe008a9fbe008c9fbe00b0
:10796c008e1f7800800678000205be001d06780088
:10797c00e00f5100e08f59006a003a006c02900051
:10798c00fc029000e00f5200e08f5a005d003a00bc
:10799c001400200005002000700746001e0078002f
:1079ac009e0090006011b800e00f5000e08f58006e
:1079bc004d003200840f5500858f5d00720032003f
:1079cc00f8014600e3b79f00130078009300900085
:1079dc000404be0061044400e0844c00800f540099
:1079ec00818f5c0005003900e10f5200e08f5a00d6
:1079fc005c00360028002000090020000801be00b1
:107a0c001d007800f4b79f0085bf9f0016ff07008c
:107a1c000001be007fb297008fba9700e00f5000b4
:107a2c00e08f58000d003200e10f5000e08f58003d
:107a3c002d003200e10f4000e08f48002a00320098
:107a4c00840f5400858f5c00460032006fb39700a2
:107a5c001600780096009000deff37000082eb00e5
:107a6c008082eb000801be000c00780053fd07007b
:107a7c000000e00068003a00e00f5500e08f5d0068
:107a8c00060032000802be000a01be000c0078009d
:107a9c004afd07000000e0005f003a00680698000d
:107aac00790698001e0078009e009000e4ff2f00dd
:107abc00f5ff2f006fb3970036014200a6814a00f4
:107acc00820f5000838f580004003e000081eb00b1
:107adc008081eb00021f40000397480064064600bb
:107aec001c04a0000801be000200be004f07780075
:107afc004f06be004f05be004f04be008f00b10004
:107b0c00000006004c089000dc089000800f52002a
:107b1c00818f5a00a0ff39001400200005002000be
:107b2c009dff37000c007800cffe07000001be005f
:107b3c00e10f5000e08f580045003600e10f400087
:107b4c00e08f4800e8ff32004c089000dc08900001
:107b5c00800f5100818f5900e3ff39000a02be00eb
:107b6c008dff37006011b8000200be004f0778008f
:107b7c004f06be004f05be004f04be008f00b10083
:107b8c0000000600dfff370061044500e0844d0073
:107b9c0078004600e0b79f00b00f5400a08f5c0047
:107bac000200390028002000090020000801be0056
:107bbc001d007800acfe07000001be00e10f500074
:107bcc00e08f5800c8ff3200e10f4000e08f480002
:107bdc00c5ff3200e00f5000e08f58002600320045
:107bec006c029000fc029000e10f5200e08f5a00f2
:107bfc0029003600efb19700130078009300900035
:107c0c00800f5200818f5a0071ff39000a02be00aa
:107c1c000404be006fff3700120020000300200098
:107c2c00e10f5000b0ff3a000081eb008081eb00c7
:107c3c000200be004f0778004f06be004f05be0085
:107c4c004f04be008f00b10000000600adff3700ee
:107c5c0012002000030020000200be004f07780035
:107c6c004f06be004f05be004f04be008f00b10092
:107c7c0000000600a3ff3700e00f5400e08f5c000b
:107c8c0076ff3a006fb297001400780094009000d1
:107c9c000a02be00deff37006fb1970012007800b9
:107cac00920090000a02be000404be0049ff370097
:107cbc00ee874700889fbe008a9fbe008c9fbe0047
:107ccc008e1f780000047800010378009806780075
:107cdc00ee044400190578009905900076064400de
:107cec001c0078009c0090004e002000e00f50001b
:107cfc00e08f5800230032000a02b0000b80b00065
:107d0c00f2ff2f00f3012000820f5500838f5d00de
:107d1c001c003e00f41f2000050020000a01620038
:107d2c0085017800e00f5100e08f59004e003a00b9
:107d3c001200200003002000021e400003964800a1
:107d4c00f20344001701780097019000e00f5100f6
:107d5c00e08f590051003a00cb5add004551de004e
:107d6c0002817200c559de004d0090008000eb00ce
:107d7c00800f5100818f59003b003900000eeb0041
:107d8c003c1678000e0078004f0778004f06be00b6
:107d9c004f05be004f04be00ef00b100000006000e
:107dac0017017800970190000800780087bf9f00aa
:107dbc00e7fe07000002be007e002000e00f50002e
:107dcc00e08f5800efff32002e002000e10f500032
:107ddc00e08f5800ebff32001e002000e10f400046
:107dec00e08f4800e7ff32000001be000d00780074
:107dfc00e4b79f00f5b79f0011f907006fb2970029
:107e0c00ffb297008fbb97000000e000ddff3a0047
:107e1c00848bbe0062025200e0825a00e0ff2f0009
:107e2c00f1ff2f004fb3970036014000a6814800a8
:107e3c006000b800820f5200838f5a000900310095
:107e4c00bfb097001100780080a9b9000020b800dd
:107e5c00810041006d119000fd1190000000410067
:107e6c0081804900008ebe008a8cbe00fa1fb200d1
:107e7c004a03b0007a0444000a8c46000000eb0070
:107e8c004f0778004f06be004f05be004f04be00e2
:107e9c00ef00b10000000600c1ff37006a80460009
:107eac00b0b79f001002e900c75add004950de0050
:107ebc0000807200c958de00c0b79f00d1b79f0088
:107ecc00cfb29700050062008000eb00e00f50007d
:107edc00e08f5800e4ff3a000d007800e6b79f00f1
:107eec0087bf9f00e0fd07000002be002e002000af
:107efc006fb397008fbb9700e10f5000e08f5800d5
:107f0c00a0ff36001e002000e10f4000e08f48006b
:107f1c009cff320078804600c0b79f00b00f520023
:107f2c00a08f5a00baff39000600e0009cff3a000f
:107f3c00000eeb003c167800400020004f07780044
:107f4c004f06be004f05be004f04be00ef00b1004f
:107f5c000000060092ff3700e6874700889fbe00ae
:107f6c008a9fbe008c9fbe008e1f78008005780013
:107f7c000204be000401be001b0578002000200096
:107f8c00e10f5400e08f5c003600360078074500a6
:107f9c00be0f5400ae8f5c0032003100e00f520077
:107fac00e08f5a0035003a000a007800f0004500d6
:107fbc0081bf9f0064014500f2b79f000801be001d
:107fcc00a9fd07000006be00e00f5000e08f58002e
:107fdc0023003200e10f5000e08f580033003200d4
:107fec00e10f4000e08f4800380032006022b800fa
:107ffc000801be000a007800f0fb07000000e0005a
:10800c0018003a000fba9700140178009401900000
:10801c001e0078009e00900062025000e082580022
:10802c00840f5100858f5900070031001400200087
:10803c00050020000fbb9700041b4100059349006d
:10804c007fb197001204a000800f5600818f5e0054
:10805c00030031001b0078000c04be00d7ff370072
:10806c000000eb004f0778004f06be004f05be0026
:10807c004f04be006f00b100000006000082eb0050
:10808c008082eb000a007800ccfb07000000e000c7
:10809c00f4ff3a001b007800f000450081bf9f0000
:1080ac0064014500f2b79f00c4ff37002000200098
:1080bc004f0778004f06be004f05be004f04be00b0
:1080cc006f00b10000000600ecff3700100020002c
:1080dc004f0778004f06be004f05be004f04be0090
:1080ec006f00b10000000600e4ff3700889fbe005f
:1080fc008a9fbe008c1f7800000478001805780059
:10810c0040002000f6044400fa0544000006440038
:10811c001901780099019000e00f5100e08f59008f
:10812c00200032000a007800a3f807000000e000ed
:10813c0016003a001b017800924078000104e00020
:10814c001f00320032499000f243b200024e780018
:10815c00fbcf400008003200e3c2b30083cf5000d5
:10816c0005003200ef4f5100030032007f01610027
:10817c00e80f510007003a008000eb00080078007f
:10818c00cbfe07000000e000e1ff3200800ceb00aa
:10819c00b91478004f0678004f05be004f04be009e
:1081ac00000006000000e000f8ff3a004f067800df
:1081bc004f05be004f04be0000000600f9ff37005b
:1081cc0040002000800ceb00b9147800f1ff370060
:1081dc00889fbe008a9fbe0000047800980078003b
:1081ec006011b80072049800030c980038019000dc
:1081fc00c8019000e00f5100e08f590012003200ce
:10820c00510090000000e00031003a00f88440007a
:10821c000100780014fd07000001be00e10f4000d2
:10822c00e08f48003e003200e10f5000e08f580014
:10823c0022003600b90f5000a98f58001f003100e2
:10824c0098007800f2ff370020c0b300914f100067
:10825c000500360041129000d1129000e00f520040
:10826c00e08f5a0033003a004102900020002000b9
:10827c000400e0000e00320041129000d112900078
:10828c00340c9800450c9800120c9800230c9800a4
:10829c0020002000e00f5200e08f5a000400320052
:1082ac007a04440042032000028c40000000eb00e2
:1082bc004f05be004f04be00000006002000200049
:1082cc004f05be004f04be0000000600fbff370048
:1082dc0062035100e0835900410d9000d10d9000d4
:1082ec0062055500e0855d006022b8008a0f5300de
:1082fc008b8f5b000700310080bab9000033b800e7
:10830c008703420061129000f112900006024200b5
:10831c0087824a00340c9800450c9800daff37002d
:10832c00100020004f05be004f04be0000000600e8
:10833c00e2ff37000401be00b1ff3700889fbe008a
:10834c008a9fbe000004780098047800080078002a
:10835c009fff07000000e00013003a00f605440000
:10836c007a0544001b0178009b01900009007800fd
:10837c0011f807000000e0000b003a001a0078002a
:10838c0010407800fb4f4000110032000004e00068
:10839c000f003200110020000800780044fe070096
:1083ac000000e000efff3200e40f50000300320049
:1083bc004f05be004f04be000000060070002000f8
:1083cc004f05be004f04be0000000600fbff370047
:1083dc001b0178009b01900009007800f6f707005c
:1083ec000000e000f2ff3a009a0078000202200040
:1083fc00010141008058eb00828f5000fdff3a00d4
:10840c009a0078007c0444006b014400b858780052
:10841c00820f5400fdff3a0011c0b300b144980024
:10842c004f05be004f04be0000000600e3ff3700fe
:10843c00f0874700889fbe008a9fbe008c9fbe00bd
:10844c008e1f780000067800010578001c0078006b
:10845c00e0b79f001a407800f1c2b300814f500082
:10846c00df003200c1c5b300814f5000dc00320088
:10847c00e6004600c1b79f006fb19700b2099000ab
:10848c002209900001027800028abe00f4c1b300f8
:10849c009a4f1200e30036007c00460080bf9f001c
:1084ac00eb04400008c2b3007102200081004600ba
:1084bc00d1b79f007d014600f2b79f000fb897001f
:1084cc0008587800890f5000fdff3a00e6c2b3004f
:1084dc001a407800864f5000860032008a027800dd
:1084ec008003eb00070278008b002000fdc2b30074
:1084fc00cec5b30035407800804078000402e80017
:10850c00884f5000270036008d4f5000da003200a3
:10851c008e4f5000d8003200864f500016003200ab
:10852c008b8f5300140031000004e00092003500e2
:10853c008181fb0020022000808f51000700320057
:10854c00f2f02a00524078000004e0008000320073
:10855c000000fb00808f5100faff3a006000200001
:10856c004f0778004f06be004f05be004f04be00fb
:10857c000f01b10000000600eb8f5500f7ff320031
:10858c00864f5000f5ff3a0087002000bb0020000a
:10859c0035407800804078000402e800884f500095
:1085ac00d9ff3e00040545000700e000ebff320058
:1085bc0051ceb3000fba970094cf1000b800320020
:1085cc008040eb00884f500001003e0041c0b300da
:1085dc005fb19700014978009c0678000c00780088
:1085ec00fbfe07000000e0002e003a007607460074
:1085fc00fa004600640046008fb99700ea854100f6
:10860c00bab79f0000057800a9b79f0081047800d5
:10861c001e0178009e0190000d00780066f707009f
:10862c000000e0001d003a00190178001204e0007f
:10863c008c003200eb004100f3c3b30091c2610027
:10864c00054d78009180fb000138a3000e003a0024
:10865c009281fb000fba97009480fb00818151003e
:10866c00ffb0970008003a005282fb009181fb009a
:10867c00830152008b8f5000440032008100e800cf
:10868c000300e000f8ff32008000eb000c007800e3
:10869c0087fd07000000e000ddff32003fb59700ca
:1086ac00afb497005fb1970092407800e40f500090
:1086bc00abff3a008180fb000158a300830032001d
:1086cc000128a3007dff320000c8b300dfb1970082
:1086dc00804978000000eb004f0778004f06be0081
:1086ec004f05be004f04be000f01b1000000060094
:1086fc00a1ff37008fb99700804978009a4090000d
:10870c002200200080cf500004003a007fb2970076
:10871c00014a7800aa40900032002000f0c2b30059
:10872c0080cf50004a003200c0c5b30080cf50004b
:10873c004700320088cf500088ff3e0002054500fc
:10874c0040c2b300dfb0970080487800a2ff37002a
:10875c00f2c9b30002c04000f94f500002003e00c5
:10876c0003ceb30083c04000070046004158980078
:10877c008703e8005fff3700f107b200e2f12a003f
:10878c00010041009040780069ff37000300e000d1
:10879c00bdff3a003fb59700afb497005fb29700aa
:1087ac009480fb000128a3006dff3a000548a3004c
:1087bc003e0032007c009000f01fb2004003b0007d
:1087cc006fb2970080004200144078003afb07001b
:1087dc004fb197000089be000fb8970038ff3700e3
:1087ec008a007800f2c2b300c3c5b300010578005b
:1087fc00824f500002003200834f500002003a00ba
:10880c0051407800f9ff3700e6014600c3b79f00de
:10881c008009eb00b3117800f4c1b3009a4f120039
:10882c001dff3e0000c8b300706698000c00780075
:10883c0067fe07004f0778004f06be004f05be00cd
:10884c004f04be000f01b100000006004aff3700c4
:10885c000205450000c2b300dfb0970080487800e5
:10886c005dff37003fb59700afb497005fb097003e
